{
  "_format": "hh3-artifact-1",
  "contractName": "OfficialHypERC20Collateral",
  "sourceName": "solidity/bridge/OfficialHypERC20Collateral.sol",
  "abi": [
    {
      "inputs": [
        {
          "internalType": "address",
          "name": "erc20",
          "type": "address"
        },
        {
          "internalType": "uint256",
          "name": "scaleNumerator",
          "type": "uint256"
        },
        {
          "internalType": "uint256",
          "name": "scaleDenominator",
          "type": "uint256"
        },
        {
          "internalType": "address",
          "name": "mailbox",
          "type": "address"
        }
      ],
      "stateMutability": "nonpayable",
      "type": "constructor"
    },
    {
      "anonymous": false,
      "inputs": [
        {
          "indexed": true,
          "internalType": "address",
          "name": "owner",
          "type": "address"
        },
        {
          "indexed": true,
          "internalType": "address",
          "name": "spender",
          "type": "address"
        },
        {
          "indexed": false,
          "internalType": "uint256",
          "name": "value",
          "type": "uint256"
        }
      ],
      "name": "Approval",
      "type": "event"
    },
    {
      "anonymous": false,
      "inputs": [
        {
          "indexed": true,
          "internalType": "uint32",
          "name": "domain",
          "type": "uint32"
        },
        {
          "indexed": false,
          "internalType": "bytes32",
          "name": "recipient",
          "type": "bytes32"
        },
        {
          "indexed": false,
          "internalType": "uint256",
          "name": "amount",
          "type": "uint256"
        },
        {
          "indexed": true,
          "internalType": "address",
          "name": "rebalancer",
          "type": "address"
        }
      ],
      "name": "CollateralMoved",
      "type": "event"
    },
    {
      "anonymous": false,
      "inputs": [
        {
          "indexed": true,
          "internalType": "address",
          "name": "sender",
          "type": "address"
        },
        {
          "indexed": true,
          "internalType": "address",
          "name": "owner",
          "type": "address"
        },
        {
          "indexed": false,
          "internalType": "uint256",
          "name": "assets",
          "type": "uint256"
        },
        {
          "indexed": false,
          "internalType": "uint256",
          "name": "shares",
          "type": "uint256"
        }
      ],
      "name": "Deposit",
      "type": "event"
    },
    {
      "anonymous": false,
      "inputs": [
        {
          "indexed": false,
          "internalType": "address",
          "name": "sender",
          "type": "address"
        },
        {
          "indexed": false,
          "internalType": "uint256",
          "name": "amount",
          "type": "uint256"
        }
      ],
      "name": "Donation",
      "type": "event"
    },
    {
      "anonymous": false,
      "inputs": [
        {
          "indexed": false,
          "internalType": "address",
          "name": "feeHook",
          "type": "address"
        }
      ],
      "name": "FeeHookSet",
      "type": "event"
    },
    {
      "anonymous": false,
      "inputs": [
        {
          "indexed": false,
          "internalType": "address",
          "name": "feeRecipient",
          "type": "address"
        }
      ],
      "name": "FeeRecipientSet",
      "type": "event"
    },
    {
      "anonymous": false,
      "inputs": [
        {
          "indexed": false,
          "internalType": "uint32",
          "name": "domain",
          "type": "uint32"
        },
        {
          "indexed": false,
          "internalType": "uint256",
          "name": "gas",
          "type": "uint256"
        }
      ],
      "name": "GasSet",
      "type": "event"
    },
    {
      "anonymous": false,
      "inputs": [
        {
          "indexed": false,
          "internalType": "address",
          "name": "_hook",
          "type": "address"
        }
      ],
      "name": "HookSet",
      "type": "event"
    },
    {
      "anonymous": false,
      "inputs": [
        {
          "indexed": false,
          "internalType": "uint8",
          "name": "version",
          "type": "uint8"
        }
      ],
      "name": "Initialized",
      "type": "event"
    },
    {
      "anonymous": false,
      "inputs": [
        {
          "indexed": false,
          "internalType": "address",
          "name": "_ism",
          "type": "address"
        }
      ],
      "name": "IsmSet",
      "type": "event"
    },
    {
      "anonymous": false,
      "inputs": [
        {
          "indexed": true,
          "internalType": "address",
          "name": "previousOwner",
          "type": "address"
        },
        {
          "indexed": true,
          "internalType": "address",
          "name": "newOwner",
          "type": "address"
        }
      ],
      "name": "OwnershipTransferred",
      "type": "event"
    },
    {
      "anonymous": false,
      "inputs": [
        {
          "indexed": true,
          "internalType": "uint32",
          "name": "origin",
          "type": "uint32"
        },
        {
          "indexed": true,
          "internalType": "bytes32",
          "name": "recipient",
          "type": "bytes32"
        },
        {
          "indexed": false,
          "internalType": "uint256",
          "name": "amountOrId",
          "type": "uint256"
        }
      ],
      "name": "ReceivedTransferRemote",
      "type": "event"
    },
    {
      "anonymous": false,
      "inputs": [
        {
          "indexed": true,
          "internalType": "uint32",
          "name": "destination",
          "type": "uint32"
        },
        {
          "indexed": true,
          "internalType": "bytes32",
          "name": "recipient",
          "type": "bytes32"
        },
        {
          "indexed": false,
          "internalType": "uint256",
          "name": "amountOrId",
          "type": "uint256"
        }
      ],
      "name": "SentTransferRemote",
      "type": "event"
    },
    {
      "anonymous": false,
      "inputs": [
        {
          "indexed": true,
          "internalType": "address",
          "name": "from",
          "type": "address"
        },
        {
          "indexed": true,
          "internalType": "address",
          "name": "to",
          "type": "address"
        },
        {
          "indexed": false,
          "internalType": "uint256",
          "name": "value",
          "type": "uint256"
        }
      ],
      "name": "Transfer",
      "type": "event"
    },
    {
      "anonymous": false,
      "inputs": [
        {
          "indexed": true,
          "internalType": "address",
          "name": "sender",
          "type": "address"
        },
        {
          "indexed": true,
          "internalType": "address",
          "name": "receiver",
          "type": "address"
        },
        {
          "indexed": true,
          "internalType": "address",
          "name": "owner",
          "type": "address"
        },
        {
          "indexed": false,
          "internalType": "uint256",
          "name": "assets",
          "type": "uint256"
        },
        {
          "indexed": false,
          "internalType": "uint256",
          "name": "shares",
          "type": "uint256"
        }
      ],
      "name": "Withdraw",
      "type": "event"
    },
    {
      "inputs": [],
      "name": "PACKAGE_VERSION",
      "outputs": [
        {
          "internalType": "string",
          "name": "",
          "type": "string"
        }
      ],
      "stateMutability": "view",
      "type": "function"
    },
    {
      "inputs": [
        {
          "internalType": "uint32",
          "name": "domain",
          "type": "uint32"
        },
        {
          "internalType": "contract ITokenBridge",
          "name": "bridge",
          "type": "address"
        }
      ],
      "name": "addBridge",
      "outputs": [],
      "stateMutability": "nonpayable",
      "type": "function"
    },
    {
      "inputs": [
        {
          "internalType": "address",
          "name": "rebalancer",
          "type": "address"
        }
      ],
      "name": "addRebalancer",
      "outputs": [],
      "stateMutability": "nonpayable",
      "type": "function"
    },
    {
      "inputs": [
        {
          "internalType": "address",
          "name": "owner",
          "type": "address"
        },
        {
          "internalType": "address",
          "name": "spender",
          "type": "address"
        }
      ],
      "name": "allowance",
      "outputs": [
        {
          "internalType": "uint256",
          "name": "",
          "type": "uint256"
        }
      ],
      "stateMutability": "view",
      "type": "function"
    },
    {
      "inputs": [
        {
          "internalType": "uint32",
          "name": "domain",
          "type": "uint32"
        }
      ],
      "name": "allowedBridges",
      "outputs": [
        {
          "internalType": "address[]",
          "name": "",
          "type": "address[]"
        }
      ],
      "stateMutability": "view",
      "type": "function"
    },
    {
      "inputs": [],
      "name": "allowedRebalancers",
      "outputs": [
        {
          "internalType": "address[]",
          "name": "",
          "type": "address[]"
        }
      ],
      "stateMutability": "view",
      "type": "function"
    },
    {
      "inputs": [
        {
          "internalType": "uint32",
          "name": "domain",
          "type": "uint32"
        }
      ],
      "name": "allowedRecipient",
      "outputs": [
        {
          "internalType": "bytes32",
          "name": "",
          "type": "bytes32"
        }
      ],
      "stateMutability": "view",
      "type": "function"
    },
    {
      "inputs": [
        {
          "internalType": "address",
          "name": "spender",
          "type": "address"
        },
        {
          "internalType": "uint256",
          "name": "amount",
          "type": "uint256"
        }
      ],
      "name": "approve",
      "outputs": [
        {
          "internalType": "bool",
          "name": "",
          "type": "bool"
        }
      ],
      "stateMutability": "nonpayable",
      "type": "function"
    },
    {
      "inputs": [
        {
          "internalType": "contract IERC20",
          "name": "token",
          "type": "address"
        },
        {
          "internalType": "contract ITokenBridge",
          "name": "bridge",
          "type": "address"
        }
      ],
      "name": "approveTokenForBridge",
      "outputs": [],
      "stateMutability": "nonpayable",
      "type": "function"
    },
    {
      "inputs": [],
      "name": "asset",
      "outputs": [
        {
          "internalType": "address",
          "name": "",
          "type": "address"
        }
      ],
      "stateMutability": "view",
      "type": "function"
    },
    {
      "inputs": [
        {
          "internalType": "address",
          "name": "account",
          "type": "address"
        }
      ],
      "name": "balanceOf",
      "outputs": [
        {
          "internalType": "uint256",
          "name": "",
          "type": "uint256"
        }
      ],
      "stateMutability": "view",
      "type": "function"
    },
    {
      "inputs": [
        {
          "internalType": "uint256",
          "name": "shares",
          "type": "uint256"
        }
      ],
      "name": "convertToAssets",
      "outputs": [
        {
          "internalType": "uint256",
          "name": "",
          "type": "uint256"
        }
      ],
      "stateMutability": "view",
      "type": "function"
    },
    {
      "inputs": [
        {
          "internalType": "uint256",
          "name": "assets",
          "type": "uint256"
        }
      ],
      "name": "convertToShares",
      "outputs": [
        {
          "internalType": "uint256",
          "name": "",
          "type": "uint256"
        }
      ],
      "stateMutability": "view",
      "type": "function"
    },
    {
      "inputs": [],
      "name": "decimals",
      "outputs": [
        {
          "internalType": "uint8",
          "name": "",
          "type": "uint8"
        }
      ],
      "stateMutability": "view",
      "type": "function"
    },
    {
      "inputs": [
        {
          "internalType": "address",
          "name": "spender",
          "type": "address"
        },
        {
          "internalType": "uint256",
          "name": "subtractedValue",
          "type": "uint256"
        }
      ],
      "name": "decreaseAllowance",
      "outputs": [
        {
          "internalType": "bool",
          "name": "",
          "type": "bool"
        }
      ],
      "stateMutability": "nonpayable",
      "type": "function"
    },
    {
      "inputs": [
        {
          "internalType": "uint256",
          "name": "assets",
          "type": "uint256"
        },
        {
          "internalType": "address",
          "name": "receiver",
          "type": "address"
        }
      ],
      "name": "deposit",
      "outputs": [
        {
          "internalType": "uint256",
          "name": "",
          "type": "uint256"
        }
      ],
      "stateMutability": "nonpayable",
      "type": "function"
    },
    {
      "inputs": [
        {
          "internalType": "uint32",
          "name": "destinationDomain",
          "type": "uint32"
        }
      ],
      "name": "destinationGas",
      "outputs": [
        {
          "internalType": "uint256",
          "name": "gasLimit",
          "type": "uint256"
        }
      ],
      "stateMutability": "view",
      "type": "function"
    },
    {
      "inputs": [],
      "name": "domains",
      "outputs": [
        {
          "internalType": "uint32[]",
          "name": "",
          "type": "uint32[]"
        }
      ],
      "stateMutability": "view",
      "type": "function"
    },
    {
      "inputs": [
        {
          "internalType": "uint256",
          "name": "amount",
          "type": "uint256"
        }
      ],
      "name": "donate",
      "outputs": [],
      "stateMutability": "payable",
      "type": "function"
    },
    {
      "inputs": [
        {
          "internalType": "uint32",
          "name": "_domain",
          "type": "uint32"
        },
        {
          "internalType": "bytes32",
          "name": "_router",
          "type": "bytes32"
        }
      ],
      "name": "enrollRemoteRouter",
      "outputs": [],
      "stateMutability": "nonpayable",
      "type": "function"
    },
    {
      "inputs": [
        {
          "internalType": "uint32[]",
          "name": "_domains",
          "type": "uint32[]"
        },
        {
          "internalType": "bytes32[]",
          "name": "_addresses",
          "type": "bytes32[]"
        }
      ],
      "name": "enrollRemoteRouters",
      "outputs": [],
      "stateMutability": "nonpayable",
      "type": "function"
    },
    {
      "inputs": [],
      "name": "feeHook",
      "outputs": [
        {
          "internalType": "address",
          "name": "",
          "type": "address"
        }
      ],
      "stateMutability": "view",
      "type": "function"
    },
    {
      "inputs": [],
      "name": "feeRecipient",
      "outputs": [
        {
          "internalType": "address",
          "name": "",
          "type": "address"
        }
      ],
      "stateMutability": "view",
      "type": "function"
    },
    {
      "inputs": [],
      "name": "feeToken",
      "outputs": [
        {
          "internalType": "address",
          "name": "",
          "type": "address"
        }
      ],
      "stateMutability": "view",
      "type": "function"
    },
    {
      "inputs": [
        {
          "internalType": "uint32",
          "name": "_origin",
          "type": "uint32"
        },
        {
          "internalType": "bytes32",
          "name": "_sender",
          "type": "bytes32"
        },
        {
          "internalType": "bytes",
          "name": "_message",
          "type": "bytes"
        }
      ],
      "name": "handle",
      "outputs": [],
      "stateMutability": "payable",
      "type": "function"
    },
    {
      "inputs": [],
      "name": "hook",
      "outputs": [
        {
          "internalType": "contract IPostDispatchHook",
          "name": "",
          "type": "address"
        }
      ],
      "stateMutability": "view",
      "type": "function"
    },
    {
      "inputs": [
        {
          "internalType": "address",
          "name": "spender",
          "type": "address"
        },
        {
          "internalType": "uint256",
          "name": "addedValue",
          "type": "uint256"
        }
      ],
      "name": "increaseAllowance",
      "outputs": [
        {
          "internalType": "bool",
          "name": "",
          "type": "bool"
        }
      ],
      "stateMutability": "nonpayable",
      "type": "function"
    },
    {
      "inputs": [
        {
          "internalType": "address",
          "name": "_hook",
          "type": "address"
        },
        {
          "internalType": "address",
          "name": "_interchainSecurityModule",
          "type": "address"
        },
        {
          "internalType": "address",
          "name": "_owner",
          "type": "address"
        }
      ],
      "name": "initialize",
      "outputs": [],
      "stateMutability": "nonpayable",
      "type": "function"
    },
    {
      "inputs": [],
      "name": "interchainSecurityModule",
      "outputs": [
        {
          "internalType": "contract IInterchainSecurityModule",
          "name": "",
          "type": "address"
        }
      ],
      "stateMutability": "view",
      "type": "function"
    },
    {
      "inputs": [],
      "name": "localDomain",
      "outputs": [
        {
          "internalType": "uint32",
          "name": "",
          "type": "uint32"
        }
      ],
      "stateMutability": "view",
      "type": "function"
    },
    {
      "inputs": [],
      "name": "mailbox",
      "outputs": [
        {
          "internalType": "contract IMailbox",
          "name": "",
          "type": "address"
        }
      ],
      "stateMutability": "view",
      "type": "function"
    },
    {
      "inputs": [
        {
          "internalType": "address",
          "name": "",
          "type": "address"
        }
      ],
      "name": "maxDeposit",
      "outputs": [
        {
          "internalType": "uint256",
          "name": "",
          "type": "uint256"
        }
      ],
      "stateMutability": "view",
      "type": "function"
    },
    {
      "inputs": [
        {
          "internalType": "address",
          "name": "",
          "type": "address"
        }
      ],
      "name": "maxMint",
      "outputs": [
        {
          "internalType": "uint256",
          "name": "",
          "type": "uint256"
        }
      ],
      "stateMutability": "view",
      "type": "function"
    },
    {
      "inputs": [
        {
          "internalType": "address",
          "name": "owner",
          "type": "address"
        }
      ],
      "name": "maxRedeem",
      "outputs": [
        {
          "internalType": "uint256",
          "name": "",
          "type": "uint256"
        }
      ],
      "stateMutability": "view",
      "type": "function"
    },
    {
      "inputs": [
        {
          "internalType": "address",
          "name": "owner",
          "type": "address"
        }
      ],
      "name": "maxWithdraw",
      "outputs": [
        {
          "internalType": "uint256",
          "name": "",
          "type": "uint256"
        }
      ],
      "stateMutability": "view",
      "type": "function"
    },
    {
      "inputs": [
        {
          "internalType": "uint256",
          "name": "shares",
          "type": "uint256"
        },
        {
          "internalType": "address",
          "name": "receiver",
          "type": "address"
        }
      ],
      "name": "mint",
      "outputs": [
        {
          "internalType": "uint256",
          "name": "",
          "type": "uint256"
        }
      ],
      "stateMutability": "nonpayable",
      "type": "function"
    },
    {
      "inputs": [],
      "name": "name",
      "outputs": [
        {
          "internalType": "string",
          "name": "",
          "type": "string"
        }
      ],
      "stateMutability": "view",
      "type": "function"
    },
    {
      "inputs": [],
      "name": "owner",
      "outputs": [
        {
          "internalType": "address",
          "name": "",
          "type": "address"
        }
      ],
      "stateMutability": "view",
      "type": "function"
    },
    {
      "inputs": [
        {
          "internalType": "uint256",
          "name": "assets",
          "type": "uint256"
        }
      ],
      "name": "previewDeposit",
      "outputs": [
        {
          "internalType": "uint256",
          "name": "",
          "type": "uint256"
        }
      ],
      "stateMutability": "view",
      "type": "function"
    },
    {
      "inputs": [
        {
          "internalType": "uint256",
          "name": "shares",
          "type": "uint256"
        }
      ],
      "name": "previewMint",
      "outputs": [
        {
          "internalType": "uint256",
          "name": "",
          "type": "uint256"
        }
      ],
      "stateMutability": "view",
      "type": "function"
    },
    {
      "inputs": [
        {
          "internalType": "uint256",
          "name": "shares",
          "type": "uint256"
        }
      ],
      "name": "previewRedeem",
      "outputs": [
        {
          "internalType": "uint256",
          "name": "",
          "type": "uint256"
        }
      ],
      "stateMutability": "view",
      "type": "function"
    },
    {
      "inputs": [
        {
          "internalType": "uint256",
          "name": "assets",
          "type": "uint256"
        }
      ],
      "name": "previewWithdraw",
      "outputs": [
        {
          "internalType": "uint256",
          "name": "",
          "type": "uint256"
        }
      ],
      "stateMutability": "view",
      "type": "function"
    },
    {
      "inputs": [
        {
          "internalType": "uint32",
          "name": "_destinationDomain",
          "type": "uint32"
        }
      ],
      "name": "quoteGasPayment",
      "outputs": [
        {
          "internalType": "uint256",
          "name": "",
          "type": "uint256"
        }
      ],
      "stateMutability": "view",
      "type": "function"
    },
    {
      "inputs": [
        {
          "internalType": "uint32",
          "name": "_destination",
          "type": "uint32"
        },
        {
          "internalType": "bytes32",
          "name": "_recipient",
          "type": "bytes32"
        },
        {
          "internalType": "uint256",
          "name": "_amount",
          "type": "uint256"
        }
      ],
      "name": "quoteTransferRemote",
      "outputs": [
        {
          "components": [
            {
              "internalType": "address",
              "name": "token",
              "type": "address"
            },
            {
              "internalType": "uint256",
              "name": "amount",
              "type": "uint256"
            }
          ],
          "internalType": "struct Quote[]",
          "name": "quotes",
          "type": "tuple[]"
        }
      ],
      "stateMutability": "view",
      "type": "function"
    },
    {
      "inputs": [
        {
          "internalType": "uint32",
          "name": "domain",
          "type": "uint32"
        },
        {
          "internalType": "uint256",
          "name": "collateralAmount",
          "type": "uint256"
        },
        {
          "internalType": "contract ITokenBridge",
          "name": "bridge",
          "type": "address"
        }
      ],
      "name": "rebalance",
      "outputs": [],
      "stateMutability": "payable",
      "type": "function"
    },
    {
      "inputs": [
        {
          "internalType": "uint256",
          "name": "shares",
          "type": "uint256"
        },
        {
          "internalType": "address",
          "name": "receiver",
          "type": "address"
        },
        {
          "internalType": "address",
          "name": "owner",
          "type": "address"
        }
      ],
      "name": "redeem",
      "outputs": [
        {
          "internalType": "uint256",
          "name": "",
          "type": "uint256"
        }
      ],
      "stateMutability": "nonpayable",
      "type": "function"
    },
    {
      "inputs": [
        {
          "internalType": "uint32",
          "name": "domain",
          "type": "uint32"
        },
        {
          "internalType": "contract ITokenBridge",
          "name": "bridge",
          "type": "address"
        }
      ],
      "name": "removeBridge",
      "outputs": [],
      "stateMutability": "nonpayable",
      "type": "function"
    },
    {
      "inputs": [
        {
          "internalType": "address",
          "name": "rebalancer",
          "type": "address"
        }
      ],
      "name": "removeRebalancer",
      "outputs": [],
      "stateMutability": "nonpayable",
      "type": "function"
    },
    {
      "inputs": [
        {
          "internalType": "uint32",
          "name": "domain",
          "type": "uint32"
        }
      ],
      "name": "removeRecipient",
      "outputs": [],
      "stateMutability": "nonpayable",
      "type": "function"
    },
    {
      "inputs": [],
      "name": "renounceOwnership",
      "outputs": [],
      "stateMutability": "nonpayable",
      "type": "function"
    },
    {
      "inputs": [
        {
          "internalType": "uint32",
          "name": "_domain",
          "type": "uint32"
        }
      ],
      "name": "routers",
      "outputs": [
        {
          "internalType": "bytes32",
          "name": "",
          "type": "bytes32"
        }
      ],
      "stateMutability": "view",
      "type": "function"
    },
    {
      "inputs": [],
      "name": "scaleDenominator",
      "outputs": [
        {
          "internalType": "uint256",
          "name": "",
          "type": "uint256"
        }
      ],
      "stateMutability": "view",
      "type": "function"
    },
    {
      "inputs": [],
      "name": "scaleNumerator",
      "outputs": [
        {
          "internalType": "uint256",
          "name": "",
          "type": "uint256"
        }
      ],
      "stateMutability": "view",
      "type": "function"
    },
    {
      "inputs": [
        {
          "internalType": "uint32",
          "name": "domain",
          "type": "uint32"
        },
        {
          "internalType": "uint256",
          "name": "gas",
          "type": "uint256"
        }
      ],
      "name": "setDestinationGas",
      "outputs": [],
      "stateMutability": "nonpayable",
      "type": "function"
    },
    {
      "inputs": [
        {
          "components": [
            {
              "internalType": "uint32",
              "name": "domain",
              "type": "uint32"
            },
            {
              "internalType": "uint256",
              "name": "gas",
              "type": "uint256"
            }
          ],
          "internalType": "struct GasRouter.GasRouterConfig[]",
          "name": "gasConfigs",
          "type": "tuple[]"
        }
      ],
      "name": "setDestinationGas",
      "outputs": [],
      "stateMutability": "nonpayable",
      "type": "function"
    },
    {
      "inputs": [
        {
          "internalType": "address",
          "name": "_feeHook",
          "type": "address"
        }
      ],
      "name": "setFeeHook",
      "outputs": [],
      "stateMutability": "nonpayable",
      "type": "function"
    },
    {
      "inputs": [
        {
          "internalType": "address",
          "name": "recipient",
          "type": "address"
        }
      ],
      "name": "setFeeRecipient",
      "outputs": [],
      "stateMutability": "nonpayable",
      "type": "function"
    },
    {
      "inputs": [
        {
          "internalType": "address",
          "name": "_hook",
          "type": "address"
        }
      ],
      "name": "setHook",
      "outputs": [],
      "stateMutability": "nonpayable",
      "type": "function"
    },
    {
      "inputs": [
        {
          "internalType": "address",
          "name": "_module",
          "type": "address"
        }
      ],
      "name": "setInterchainSecurityModule",
      "outputs": [],
      "stateMutability": "nonpayable",
      "type": "function"
    },
    {
      "inputs": [
        {
          "internalType": "uint32",
          "name": "domain",
          "type": "uint32"
        },
        {
          "internalType": "bytes32",
          "name": "recipient",
          "type": "bytes32"
        }
      ],
      "name": "setRecipient",
      "outputs": [],
      "stateMutability": "nonpayable",
      "type": "function"
    },
    {
      "inputs": [],
      "name": "symbol",
      "outputs": [
        {
          "internalType": "string",
          "name": "",
          "type": "string"
        }
      ],
      "stateMutability": "view",
      "type": "function"
    },
    {
      "inputs": [],
      "name": "token",
      "outputs": [
        {
          "internalType": "address",
          "name": "",
          "type": "address"
        }
      ],
      "stateMutability": "view",
      "type": "function"
    },
    {
      "inputs": [],
      "name": "totalAssets",
      "outputs": [
        {
          "internalType": "uint256",
          "name": "",
          "type": "uint256"
        }
      ],
      "stateMutability": "view",
      "type": "function"
    },
    {
      "inputs": [],
      "name": "totalSupply",
      "outputs": [
        {
          "internalType": "uint256",
          "name": "",
          "type": "uint256"
        }
      ],
      "stateMutability": "view",
      "type": "function"
    },
    {
      "inputs": [
        {
          "internalType": "address",
          "name": "to",
          "type": "address"
        },
        {
          "internalType": "uint256",
          "name": "amount",
          "type": "uint256"
        }
      ],
      "name": "transfer",
      "outputs": [
        {
          "internalType": "bool",
          "name": "",
          "type": "bool"
        }
      ],
      "stateMutability": "nonpayable",
      "type": "function"
    },
    {
      "inputs": [
        {
          "internalType": "address",
          "name": "from",
          "type": "address"
        },
        {
          "internalType": "address",
          "name": "to",
          "type": "address"
        },
        {
          "internalType": "uint256",
          "name": "amount",
          "type": "uint256"
        }
      ],
      "name": "transferFrom",
      "outputs": [
        {
          "internalType": "bool",
          "name": "",
          "type": "bool"
        }
      ],
      "stateMutability": "nonpayable",
      "type": "function"
    },
    {
      "inputs": [
        {
          "internalType": "address",
          "name": "newOwner",
          "type": "address"
        }
      ],
      "name": "transferOwnership",
      "outputs": [],
      "stateMutability": "nonpayable",
      "type": "function"
    },
    {
      "inputs": [
        {
          "internalType": "uint32",
          "name": "_destination",
          "type": "uint32"
        },
        {
          "internalType": "bytes32",
          "name": "_recipient",
          "type": "bytes32"
        },
        {
          "internalType": "uint256",
          "name": "_amount",
          "type": "uint256"
        }
      ],
      "name": "transferRemote",
      "outputs": [
        {
          "internalType": "bytes32",
          "name": "messageId",
          "type": "bytes32"
        }
      ],
      "stateMutability": "payable",
      "type": "function"
    },
    {
      "inputs": [
        {
          "internalType": "uint32",
          "name": "_domain",
          "type": "uint32"
        }
      ],
      "name": "unenrollRemoteRouter",
      "outputs": [],
      "stateMutability": "nonpayable",
      "type": "function"
    },
    {
      "inputs": [
        {
          "internalType": "uint32[]",
          "name": "_domains",
          "type": "uint32[]"
        }
      ],
      "name": "unenrollRemoteRouters",
      "outputs": [],
      "stateMutability": "nonpayable",
      "type": "function"
    },
    {
      "inputs": [
        {
          "internalType": "uint256",
          "name": "assets",
          "type": "uint256"
        },
        {
          "internalType": "address",
          "name": "receiver",
          "type": "address"
        },
        {
          "internalType": "address",
          "name": "owner",
          "type": "address"
        }
      ],
      "name": "withdraw",
      "outputs": [
        {
          "internalType": "uint256",
          "name": "",
          "type": "uint256"
        }
      ],
      "stateMutability": "nonpayable",
      "type": "function"
    },
    {
      "inputs": [],
      "name": "wrappedToken",
      "outputs": [
        {
          "internalType": "contract IERC20",
          "name": "",
          "type": "address"
        }
      ],
      "stateMutability": "view",
      "type": "function"
    }
  ],
  "bytecode": "0x610120604081815234620002f057608082620051ce8038038091620000258285620002f5565b833981010312620002f0576200003b826200032f565b91602080820151916200005560608583015192016200032f565b92833b15620002ac576001600160a01b039384166080819052855163234d8e3d60e21b8152908490829060049082905afa908115620002a15760009162000259575b5060a05260338054336001600160a01b0319821681179092558651919086167f8be0079c531659141344cd1fd0a4f28419497f9722a3daafe3b4186f6b6457e0600080a3811515806200024f575b156200020d575060c05260e052833b15620001c057506101009216825251614e899182620003458339608051828181610c7f01528181611b49015281816123600152614112015260a051826117f4015260c051828181611a90015281816123f30152612904015260e05182818161149d01528181611a6e015261241401525181818161036a015281816103fc0152818161089a01528181610f53015281816114ed015281816118ca01528181611a1801528181611fd2015281816130420152818161393201528181613a4101528181613d9d01526148160152f35b60849083519062461bcd60e51b82526004820152602160248201527f4879704552433230436f6c6c61746572616c3a20696e76616c696420746f6b656044820152603760f91b6064820152fd5b62461bcd60e51b815260048101849052601e60248201527f546f6b656e526f757465723a207363616c652063616e6e6f74206265203000006044820152606490fd5b50821515620000e5565b8481813d831162000299575b620002718183620002f5565b810103126200029557519063ffffffff821682036200029257503862000097565b80fd5b5080fd5b503d62000265565b86513d6000823e3d90fd5b845162461bcd60e51b815260048101849052601e60248201527f4d61696c626f78436c69656e743a20696e76616c6964206d61696c626f7800006044820152606490fd5b600080fd5b601f909101601f19168101906001600160401b038211908210176200031957604052565b634e487b7160e01b600052604160045260246000fd5b51906001600160a01b0382168203620002f05756fe608060408181526004918236101561001657600080fd5b600092833560e01c91826301e1d11414612bc25750816306fdde0314612af357816307a2d13a146125a9578163095ea7b314612ac95781630a28a47714612aa95781630c97991914612a695781630e72cc06146129bb57816318160ddd1461299c5781631ba83149146129275781631c2eaac0146128ec57816323b872dd146128af5781632c2d80891461286c5781632ead72f614612838578163313ce567146127dd57816338d52e0f146114c057816339509351146127815781633dfd3873146126d3578163402d267d14610d7057816343bc4b9a1461268f578163440df4f41461262f57816346904840146125db57816349d462ef146125ae5781634cdad506146125a95781634e38a81d1461257757816356d5d475146122f7578163647846a5146122bd5781636a99c33314611ed95781636e553f6514611ea457816370a0823114610c0a578163715018a614611e2457816371a15b3814611d93578163775313a114611d5f57816377e2dc7a14611d2b5781637f5a7c7b14611cf657816381b4e8b4146119ad5781638bd90b82146118185781638d3638f4146117d75781638da5cb5b146117a257816392c18454146116f357816393c448471461169657816394bf804d1461166157816395d89b4114611511578163996c6cc3146114c05781639f0b765914611485578163a457c2d7146113ba578163a9059cbb14611389578163b1bd6436146112c1578163b3d7f6b9146112a1578163b460af94146111f4578163b49c53a7146111c7578163ba0876521461111f578163c0c53b8b14610dae57838263c382711514610d7557508163c63d75b614610d70578163c69c8ce214610ce8578163c6e6f5921461096b578163ce96cb7714610ca3578163d5438eae14610c52578163d905777e14610c0a578163dd62ed3e14610bb4578163de523cf314610b7f578163e74b981b14610a84578163e9198bf914610970578163ef8b30f71461096b578163efae508a1461093e578163f11f4461146108ea578163f14faf6f1461085c578163f2ed8c5314610781578163f2fde38b146106ca578163fa57f1571461052557508063fbaca44c146103925763fc0c546a1461033f57600080fd5b3461038e578160031936011261038e576020905173ffffffffffffffffffffffffffffffffffffffff7f0000000000000000000000000000000000000000000000000000000000000000168152f35b5080fd5b503461038e578060031936011261038e576103ab612cd9565b63ffffffff6103b8612c93565b916103c16133d1565b6103ca816136bc565b5016835260cc602052818320916103f973ffffffffffffffffffffffffffffffffffffffff809316809461435f565b507f0000000000000000000000000000000000000000000000000000000000000000908051926020840186807f095ea7b300000000000000000000000000000000000000000000000000000000938484528860248901527fffffffffffffffffffffffffffffffffffffffffffffffffffffffffffffffff60448901526044885261048388612e25565b86169287519082855af190610496614ca8565b826104f3575b50816104e8575b50156104ad578580f35b6104df946104da92519160208301526024820152856044820152604481526104d481612e25565b8261490c565b61490c565b38808080808580f35b90503b1515386104a3565b8051919250811591821561050b575b5050903861049c565b61051e925060208091830101910161483a565b3880610502565b8391503461038e578260031936011261038e57803573ffffffffffffffffffffffffffffffffffffffff91828216928383036106c657610563612c93565b61056b6133d1565b1690855180947fdd62ed3e000000000000000000000000000000000000000000000000000000008252308383015283602483015281604460209788935afa9081156106bc57869161068b575b5061062357507f095ea7b3000000000000000000000000000000000000000000000000000000006106209495519384015260248301527fffffffffffffffffffffffffffffffffffffffffffffffffffffffffffffffff6044830152604482526104da82612e25565b80f35b6084908487519162461bcd60e51b8352820152603660248201527f5361666545524332303a20617070726f76652066726f6d206e6f6e2d7a65726f60448201527f20746f206e6f6e2d7a65726f20616c6c6f77616e6365000000000000000000006064820152fd5b90508481813d83116106b5575b6106a28183612e79565b810103126106b15751876105b7565b8580fd5b503d610698565b87513d88823e3d90fd5b8480fd5b90503461077d57602060031936011261077d576106e5612c70565b916106ee6133d1565b73ffffffffffffffffffffffffffffffffffffffff831615610714578361062084613b5a565b906020608492519162461bcd60e51b8352820152602660248201527f4f776e61626c653a206e6577206f776e657220697320746865207a65726f206160448201527f64647265737300000000000000000000000000000000000000000000000000006064820152fd5b8280fd5b50503461038e57602060031936011261038e576108556020926107a2612cd9565b9063ffffffff8216815260ca8552838120549061082860768651936107c685612e41565b83855287519485917e010000000000000000000000000000000000000000000000000000000000008b84015285602284015260428301523360601b6062830152610818815180928c8686019101612bdf565b8101036056810185520183612e79565b73ffffffffffffffffffffffffffffffffffffffff606554169285519161084e83612e41565b82526140ab565b9051908152f35b9050602060031936011261077d577f5d8bc849764969eb1bcc6d0a2f55999d0167c1ccec240a4f39cf664ca9c4148e916108e49135906108be8230337f0000000000000000000000000000000000000000000000000000000000000000614cd8565b6101336108cc838254612fc5565b90555133815260208101919091529081906040820190565b0390a180f35b50503461038e578160031936011261038e5760209073ffffffffffffffffffffffffffffffffffffffff7fe797cab0ddd50f45c2a522220a721ebb6d0f53785d8595512b6122e7164a201f54169051908152f35b83346109685760206003193601126109685761062061095b612cd9565b6109636133d1565b613bc7565b80fd5b612f36565b90503461077d578160031936011261077d5767ffffffffffffffff9080358281116106c6576109a29036908301612d82565b602494919493602435908111610a80576109bf9036908501612d82565b9190926109ca6133d1565b828203610a3e5750865b8181106109df578780f35b610a076109f56109f083858b613150565b61318f565b610a00838688613150565b3590613fc0565b60018101809111156109d45785886011877f4e487b7100000000000000000000000000000000000000000000000000000000835252fd5b5162461bcd60e51b8152602081860152600760248201527f216c656e677468000000000000000000000000000000000000000000000000006044820152606490fd5b8680fd5b9190503461077d57602060031936011261077d5773ffffffffffffffffffffffffffffffffffffffff610ab5612c70565b610abd6133d1565b1691308314610b3d57507fbf9a9534339a9d6b81696e05dcfb614b7dc518a31d48be3cfb757988381fb323916020917f721d42344eebce0a76684e8fddd9c81a84afda39f3019e5a078a53853f098d11827fffffffffffffffffffffffff000000000000000000000000000000000000000082541617905551908152a180f35b6020606492519162461bcd60e51b8352820152601c60248201527f46656520726563697069656e742063616e6e6f742062652073656c66000000006044820152fd5b50503461038e578160031936011261038e5760209073ffffffffffffffffffffffffffffffffffffffff606654169051908152f35b50503461038e578060031936011261038e5780602092610bd2612c70565b610bda612c93565b73ffffffffffffffffffffffffffffffffffffffff918216835260d0865283832091168252845220549051908152f35b50503461038e57602060031936011261038e57602090610855610c2b612c70565b73ffffffffffffffffffffffffffffffffffffffff1660005260cf60205260406000205490565b50503461038e578160031936011261038e576020905173ffffffffffffffffffffffffffffffffffffffff7f0000000000000000000000000000000000000000000000000000000000000000168152f35b50503461038e57602060031936011261038e576108558160209373ffffffffffffffffffffffffffffffffffffffff610cda612c70565b16815260cf8552205461321b565b828434610968578060031936011261096857815191829160cd5480855260208095019460cd83527f83978b4c69c48dd978ab43fe30f077615294f938fb7f936d9eb340e51ea7db2e92905b828210610d5957610d558686610d4b828b0383612e79565b5191829182612cec565b0390f35b835487529586019560019384019390910190610d33565b612d3e565b808434610dab576020600319360112610dab5763ffffffff610d95612cd9565b610d9d6133d1565b16825260cb60205281205580f35b50fd5b90503461077d57606060031936011261077d57610dc9612c70565b90610dd2612c93565b610dda612cb6565b90855460ff8160081c161593848095611112575b80156110fb575b1561109257506020610f3a9392828660017fffffffffffffffffffffffffffffffffffffffffffffffffffffffffffffff007fc47cbcc588c67679e52261c45cc315e56562f8d0ccaba16facb9093ff94987999616178b55611064575b50610e7560ff8a5460081c16610e6781613fe3565b610e7081613fe3565b613fe3565b610e7e33613b5a565b863b15801590611046575b610e9290612f54565b610e9a6133d1565b73ffffffffffffffffffffffffffffffffffffffff80809816917f4eab7b127c764308788622363ad3e9532de3dfba7845bd4f84c125a22544255a847fffffffffffffffffffffffff000000000000000000000000000000000000000094808660655416176065558c51908152a1803b1580159061103c575b610f1c90612f54565b610f246133d1565b16809160665416176066558751908152a1613b5a565b835491610f7d60ff8460081c1691610f5183613fe3565b7f00000000000000000000000000000000000000000000000000000000000000001691610e7081613fe3565b610f8681614d3d565b901561103357905b610101917fffffffffffffffffffffff00000000000000000000000000000000000000000074ff000000000000000000000000000000000000000084549260a01b16911617179055610fde578280f35b7f7f26b83ff96e1f2b6a682f133852f6798a09c465da95921460cefb3847402498917fffffffffffffffffffffffffffffffffffffffffffffffffffffffffffff00ff6020921684555160018152a138808280f35b50601290610f8e565b5080821615610f13565b5073ffffffffffffffffffffffffffffffffffffffff871615610e89565b7fffffffffffffffffffffffffffffffffffffffffffffffffffffffffffff00001661010117895538610e52565b608490602088519162461bcd60e51b8352820152602e60248201527f496e697469616c697a61626c653a20636f6e747261637420697320616c72656160448201527f647920696e697469616c697a65640000000000000000000000000000000000006064820152fd5b50303b158015610df55750600160ff831614610df5565b50600160ff831610610dee565b90508234610968575061113136612ef4565b9261115d8473ffffffffffffffffffffffffffffffffffffffff1660005260cf60205260406000205490565b831161118457508161117e916111756020969461321b565b94859133613dfe565b51908152f35b606490602086519162461bcd60e51b8352820152601d60248201527f455243343632363a2072656465656d206d6f7265207468616e206d61780000006044820152fd5b50503461038e57600319360112610968576106206111e3612cd9565b6111eb6133d1565b60243590613fc0565b90508234610968575061120636612ef4565b9261123d6112388594939473ffffffffffffffffffffffffffffffffffffffff1660005260cf60205260406000205490565b61321b565b821161125e5750602093918161125561117e93613383565b94859233613dfe565b606490602086519162461bcd60e51b8352820152601f60248201527f455243343632363a207769746864726177206d6f7265207468616e206d6178006044820152fd5b8284346109685760206003193601126109685750610855602092356131f1565b83346109685760208060031936011261038e57823567ffffffffffffffff9384821161138557366023830112156113855781810135948511611385576024916024810190602436918860061b0101116106c65761131c6133d1565b845b868110611329578580f35b61134e61133a6109f0838a866131e1565b86611346848b876131e1565b01359061381f565b600181018091111561131e5783866011857f4e487b7100000000000000000000000000000000000000000000000000000000835252fd5b8380fd5b50503461038e578060031936011261038e576020906113b36113a9612c70565b60243590336134f9565b5160018152f35b905082346109685782600319360112610968576113d5612c70565b91836024359233815260d060205281812073ffffffffffffffffffffffffffffffffffffffff8616825260205220549082821061141c576020856113b38585038733613242565b608490602086519162461bcd60e51b8352820152602560248201527f45524332303a2064656372656173656420616c6c6f77616e63652062656c6f7760448201527f207a65726f0000000000000000000000000000000000000000000000000000006064820152fd5b50503461038e578160031936011261038e57602090517f00000000000000000000000000000000000000000000000000000000000000008152f35b50503461038e578160031936011261038e576020905173ffffffffffffffffffffffffffffffffffffffff7f0000000000000000000000000000000000000000000000000000000000000000168152f35b8284346109685780600319360112610968578151918160d3549260018460011c9160018616958615611657575b602096878510811461162b578899509688969785829a5291826000146115e657505060011461158a575b505050610d55929161157b910385612e79565b51928284938452830190612c02565b919086935060d383527f915c3eb987b20e1af620c1403197bf687fb7f18513b3a73fde6e78c7072c41a65b8284106115ce575050508201018161157b610d55611568565b8054848a0186015288955087949093019281016115b5565b7fffffffffffffffffffffffffffffffffffffffffffffffffffffffffffffff00168782015293151560051b8601909301935084925061157b9150610d559050611568565b60248360228c7f4e487b7100000000000000000000000000000000000000000000000000000000835252fd5b92607f169261153e565b90503461077d578160031936011261077d5760209250359061117e611684612c93565b9261168e816131f1565b809433613a37565b50503461038e578160031936011261038e578051610d55916116b782612dda565b600682527f31312e312e300000000000000000000000000000000000000000000000000000602083015251918291602083526020830190612c02565b50503461038e57602060031936011261038e5760207fd6e2f80c31feccfd7c896d69ad9963871021131ff84f2a9828b40bad60dd8cb49173ffffffffffffffffffffffffffffffffffffffff611747612c70565b61174f6133d1565b16907fe797cab0ddd50f45c2a522220a721ebb6d0f53785d8595512b6122e7164a201f827fffffffffffffffffffffffff000000000000000000000000000000000000000082541617905551908152a180f35b50503461038e578160031936011261038e5760209073ffffffffffffffffffffffffffffffffffffffff603354169051908152f35b50503461038e578160031936011261038e576020905163ffffffff7f0000000000000000000000000000000000000000000000000000000000000000168152f35b828434610968579061182936612db3565b93909192611835613001565b9481519361184285612e25565b60038552602095845b60608110611985575082826118c592611867836118f096614852565b9a6118986118758284614882565b9c73ffffffffffffffffffffffffffffffffffffffff9d8e6065541691856140ab565b8c8951926118a584612dda565b1682528b8201526118b58a6131a0565b526118bf896131a0565b50613c55565b9050877f00000000000000000000000000000000000000000000000000000000000000001692612fc5565b8251906118fc82612dda565b8282528682015261190c856131ad565b52611916846131ad565b5081519061192382612dda565b81528285820152611933846131bd565b5261193d836131bd565b5080519380850191818652845180935281818701950193905b8382106119635786860387f35b8451805189168752830151868401529485019493820193600190910190611956565b9684959781955161199581612dda565b898152898382015282828a010152019694939661184b565b83836119b836612db3565b909473ffffffffffffffffffffffffffffffffffffffff807fe797cab0ddd50f45c2a522220a721ebb6d0f53785d8595512b6122e7164a201f5416936119fc613001565b9488611a09868285613c55565b611a138189612fc5565b938a8c7f0000000000000000000000000000000000000000000000000000000000000000928a8c8b86169883611be1575b50505050505084611a589130903390614cd8565b80611bd1575b505015611bbe5750611ab534945b7f0000000000000000000000000000000000000000000000000000000000000000907f000000000000000000000000000000000000000000000000000000000000000090614a12565b93611aff611ac3868b614852565b96885196875260209a8b977fd229aacb94204188fe8042965fa6b269c62dc5818b21238779ab64bdd17efeec8963ffffffff881692a383614882565b93611b458460655416611b11856136bc565b968a51998a98899788967f10b83dc00000000000000000000000000000000000000000000000000000000088528701614054565b03927f0000000000000000000000000000000000000000000000000000000000000000165af1928315611bb3578093611b81575b505051908152f35b909192508382813d8311611bac575b611b9a8183612e79565b81010312610968575051908380611b79565b503d611b90565b8251903d90823e3d90fd5b611bcb611ab59134613143565b94611a6c565b611bda916147b2565b8a80611a5e565b611c0791611bf1919b969b614852565b611bfb8a8d614882565b8d60655416918d6140ab565b93308914611cd9579160209391611c2286611c799795612fc5565b9a5b51958694859384937f095ea7b300000000000000000000000000000000000000000000000000000000855284016020909392919373ffffffffffffffffffffffffffffffffffffffff60408201951681520152565b0391895af18015611ccf57918691611a5893611ca0575b8f8f9294508e93508c8c91611a44565b611cc19060203d602011611cc8575b611cb98183612e79565b81019061483a565b508f611c90565b503d611caf565b8c513d8f823e3d90fd5b9891602093918593611cf1611c7997308d3390614cd8565b611c24565b50503461038e578160031936011261038e5760209073ffffffffffffffffffffffffffffffffffffffff606554169051908152f35b50503461038e57602060031936011261038e578060209263ffffffff611d4f612cd9565b16815260cb845220549051908152f35b50503461038e57602060031936011261038e578060209263ffffffff611d83612cd9565b16815260ca845220549051908152f35b833461096857602060031936011261096857813567ffffffffffffffff811161038e57611dc39036908401612d82565b611dce9391936133d1565b825b818110611ddb578380f35b611dec6109636109f0838589613150565b6001810180911115611dd0576024846011857f4e487b7100000000000000000000000000000000000000000000000000000000835252fd5b8334610968578060031936011261096857611e3d6133d1565b8073ffffffffffffffffffffffffffffffffffffffff6033547fffffffffffffffffffffffff00000000000000000000000000000000000000008116603355167f8be0079c531659141344cd1fd0a4f28419497f9722a3daafe3b4186f6b6457e08280a380f35b90503461077d578160031936011261077d5760209250359061117e611ec7612c93565b611ed0846133aa565b93849133613a37565b8284606060031936011261096857611eef612cd9565b9260243591611efc612cb6565b33825260209260ce8452858320541561227b5763ffffffff87169687845260cc855286842093611f5473ffffffffffffffffffffffffffffffffffffffff809516809660019160005201602052604060002054151590565b156122395788815260cb865287812054801561222a575b8851987f8bd90b82000000000000000000000000000000000000000000000000000000008a52828a80611fb98c86898b850160409194939263ffffffff606083019616825260208201520152565b03818a5afa998a1561222057839a6121fc575b5099899a7f000000000000000000000000000000000000000000000000000000000000000099878b1698859b8d87905b51811015612048578e8c8c61201184846131cd565b51511614612024575b506001018e611ffc565b819e8e61203660019461203f946131cd565b51015190612fc5565b9d90508e61201a565b508d9b989a5082908d9a989a8281116121dd575b5050508598865b8c518110156120a5578c8961207883836131cd565b5151161561208a575b50600101612063565b819b8b61203660019461209c946131cd565b9a90508c612081565b5090889392918a8c4782116121765785517f81b4e8b400000000000000000000000000000000000000000000000000000000815263ffffffff90931690830190815260208101899052604081018590529192869284928391829060600103925af1801561216c57612142575b507fb1e1b117ddf429b1b8a359fe0e978f0ae191c0f70e0babfea7acaad1b0ee8a2d9282519586528501523393a380f35b8390813d8311612165575b6121578183612e79565b810103126106b15786612111565b503d61214d565b83513d89823e3d90fd5b6084908787519162461bcd60e51b83528201526024808201527f526562616c616e6365206e61746976652066656520657863656564732062616c60448201527f616e6365000000000000000000000000000000000000000000000000000000006064820152fd5b6121f4926121ea91613143565b9030903390614cd8565b818c8061205c565b612219919a503d8085833e6122118183612e79565b810190613083565b988b611fcc565b81513d85823e3d90fd5b50612234826136bc565b611f6b565b606483878a519162461bcd60e51b8352820152601760248201527f4d43523a204e6f7420616c6c6f776564206272696467650000000000000000006044820152fd5b6064908487519162461bcd60e51b8352820152601460248201527f4d43523a204f6e6c7920526562616c616e6365720000000000000000000000006044820152fd5b50503461038e578160031936011261038e5760209073ffffffffffffffffffffffffffffffffffffffff6122ef613001565b915191168152f35b839150606060031936011261038e5761230e612cd9565b67ffffffffffffffff91604435919060248484116106b157366023850112156106b157838201359485116106b157368186860101116106b15773ffffffffffffffffffffffffffffffffffffffff93847f000000000000000000000000000000000000000000000000000000000000000016330361250f578135612391856136bc565b036124a75785602011610a805781810135958811610a8057604486910135937fba20947a325f450d232530e5f5fce293e7963499d5309a07cee84a269f2f15a6602063ffffffff8b51938885521692a3838511612440578561062086866124397f00000000000000000000000000000000000000000000000000000000000000007f000000000000000000000000000000000000000000000000000000000000000089614a12565b91166147b2565b60849250602087519262461bcd60e51b8452830152808201527f5479706543617374733a2062797465733332546f41646472657373206f76657260448201527f666c6f77000000000000000000000000000000000000000000000000000000006064820152fd5b60848360258460208c519362461bcd60e51b85528401528201527f456e726f6c6c656420726f7574657220646f6573206e6f74206d61746368207360448201527f656e6465720000000000000000000000000000000000000000000000000000006064820152fd5b60848360218460208c519362461bcd60e51b85528401528201527f4d61696c626f78436c69656e743a2073656e646572206e6f74206d61696c626f60448201527f78000000000000000000000000000000000000000000000000000000000000006064820152fd5b50503461038e5760031936011261096857610620612593612cd9565b61259b612c93565b906125a46133d1565b61388c565b612c45565b50503461038e57600319360112610968576106206125ca612cd9565b6125d26133d1565b6024359061381f565b50503461038e578160031936011261038e5760209073ffffffffffffffffffffffffffffffffffffffff7f721d42344eebce0a76684e8fddd9c81a84afda39f3019e5a078a53853f098d1154169051908152f35b50503461038e578160031936011261038e5761264961370d565b815192839260208080860192818752855180945286019401925b82811061267257505050500390f35b835163ffffffff1685528695509381019392810192600101612663565b8334610968576020600319360112610968576126cf73ffffffffffffffffffffffffffffffffffffffff6126c1612c70565b6126c96133d1565b1661443f565b5080f35b50503461038e57602060031936011261038e5760207f4eab7b127c764308788622363ad3e9532de3dfba7845bd4f84c125a22544255a9173ffffffffffffffffffffffffffffffffffffffff612727612c70565b803b15801590612777575b61273b90612f54565b6127436133d1565b1690817fffffffffffffffffffffffff0000000000000000000000000000000000000000606554161760655551908152a180f35b5080821615612732565b50503461038e578060031936011261038e576113b36020926127d66127a4612c70565b9133815260d0865284812073ffffffffffffffffffffffffffffffffffffffff84168252865284602435912054612fc5565b9033613242565b83833461038e578160031936011261038e5760ff6101015460a01c169160ff831161280c576020838351908152f35b806011857f4e487b71000000000000000000000000000000000000000000000000000000006024945252fd5b50503461038e57602060031936011261038e5760209061286463ffffffff61285e612cd9565b1661440f565b915191825250f35b50503461038e578060031936011261038e5763ffffffff61288b612cd9565b6128936133d1565b61289c816136bc565b5016825260cb6020526024359082205580f35b50503461038e57606060031936011261038e576020906113b36128d0612c70565b6128d8612c93565b604435916128e7833383613436565b6134f9565b50503461038e578160031936011261038e57602090517f00000000000000000000000000000000000000000000000000000000000000008152f35b50503461038e57602090602060031936011261077d5763ffffffff61294a612cd9565b16835260cc60205280832092815180936020865492838152019583526020832092905b82821061298557610d558686610d4b828b0383612e79565b83548752958601956001938401939091019061296d565b50503461038e578160031936011261038e5760209060d1549051908152f35b50503461038e57602060031936011261038e5760207fc47cbcc588c67679e52261c45cc315e56562f8d0ccaba16facb9093ff94987999173ffffffffffffffffffffffffffffffffffffffff612a0f612c70565b803b15801590612a5f575b612a2390612f54565b612a2b6133d1565b1690817fffffffffffffffffffffffff0000000000000000000000000000000000000000606654161760665551908152a180f35b5080821615612a1a565b8334610968576020600319360112610968576126cf73ffffffffffffffffffffffffffffffffffffffff612a9b612c70565b612aa36133d1565b16614254565b828434610968576020600319360112610968575061085560209235613383565b50503461038e578060031936011261038e576020906113b3612ae9612c70565b6024359033613242565b8284346109685780600319360112610968578151918160d2549260018460011c9160018616958615612bb8575b602096878510811461162b578899509688969785829a5291826000146115e6575050600114612b5c57505050610d55929161157b910385612e79565b919086935060d283527ff2192e1030363415d7b4fb0406540a0060e8e2fc8982f3f32289379e11fa65465b828410612ba0575050508201018161157b610d55611568565b8054848a018601528895508794909301928101612b87565b92607f1692612b20565b84903461038e578160031936011261038e57602090610133548152f35b60005b838110612bf25750506000910152565b8181015183820152602001612be2565b907fffffffffffffffffffffffffffffffffffffffffffffffffffffffffffffffe0601f602093612c3e81518092818752878088019101612bdf565b0116010190565b34612c6b576020600319360112612c6b576020612c6360043561321b565b604051908152f35b600080fd5b6004359073ffffffffffffffffffffffffffffffffffffffff82168203612c6b57565b6024359073ffffffffffffffffffffffffffffffffffffffff82168203612c6b57565b6044359073ffffffffffffffffffffffffffffffffffffffff82168203612c6b57565b6004359063ffffffff82168203612c6b57565b602090602060408183019282815285518094520193019160005b828110612d14575050505090565b835173ffffffffffffffffffffffffffffffffffffffff1685529381019392810192600101612d06565b34612c6b576020600319360112612c6b57612d57612c70565b5060206040517fffffffffffffffffffffffffffffffffffffffffffffffffffffffffffffffff8152f35b9181601f84011215612c6b5782359167ffffffffffffffff8311612c6b576020808501948460051b010111612c6b57565b6003196060910112612c6b5760043563ffffffff81168103612c6b57906024359060443590565b6040810190811067ffffffffffffffff821117612df657604052565b7f4e487b7100000000000000000000000000000000000000000000000000000000600052604160045260246000fd5b6080810190811067ffffffffffffffff821117612df657604052565b6020810190811067ffffffffffffffff821117612df657604052565b60a0810190811067ffffffffffffffff821117612df657604052565b90601f7fffffffffffffffffffffffffffffffffffffffffffffffffffffffffffffffe0910116810190811067ffffffffffffffff821117612df657604052565b67ffffffffffffffff8111612df657601f017fffffffffffffffffffffffffffffffffffffffffffffffffffffffffffffffe01660200190565b6003196060910112612c6b576004359073ffffffffffffffffffffffffffffffffffffffff906024358281168103612c6b57916044359081168103612c6b5790565b34612c6b576020600319360112612c6b576020612c636004356133aa565b15612f5b57565b608460405162461bcd60e51b815260206004820152602760248201527f4d61696c626f78436c69656e743a20696e76616c696420636f6e74726163742060448201527f73657474696e67000000000000000000000000000000000000000000000000006064820152fd5b91908201809211612fd257565b7f4e487b7100000000000000000000000000000000000000000000000000000000600052601160045260246000fd5b7fe797cab0ddd50f45c2a522220a721ebb6d0f53785d8595512b6122e7164a201f5473ffffffffffffffffffffffffffffffffffffffff90811615613065577f00000000000000000000000000000000000000000000000000000000000000001690565b50600090565b67ffffffffffffffff8111612df65760051b60200190565b906020918281830312612c6b5780519067ffffffffffffffff8211612c6b570181601f82011215612c6b578051926130ba8461306b565b936040936130cb6040519687612e79565b818652828087019260061b85010193818511612c6b578301915b8483106130f55750505050505090565b8583830312612c6b5785519061310a82612dda565b83519073ffffffffffffffffffffffffffffffffffffffff82168203612c6b5782869289945282860151838201528152019201916130e5565b91908203918211612fd257565b91908110156131605760051b0190565b7f4e487b7100000000000000000000000000000000000000000000000000000000600052603260045260246000fd5b3563ffffffff81168103612c6b5790565b8051156131605760200190565b8051600110156131605760400190565b8051600210156131605760600190565b80518210156131605760209160051b010190565b91908110156131605760061b0190565b6101335460018101809111612fd25760d1549060018201809211612fd25761321892614175565b90565b6101335460018101809111612fd25760d1549060018201809211612fd25761321892614a12565b73ffffffffffffffffffffffffffffffffffffffff80911691821561331a57169182156132b05760207f8c5be1e5ebec7d5bd14f71427d1e84f3dd0314c0f7b2291e5b200ac8c7c3b925918360005260d08252604060002085600052825280604060002055604051908152a3565b608460405162461bcd60e51b815260206004820152602260248201527f45524332303a20617070726f766520746f20746865207a65726f20616464726560448201527f73730000000000000000000000000000000000000000000000000000000000006064820152fd5b608460405162461bcd60e51b8152602060048201526024808201527f45524332303a20617070726f76652066726f6d20746865207a65726f2061646460448201527f72657373000000000000000000000000000000000000000000000000000000006064820152fd5b60d15460018101809111612fd257610133549060018201809211612fd25761321892614175565b60d15460018101809111612fd257610133549060018201809211612fd25761321892614a12565b73ffffffffffffffffffffffffffffffffffffffff6033541633036133f257565b606460405162461bcd60e51b815260206004820152602060248201527f4f776e61626c653a2063616c6c6572206973206e6f7420746865206f776e65726044820152fd5b9073ffffffffffffffffffffffffffffffffffffffff80831660005260d06020526040600020908216600052602052604060002054927fffffffffffffffffffffffffffffffffffffffffffffffffffffffffffffffff840361349a575b50505050565b8084106134b5576134ac930391613242565b38808080613494565b606460405162461bcd60e51b815260206004820152601d60248201527f45524332303a20696e73756666696369656e7420616c6c6f77616e63650000006044820152fd5b73ffffffffffffffffffffffffffffffffffffffff80911691821561365257169182156135e857600082815260cf60205260408120549180831061357e57604082827fddf252ad1be2c89b69c2b068fc378daa952ba7f163c4a11628f55a4df523b3ef95876020965260cf8652038282205586815220818154019055604051908152a3565b608460405162461bcd60e51b815260206004820152602660248201527f45524332303a207472616e7366657220616d6f756e742065786365656473206260448201527f616c616e636500000000000000000000000000000000000000000000000000006064820152fd5b608460405162461bcd60e51b815260206004820152602360248201527f45524332303a207472616e7366657220746f20746865207a65726f206164647260448201527f65737300000000000000000000000000000000000000000000000000000000006064820152fd5b608460405162461bcd60e51b815260206004820152602560248201527f45524332303a207472616e736665722066726f6d20746865207a65726f20616460448201527f64726573730000000000000000000000000000000000000000000000000000006064820152fd5b63ffffffff16906136cc8261440f565b90613709576137056136e56136e085614af8565b6143bb565b60405191829162461bcd60e51b8352602060048401526024830190612c02565b0390fd5b9150565b6097549061371a8261306b565b916137286040519384612e79565b8083526137348161306b565b907fffffffffffffffffffffffffffffffffffffffffffffffffffffffffffffffe080920136602086013760005b8181106137cf57505082519061379061377a8361306b565b926137886040519485612e79565b80845261306b565b013660208301378060005b84518110156137c9578063ffffffff6137b6600193886131cd565b51166137c282866131cd565b520161379b565b50925050565b806137db6001926141ce565b90549060031b1c6137ec82886131cd565b5201613762565b156137fb5750565b6137059060405191829162461bcd60e51b8352602060048401526024830190612c02565b7fc3de732a98b24a2b5c6f67e8a7fb057ffc14046b83968a2c73e4148d2fba978b9163ffffffff60409216908160005260986020526138708360002054151561386a6136e085614af8565b906137f3565b8160005260ca60205280836000205582519182526020820152a1565b9063ffffffff918260009116815260cc60209160cc835260409160408220936138cd73ffffffffffffffffffffffffffffffffffffffff8097168096614659565b506138d661370d565b96835b885181101561392757816138ed828b6131cd565b511685528383526139108787872060019160005201602052604060002054151590565b61391c576001016138d9565b505050505050505050565b5050939550509290507f0000000000000000000000000000000000000000000000000000000000000000916040519381850181807f095ea7b300000000000000000000000000000000000000000000000000000000958684528960248a01528160448a01526044895261399989612e25565b87169288519082855af1906139ac614ca8565b82613a04575b50816139f9575b50156139c8575b505050505050565b6139ee956104da936040519384015260248301526044820152604481526104d481612e25565b3880808080806139c0565b90503b1515386139b9565b809192505190848215928315613a1f575b50505090386139b2565b613a2f935082018101910161483a565b388481613a15565b9092613a658330337f0000000000000000000000000000000000000000000000000000000000000000614cd8565b610133613a73848254612fc5565b905573ffffffffffffffffffffffffffffffffffffffff809416938415613b16577fdcbc1c05240f31ff3ad067ef1ee35ce4997762752e3a095284754544f4c709d79282613ac560409460d154612fc5565b60d1558660005260cf602052836000208181540190558660007fddf252ad1be2c89b69c2b068fc378daa952ba7f163c4a11628f55a4df523b3ef60208751858152a3835195865260208601521692a3565b606460405162461bcd60e51b815260206004820152601f60248201527f45524332303a206d696e7420746f20746865207a65726f2061646472657373006044820152fd5b6033549073ffffffffffffffffffffffffffffffffffffffff80911691827fffffffffffffffffffffffff0000000000000000000000000000000000000000821617603355167f8be0079c531659141344cd1fd0a4f28419497f9722a3daafe3b4186f6b6457e0600080a3565b63ffffffff166000818152602060cb60205260409082604081205560cc60205260408320918254908460019360018601915b848110613c32575050505050509080613c309392558181526099602052604081205561386a6136e0613c2a83614592565b92614af8565b565b80613c3e87928961423c565b90549060031b1c8952838352888581205501613bf9565b92919073ffffffffffffffffffffffffffffffffffffffff90817f721d42344eebce0a76684e8fddd9c81a84afda39f3019e5a078a53853f098d115416948515613df5576040517f8bd90b8200000000000000000000000000000000000000000000000000000000815263ffffffff919091166004820152602481019190915260448101929092526000826064818785165afa918215613de957600092613dcc575b5081518015613dc4576001149081613d8b575b5015613d2157613d1b6020916131a0565b51015190565b608460405162461bcd60e51b815260206004820152602960248201527f46756e6769626c65546f6b656e526f757465723a20666565206d757374206d6160448201527f74636820746f6b656e00000000000000000000000000000000000000000000006064820152fd5b809150613d97836131a0565b515116907f0000000000000000000000000000000000000000000000000000000000000000161438613d0a565b505050600090565b613de29192503d806000833e6122118183612e79565b9038613cf7565b6040513d6000823e3d90fd5b50505050600090565b91939073ffffffffffffffffffffffffffffffffffffffff90818616958383861695888703613faf575b5050508515613f45578560005260cf6020526040928360002054818110613edc5790807ffbde797d201c681b91056529119e0b02407c7bb96a4a2c75c01fc9667232c8db959493928960005260cf6020520384600020558060d1540360d1556000887fddf252ad1be2c89b69c2b068fc378daa952ba7f163c4a11628f55a4df523b3ef60208751858152a3610133613ec1888254613143565b9055613ecd87836147b2565b835196875260208701521693a4565b6084855162461bcd60e51b815260206004820152602260248201527f45524332303a206275726e20616d6f756e7420657863656564732062616c616e60448201527f63650000000000000000000000000000000000000000000000000000000000006064820152fd5b608460405162461bcd60e51b815260206004820152602160248201527f45524332303a206275726e2066726f6d20746865207a65726f2061646472657360448201527f73000000000000000000000000000000000000000000000000000000000000006064820152fd5b613fb892613436565b388381613e28565b9063ffffffff613fe092169081600052609960205260406000205561430d565b50565b15613fea57565b608460405162461bcd60e51b815260206004820152602b60248201527f496e697469616c697a61626c653a20636f6e7472616374206973206e6f74206960448201527f6e697469616c697a696e670000000000000000000000000000000000000000006064820152fd5b9361409660809473ffffffffffffffffffffffffffffffffffffffff9463ffffffff6140a4959a999a168852602088015260a0604088015260a0870190612c02565b908582036060870152612c02565b9416910152565b6020929391936140ba826136bc565b9261410e73ffffffffffffffffffffffffffffffffffffffff938493604051988997889687967f81d2ea95000000000000000000000000000000000000000000000000000000008852169360048701614054565b03917f0000000000000000000000000000000000000000000000000000000000000000165afa908115613de957600091614146575090565b90506020813d60201161416d575b8161416160209383612e79565b81010312612c6b575190565b3d9150614154565b9190614182828285614a12565b92821561419f57096141915790565b60018101809111612fd25790565b7f4e487b7100000000000000000000000000000000000000000000000000000000600052601260045260246000fd5b6097548110156131605760976000527f354a83ed9988f79f6038d4c7a7dadbad8af32f4ad6df893e0e5807a1b1944ff90190600090565b60cd548110156131605760cd6000527f83978b4c69c48dd978ab43fe30f077615294f938fb7f936d9eb340e51ea7db2e0190600090565b80548210156131605760005260206000200190600090565b600081815260ce60205260408120546143085760cd54680100000000000000008110156142db5790826142c76142928460016040960160cd55614205565b81939154907fffffffffffffffffffffffffffffffffffffffffffffffffffffffffffffffff9060031b92831b921b19161790565b905560cd5492815260ce6020522055600190565b6024827f4e487b710000000000000000000000000000000000000000000000000000000081526041600452fd5b905090565b60008181526098602052604081205461430857609754680100000000000000008110156142db57908261434b614292846001604096016097556141ce565b905560975492815260986020522055600190565b60008281526001820160205260409020546143b45780549068010000000000000000821015612df6578261439d61429284600180960185558461423c565b905580549260005201602052604060002055600190565b5050600090565b90613c30603f60405180947f4e6f20726f7574657220656e726f6c6c656420666f7220646f6d61696e3a200060208301526143ff8151809260208686019101612bdf565b810103601f810185520183612e79565b6000526099602052604060002054801560001461443a57506098602052604060002054151590600090565b600191565b600081815260ce6020526040812054909190801561458d577fffffffffffffffffffffffffffffffffffffffffffffffffffffffffffffffff908181018181116145605760cd5490838201918211614533578082036144ff575b50505060cd5480156144d2578101906144b182614205565b909182549160031b1b1916905560cd55815260ce6020526040812055600190565b6024847f4e487b710000000000000000000000000000000000000000000000000000000081526031600452fd5b61451d61450e61429293614205565b90549060031b1c928392614205565b9055845260ce6020526040842055388080614499565b6024867f4e487b710000000000000000000000000000000000000000000000000000000081526011600452fd5b6024857f4e487b710000000000000000000000000000000000000000000000000000000081526011600452fd5b505090565b600081815260986020526040812054909190801561458d577fffffffffffffffffffffffffffffffffffffffffffffffffffffffffffffffff90818101818111614560576097549083820191821161453357808203614625575b50505060975480156144d257810190614604826141ce565b909182549160031b1b19169055609755815260986020526040812055600190565b614643614634614292936141ce565b90549060031b1c9283926141ce565b90558452609860205260408420553880806145ec565b906001820190600092818452826020526040842054908115156000146147ab577fffffffffffffffffffffffffffffffffffffffffffffffffffffffffffffffff9182810181811161477e578254908482019182116147515780820361471c575b505050805480156146ef578201916146d2838361423c565b909182549160031b1b191690555582526020526040812055600190565b6024867f4e487b710000000000000000000000000000000000000000000000000000000081526031600452fd5b61473c61472c614292938661423c565b90549060031b1c9283928661423c565b905586528460205260408620553880806146ba565b6024887f4e487b710000000000000000000000000000000000000000000000000000000081526011600452fd5b6024877f4e487b710000000000000000000000000000000000000000000000000000000081526011600452fd5b5050505090565b6040517fa9059cbb00000000000000000000000000000000000000000000000000000000602082015273ffffffffffffffffffffffffffffffffffffffff919091166024820152604480820192909252908152613c3090614814606482612e79565b7f000000000000000000000000000000000000000000000000000000000000000061490c565b90816020910312612c6b57518015158103612c6b5790565b906040519160208301526040820152604081526060810181811067ffffffffffffffff821117612df65760405290565b63ffffffff1660005260ca6020527fffffffffffffffffffffffffffffffffffffffff00000000000000000000000060406000205491604051927e0100000000000000000000000000000000000000000000000000000000000060208501526000602285015260428401523360601b606284015260601b166076820152606a815261321881612e5d565b6040516149779173ffffffffffffffffffffffffffffffffffffffff1661493282612dda565b6000806020958685527f5361666545524332303a206c6f772d6c6576656c2063616c6c206661696c656487860152868151910182855af1614971614ca8565b91614ddf565b8051908282159283156149fa575b505050156149905750565b6084906040519062461bcd60e51b82526004820152602a60248201527f5361666545524332303a204552433230206f7065726174696f6e20646964206e60448201527f6f742073756363656564000000000000000000000000000000000000000000006064820152fd5b614a0a935082018101910161483a565b388281614985565b917fffffffffffffffffffffffffffffffffffffffffffffffffffffffffffffffff8284099282810292838086109503948086039514614aea5784831115614aa6578291096001821901821680920460028082600302188083028203028083028203028083028203028083028203028083028203028092029003029360018380600003040190848311900302920304170290565b606460405162461bcd60e51b815260206004820152601560248201527f4d6174683a206d756c446976206f766572666c6f7700000000000000000000006044820152fd5b50508092501561419f570490565b806000917a184f03e93ff9f4daa797ed6e38ed64bf6a1f01000000000000000080821015614c9a575b506d04ee2d6d415b85acef810000000080831015614c8b575b50662386f26fc1000080831015614c7c575b506305f5e10080831015614c6d575b5061271080831015614c5e575b506064821015614c4e575b600a80921015614c44575b60019081602160018601957fffffffffffffffffffffffffffffffffffffffffffffffffffffffffffffffe0614bcc614bb689612eba565b98614bc46040519a8b612e79565b808a52612eba565b01366020890137860101905b614be3575050505090565b7fffffffffffffffffffffffffffffffffffffffffffffffffffffffffffffffff849101917f30313233343536373839616263646566000000000000000000000000000000008282061a835304918215614c3f57919082614bd8565b6147ab565b9160010191614b7e565b9190606460029104910191614b73565b60049193920491019138614b68565b60089193920491019138614b5b565b60109193920491019138614b4c565b60209193920491019138614b3a565b604093508104915038614b21565b3d15614cd3573d90614cb982612eba565b91614cc76040519384612e79565b82523d6000602084013e565b606090565b9092613c3093604051937f23b872dd00000000000000000000000000000000000000000000000000000000602086015273ffffffffffffffffffffffffffffffffffffffff80921660248601521660448401526064830152606482526104da82612e5d565b9073ffffffffffffffffffffffffffffffffffffffff60405160208101937f313ce56700000000000000000000000000000000000000000000000000000000855260048252614d8b82612dda565b600094859384935192165afa614d9f614ca8565b9080614dd3575b614db0575b508190565b60208180518101031261077d576020015160ff8111614dab576001925060ff1690565b50602081511015614da6565b91929015614e405750815115614df3575090565b3b15614dfc5790565b606460405162461bcd60e51b815260206004820152601d60248201527f416464726573733a2063616c6c20746f206e6f6e2d636f6e74726163740000006044820152fd5b8251909150156137fb5750805190602001fdfea2646970667358221220fff7c6ea8a7092050b25017d99af2003242bc5debebef21a98b3e9edb881af6664736f6c63430008160033",
  "linkReferences": {},
  "deployedLinkReferences": {},
  "immutableReferences": {
    "18848": [
      {
        "length": 32,
        "start": 3199
      },
      {
        "length": 32,
        "start": 6985
      },
      {
        "length": 32,
        "start": 9056
      },
      {
        "length": 32,
        "start": 16658
      }
    ],
    "18850": [
      {
        "length": 32,
        "start": 6132
      }
    ],
    "20787": [
      {
        "length": 32,
        "start": 874
      },
      {
        "length": 32,
        "start": 1020
      },
      {
        "length": 32,
        "start": 2202
      },
      {
        "length": 32,
        "start": 3923
      },
      {
        "length": 32,
        "start": 5357
      },
      {
        "length": 32,
        "start": 6346
      },
      {
        "length": 32,
        "start": 6680
      },
      {
        "length": 32,
        "start": 8146
      },
      {
        "length": 32,
        "start": 12354
      },
      {
        "length": 32,
        "start": 14642
      },
      {
        "length": 32,
        "start": 14913
      },
      {
        "length": 32,
        "start": 15773
      },
      {
        "length": 32,
        "start": 18454
      }
    ],
    "22134": [
      {
        "length": 32,
        "start": 6800
      },
      {
        "length": 32,
        "start": 9203
      },
      {
        "length": 32,
        "start": 10500
      }
    ],
    "22136": [
      {
        "length": 32,
        "start": 5277
      },
      {
        "length": 32,
        "start": 6766
      },
      {
        "length": 32,
        "start": 9236
      }
    ]
  },
  "inputSourceName": "project/solidity/bridge/OfficialHypERC20Collateral.sol",
  "buildInfoId": "solc-0_8_22-f87b3d7047c75ce4db8bb87da21456f3af8ae79b"
}