{
  "_format": "hh3-artifact-1",
  "contractName": "CommunityPool",
  "sourceName": "solidity/pool/CommunityPool.sol",
  "abi": [
    {
      "inputs": [
        {
          "internalType": "address",
          "name": "bondToken_",
          "type": "address"
        },
        {
          "internalType": "uint32",
          "name": "maxRetrieve_",
          "type": "uint32"
        },
        {
          "internalType": "uint32",
          "name": "maxValidators_",
          "type": "uint32"
        },
        {
          "internalType": "uint256",
          "name": "minStakeAmount_",
          "type": "uint256"
        },
        {
          "internalType": "address",
          "name": "owner_",
          "type": "address"
        }
      ],
      "stateMutability": "nonpayable",
      "type": "constructor"
    },
    {
      "inputs": [],
      "name": "HarvestFailed",
      "type": "error"
    },
    {
      "inputs": [
        {
          "internalType": "uint256",
          "name": "requested",
          "type": "uint256"
        },
        {
          "internalType": "uint256",
          "name": "available",
          "type": "uint256"
        }
      ],
      "name": "InsufficientLiquid",
      "type": "error"
    },
    {
      "inputs": [],
      "name": "InvalidAddress",
      "type": "error"
    },
    {
      "inputs": [],
      "name": "InvalidAmount",
      "type": "error"
    },
    {
      "inputs": [
        {
          "internalType": "int64",
          "name": "completionTime",
          "type": "int64"
        },
        {
          "internalType": "uint64",
          "name": "currentTime",
          "type": "uint64"
        }
      ],
      "name": "InvalidCompletionTime",
      "type": "error"
    },
    {
      "inputs": [],
      "name": "InvalidConfig",
      "type": "error"
    },
    {
      "inputs": [],
      "name": "InvalidRequest",
      "type": "error"
    },
    {
      "inputs": [],
      "name": "InvalidUnits",
      "type": "error"
    },
    {
      "inputs": [
        {
          "internalType": "uint256",
          "name": "reservedAmount",
          "type": "uint256"
        },
        {
          "internalType": "uint256",
          "name": "liquidBalance",
          "type": "uint256"
        }
      ],
      "name": "LiquidReserveInvariantViolation",
      "type": "error"
    },
    {
      "inputs": [],
      "name": "RequestAlreadyClaimed",
      "type": "error"
    },
    {
      "inputs": [
        {
          "internalType": "uint64",
          "name": "maturityTime",
          "type": "uint64"
        },
        {
          "internalType": "uint64",
          "name": "currentTime",
          "type": "uint64"
        }
      ],
      "name": "RequestNotMatured",
      "type": "error"
    },
    {
      "inputs": [
        {
          "internalType": "uint256",
          "name": "rewardReserve",
          "type": "uint256"
        },
        {
          "internalType": "uint256",
          "name": "liquidBalance",
          "type": "uint256"
        }
      ],
      "name": "RewardReserveInvariantViolation",
      "type": "error"
    },
    {
      "inputs": [
        {
          "internalType": "uint256",
          "name": "accountedLiquid",
          "type": "uint256"
        },
        {
          "internalType": "uint256",
          "name": "liquidBalance",
          "type": "uint256"
        }
      ],
      "name": "StakeablePrincipalInvariantViolation",
      "type": "error"
    },
    {
      "inputs": [],
      "name": "TokenTransferFailed",
      "type": "error"
    },
    {
      "inputs": [],
      "name": "TokenTransferFromFailed",
      "type": "error"
    },
    {
      "inputs": [],
      "name": "Unauthorized",
      "type": "error"
    },
    {
      "inputs": [
        {
          "internalType": "uint256",
          "name": "requested",
          "type": "uint256"
        },
        {
          "internalType": "uint256",
          "name": "undelegated",
          "type": "uint256"
        }
      ],
      "name": "UnexpectedUndelegatedAmount",
      "type": "error"
    },
    {
      "inputs": [],
      "name": "ZeroMintedUnits",
      "type": "error"
    },
    {
      "anonymous": false,
      "inputs": [
        {
          "indexed": false,
          "internalType": "uint32",
          "name": "maxRetrieve",
          "type": "uint32"
        },
        {
          "indexed": false,
          "internalType": "uint32",
          "name": "maxValidators",
          "type": "uint32"
        },
        {
          "indexed": false,
          "internalType": "uint256",
          "name": "minStakeAmount",
          "type": "uint256"
        }
      ],
      "name": "ConfigUpdated",
      "type": "event"
    },
    {
      "anonymous": false,
      "inputs": [
        {
          "indexed": true,
          "internalType": "address",
          "name": "user",
          "type": "address"
        },
        {
          "indexed": false,
          "internalType": "uint256",
          "name": "amount",
          "type": "uint256"
        },
        {
          "indexed": false,
          "internalType": "uint256",
          "name": "mintedUnits",
          "type": "uint256"
        },
        {
          "indexed": false,
          "internalType": "uint256",
          "name": "totalUnitsAfter",
          "type": "uint256"
        }
      ],
      "name": "Deposit",
      "type": "event"
    },
    {
      "anonymous": false,
      "inputs": [
        {
          "indexed": false,
          "internalType": "uint256",
          "name": "liquidBefore",
          "type": "uint256"
        },
        {
          "indexed": false,
          "internalType": "uint256",
          "name": "liquidAfter",
          "type": "uint256"
        },
        {
          "indexed": false,
          "internalType": "uint256",
          "name": "harvestedAmount",
          "type": "uint256"
        }
      ],
      "name": "Harvest",
      "type": "event"
    },
    {
      "anonymous": false,
      "inputs": [
        {
          "indexed": true,
          "internalType": "address",
          "name": "previousOwner",
          "type": "address"
        },
        {
          "indexed": true,
          "internalType": "address",
          "name": "newOwner",
          "type": "address"
        }
      ],
      "name": "OwnershipTransferred",
      "type": "event"
    },
    {
      "anonymous": false,
      "inputs": [
        {
          "indexed": false,
          "internalType": "uint256",
          "name": "harvestedAmount",
          "type": "uint256"
        },
        {
          "indexed": false,
          "internalType": "uint256",
          "name": "accRewardPerUnit",
          "type": "uint256"
        },
        {
          "indexed": false,
          "internalType": "uint256",
          "name": "rewardReserve",
          "type": "uint256"
        }
      ],
      "name": "RewardIndexUpdated",
      "type": "event"
    },
    {
      "anonymous": false,
      "inputs": [
        {
          "indexed": true,
          "internalType": "address",
          "name": "user",
          "type": "address"
        },
        {
          "indexed": false,
          "internalType": "uint256",
          "name": "amount",
          "type": "uint256"
        }
      ],
      "name": "RewardsClaimed",
      "type": "event"
    },
    {
      "anonymous": false,
      "inputs": [
        {
          "indexed": false,
          "internalType": "uint256",
          "name": "liquidBefore",
          "type": "uint256"
        },
        {
          "indexed": false,
          "internalType": "uint256",
          "name": "delegatedAmount",
          "type": "uint256"
        },
        {
          "indexed": false,
          "internalType": "uint256",
          "name": "validatorsCount",
          "type": "uint256"
        },
        {
          "indexed": false,
          "internalType": "uint256",
          "name": "totalStakedAfter",
          "type": "uint256"
        }
      ],
      "name": "Stake",
      "type": "event"
    },
    {
      "anonymous": false,
      "inputs": [
        {
          "indexed": false,
          "internalType": "uint256",
          "name": "previousTotalStaked",
          "type": "uint256"
        },
        {
          "indexed": false,
          "internalType": "uint256",
          "name": "newTotalStaked",
          "type": "uint256"
        }
      ],
      "name": "TotalStakedSynced",
      "type": "event"
    },
    {
      "anonymous": false,
      "inputs": [
        {
          "indexed": true,
          "internalType": "address",
          "name": "user",
          "type": "address"
        },
        {
          "indexed": true,
          "internalType": "uint256",
          "name": "requestId",
          "type": "uint256"
        },
        {
          "indexed": false,
          "internalType": "uint256",
          "name": "amountOut",
          "type": "uint256"
        }
      ],
      "name": "WithdrawClaimed",
      "type": "event"
    },
    {
      "anonymous": false,
      "inputs": [
        {
          "indexed": true,
          "internalType": "address",
          "name": "user",
          "type": "address"
        },
        {
          "indexed": true,
          "internalType": "uint256",
          "name": "requestId",
          "type": "uint256"
        },
        {
          "indexed": false,
          "internalType": "uint256",
          "name": "units",
          "type": "uint256"
        },
        {
          "indexed": false,
          "internalType": "uint256",
          "name": "amountOut",
          "type": "uint256"
        },
        {
          "indexed": false,
          "internalType": "uint64",
          "name": "maturityTime",
          "type": "uint64"
        }
      ],
      "name": "WithdrawRequested",
      "type": "event"
    },
    {
      "anonymous": false,
      "inputs": [
        {
          "indexed": true,
          "internalType": "uint256",
          "name": "requestId",
          "type": "uint256"
        },
        {
          "indexed": false,
          "internalType": "uint256",
          "name": "amountOut",
          "type": "uint256"
        },
        {
          "indexed": false,
          "internalType": "uint256",
          "name": "pendingWithdrawReserveAfter",
          "type": "uint256"
        },
        {
          "indexed": false,
          "internalType": "uint256",
          "name": "maturedWithdrawReserveAfter",
          "type": "uint256"
        }
      ],
      "name": "WithdrawReserveMoved",
      "type": "event"
    },
    {
      "inputs": [],
      "name": "PRECISION",
      "outputs": [
        {
          "internalType": "uint256",
          "name": "",
          "type": "uint256"
        }
      ],
      "stateMutability": "view",
      "type": "function"
    },
    {
      "inputs": [],
      "name": "accRewardPerUnit",
      "outputs": [
        {
          "internalType": "uint256",
          "name": "",
          "type": "uint256"
        }
      ],
      "stateMutability": "view",
      "type": "function"
    },
    {
      "inputs": [],
      "name": "bondToken",
      "outputs": [
        {
          "internalType": "contract IERC20",
          "name": "",
          "type": "address"
        }
      ],
      "stateMutability": "view",
      "type": "function"
    },
    {
      "inputs": [],
      "name": "claimRewards",
      "outputs": [
        {
          "internalType": "uint256",
          "name": "claimedAmount",
          "type": "uint256"
        }
      ],
      "stateMutability": "nonpayable",
      "type": "function"
    },
    {
      "inputs": [
        {
          "internalType": "uint256",
          "name": "requestId",
          "type": "uint256"
        }
      ],
      "name": "claimWithdraw",
      "outputs": [
        {
          "internalType": "uint256",
          "name": "amountOut",
          "type": "uint256"
        }
      ],
      "stateMutability": "nonpayable",
      "type": "function"
    },
    {
      "inputs": [
        {
          "internalType": "uint256",
          "name": "amount",
          "type": "uint256"
        }
      ],
      "name": "deposit",
      "outputs": [
        {
          "internalType": "uint256",
          "name": "mintedUnits",
          "type": "uint256"
        }
      ],
      "stateMutability": "nonpayable",
      "type": "function"
    },
    {
      "inputs": [],
      "name": "harvest",
      "outputs": [
        {
          "internalType": "uint256",
          "name": "harvestedAmount",
          "type": "uint256"
        }
      ],
      "stateMutability": "nonpayable",
      "type": "function"
    },
    {
      "inputs": [],
      "name": "liquidBalance",
      "outputs": [
        {
          "internalType": "uint256",
          "name": "",
          "type": "uint256"
        }
      ],
      "stateMutability": "view",
      "type": "function"
    },
    {
      "inputs": [],
      "name": "maturedWithdrawReserve",
      "outputs": [
        {
          "internalType": "uint256",
          "name": "",
          "type": "uint256"
        }
      ],
      "stateMutability": "view",
      "type": "function"
    },
    {
      "inputs": [],
      "name": "maxRetrieve",
      "outputs": [
        {
          "internalType": "uint32",
          "name": "",
          "type": "uint32"
        }
      ],
      "stateMutability": "view",
      "type": "function"
    },
    {
      "inputs": [],
      "name": "maxValidators",
      "outputs": [
        {
          "internalType": "uint32",
          "name": "",
          "type": "uint32"
        }
      ],
      "stateMutability": "view",
      "type": "function"
    },
    {
      "inputs": [],
      "name": "minStakeAmount",
      "outputs": [
        {
          "internalType": "uint256",
          "name": "",
          "type": "uint256"
        }
      ],
      "stateMutability": "view",
      "type": "function"
    },
    {
      "inputs": [],
      "name": "nextWithdrawRequestId",
      "outputs": [
        {
          "internalType": "uint256",
          "name": "",
          "type": "uint256"
        }
      ],
      "stateMutability": "view",
      "type": "function"
    },
    {
      "inputs": [],
      "name": "owner",
      "outputs": [
        {
          "internalType": "address",
          "name": "",
          "type": "address"
        }
      ],
      "stateMutability": "view",
      "type": "function"
    },
    {
      "inputs": [],
      "name": "pendingWithdrawReserve",
      "outputs": [
        {
          "internalType": "uint256",
          "name": "",
          "type": "uint256"
        }
      ],
      "stateMutability": "view",
      "type": "function"
    },
    {
      "inputs": [],
      "name": "pricePerUnit",
      "outputs": [
        {
          "internalType": "uint256",
          "name": "",
          "type": "uint256"
        }
      ],
      "stateMutability": "view",
      "type": "function"
    },
    {
      "inputs": [],
      "name": "principalAssets",
      "outputs": [
        {
          "internalType": "uint256",
          "name": "",
          "type": "uint256"
        }
      ],
      "stateMutability": "view",
      "type": "function"
    },
    {
      "inputs": [],
      "name": "principalLiquid",
      "outputs": [
        {
          "internalType": "uint256",
          "name": "",
          "type": "uint256"
        }
      ],
      "stateMutability": "view",
      "type": "function"
    },
    {
      "inputs": [
        {
          "internalType": "address",
          "name": "",
          "type": "address"
        }
      ],
      "name": "rewardDebt",
      "outputs": [
        {
          "internalType": "uint256",
          "name": "",
          "type": "uint256"
        }
      ],
      "stateMutability": "view",
      "type": "function"
    },
    {
      "inputs": [],
      "name": "rewardReserve",
      "outputs": [
        {
          "internalType": "uint256",
          "name": "",
          "type": "uint256"
        }
      ],
      "stateMutability": "view",
      "type": "function"
    },
    {
      "inputs": [
        {
          "internalType": "uint32",
          "name": "newMaxRetrieve",
          "type": "uint32"
        },
        {
          "internalType": "uint32",
          "name": "newMaxValidators",
          "type": "uint32"
        },
        {
          "internalType": "uint256",
          "name": "newMinStakeAmount",
          "type": "uint256"
        }
      ],
      "name": "setConfig",
      "outputs": [],
      "stateMutability": "nonpayable",
      "type": "function"
    },
    {
      "inputs": [],
      "name": "stake",
      "outputs": [
        {
          "internalType": "uint256",
          "name": "delegatedAmount",
          "type": "uint256"
        }
      ],
      "stateMutability": "nonpayable",
      "type": "function"
    },
    {
      "inputs": [],
      "name": "stakeablePrincipalLedger",
      "outputs": [
        {
          "internalType": "uint256",
          "name": "",
          "type": "uint256"
        }
      ],
      "stateMutability": "view",
      "type": "function"
    },
    {
      "inputs": [
        {
          "internalType": "uint256",
          "name": "newTotalStaked",
          "type": "uint256"
        }
      ],
      "name": "syncTotalStaked",
      "outputs": [],
      "stateMutability": "nonpayable",
      "type": "function"
    },
    {
      "inputs": [],
      "name": "totalStaked",
      "outputs": [
        {
          "internalType": "uint256",
          "name": "",
          "type": "uint256"
        }
      ],
      "stateMutability": "view",
      "type": "function"
    },
    {
      "inputs": [],
      "name": "totalUnits",
      "outputs": [
        {
          "internalType": "uint256",
          "name": "",
          "type": "uint256"
        }
      ],
      "stateMutability": "view",
      "type": "function"
    },
    {
      "inputs": [],
      "name": "totalWithdrawCommitments",
      "outputs": [
        {
          "internalType": "uint256",
          "name": "",
          "type": "uint256"
        }
      ],
      "stateMutability": "view",
      "type": "function"
    },
    {
      "inputs": [
        {
          "internalType": "address",
          "name": "newOwner",
          "type": "address"
        }
      ],
      "name": "transferOwnership",
      "outputs": [],
      "stateMutability": "nonpayable",
      "type": "function"
    },
    {
      "inputs": [
        {
          "internalType": "address",
          "name": "",
          "type": "address"
        }
      ],
      "name": "unitsOf",
      "outputs": [
        {
          "internalType": "uint256",
          "name": "",
          "type": "uint256"
        }
      ],
      "stateMutability": "view",
      "type": "function"
    },
    {
      "inputs": [
        {
          "internalType": "uint256",
          "name": "userUnits",
          "type": "uint256"
        }
      ],
      "name": "withdraw",
      "outputs": [
        {
          "internalType": "uint256",
          "name": "requestId",
          "type": "uint256"
        }
      ],
      "stateMutability": "nonpayable",
      "type": "function"
    },
    {
      "inputs": [
        {
          "internalType": "uint256",
          "name": "",
          "type": "uint256"
        }
      ],
      "name": "withdrawRequests",
      "outputs": [
        {
          "internalType": "address",
          "name": "owner",
          "type": "address"
        },
        {
          "internalType": "uint256",
          "name": "amountOut",
          "type": "uint256"
        },
        {
          "internalType": "uint64",
          "name": "maturityTime",
          "type": "uint64"
        },
        {
          "internalType": "bool",
          "name": "reserveMoved",
          "type": "bool"
        },
        {
          "internalType": "bool",
          "name": "claimed",
          "type": "bool"
        }
      ],
      "stateMutability": "view",
      "type": "function"
    }
  ],
  "bytecode": "0x60a0346200014b57601f6200183838819003918201601f19168301916001600160401b038311848410176200014f5780849260a0946040528339810103126200014b576200004d8162000163565b906200005c6020820162000178565b906200006b6040820162000178565b916200007f60806060840151930162000163565b60016008556001600160a01b039490939085168015801562000140575b6200012e5763ffffffff90818316156200011c5760805267ffffffff000000006009549260201b1692169060018060401b0319161717600955600a551660018060a01b03195f5416175f556040516116ad90816200018b82396080518181816102e1015281816104010152818161066d015281816111a2015261150b0152f35b6040516306b7c75960e31b8152600490fd5b60405163e6c4247b60e01b8152600490fd5b50858516156200009c565b5f80fd5b634e487b7160e01b5f52604160045260245ffd5b51906001600160a01b03821682036200014b57565b519063ffffffff821682036200014b5756fe6080604081815260049182361015610015575f80fd5b5f92833560e01c91826308ac52561461112d575081630eccc708146110f35781630ed61edb146110cf5781631a0a253c146110045781632e1a7d4d14610caf578163372500ab14610c7f5781633a4b66f114610c465781634641257d14610a395781635873eb9b146109ff5781636d86acc4146109e05781636f620185146109c15781637bfe7d57146109a2578163817b1cd2146109835781638ca82108146109645781638da5cb5b1461093c578163992a7dfb146108d1578163a8c7914714610862578163aaf5eb681461083f578163b13acedd14610573578163b6b55f2514610376578163b7ec1a3314610359578163bae8059414610335578163bbe9a07014610310578163c28f4392146102cc578163cab64bcd146102ae578163d5f884a11461028f578163dacd7e0c14610270578163e66825c31461024c578163f18876841461022d578163f2fde38b14610198575063f74bcf2914610177575f80fd5b346101945781600319360112610194576020906005549051908152f35b5080fd5b91905034610229576020366003190112610229576001600160a01b03823581811693908490036102255784549182169283330361021957841561020c5750506001600160a01b031916821783557f8be0079c531659141344cd1fd0a4f28419497f9722a3daafe3b4186f6b6457e08380a380f35b5163e6c4247b60e01b8152fd5b516282b42960e81b8152fd5b8480fd5b8280fd5b505034610194578160031936011261019457602090600a549051908152f35b505034610194578160031936011261019457602090610269611268565b9051908152f35b5050346101945781600319360112610194576020906003549051908152f35b5050346101945781600319360112610194576020906006549051908152f35b90503461022957826003193601126102295760209250549051908152f35b505034610194578160031936011261019457517f00000000000000000000000000000000000000000000000000000000000000006001600160a01b03168152602090f35b50503461019457816003193601126101945760209063ffffffff600954169051908152f35b50503461019457816003193601126101945760209061026960055460025490611216565b505034610194578160031936011261019457602090610269611187565b91905034610229576020928360031936011261057057823561039a600e54156112b4565b6001600e558015610561576103ae33611467565b506103be60055460025490611216565b6001549081158015610559575b1561054157505080935b84156105335783516323b872dd60e01b81523382820152306024820152604481018390528681606481877f00000000000000000000000000000000000000000000000000000000000000006001600160a01b03165af19081156105295784916104fc575b50156104ee575061044c81600554611216565b600555338252600b8552828220610464858254611216565b905561047284600154611216565b600155338252600b8552670de0b6b3a76400006104958484205460035490611237565b04338352600c8652838320556104a96115b5565b600154835191825260208201859052604082015233907f36af321ec8d3c75236829c5317affd40ddb308863a1236d2d277a4025cccee1e90606090a2600e5551908152f35b835163be24f3c560e01b8152fd5b61051c9150873d8911610522575b6105148183611151565b8101906112ed565b5f610439565b503d61050a565b85513d86823e3d90fd5b8351639345f64b60e01b8152fd5b61054e6105539284611237565b61124a565b936103d5565b5080156103cb565b50505163162908e360e11b8152fd5b80fd5b919050346102295760209283600319360112610570578235610597600e54156112b4565b6001600e55808252600d855282822080546001600160a01b039591908616801561082f5733036108215760028101805460ff8160481c166108115767ffffffffffffffff8042169082168082106107f5575050861c60ff1615610742575b805460ff60481b1916600160481b179055600101546007549095908087116107265761062a610622611187565b84549061131a565b80881161070a57508661063c9161131a565b600755845163a9059cbb60e01b815233838201908152602081018890529091889183919082908890829060400103927f0000000000000000000000000000000000000000000000000000000000000000165af19081156105295784916106ed575b50156106df57506106ac6115b5565b82518481527f5b9b0bc34c7f6a61889ce3382d8697cc823f00d6e619362ae6b156bc8ee3ad46863392a3600e5551908152f35b835163022e258160e11b8152fd5b6107049150873d8911610522576105148183611151565b5f61069d565b83604491898951926382b3a56560e01b84528301526024820152fd5b82604491888851926382b3a56560e01b84528301526024820152fd5b6001820180546006548082116107d857600194939261078388937fe303da04bf6b13e3562ddfe787f074bcf5855167c6667376cadc0e0d5706eeee9361131a565b6006556107938154600754611216565b6007558560401b60ff60401b1985541617845554600654906107cd6007548c51938493846040919493926060820195825260208201520152565b0390a29091506105f5565b88516382b3a56560e01b8152808701929092526024820152604490fd5b60449186918a5192633760603560e21b84528301526024820152fd5b86516354e19feb60e01b81528490fd5b5083516282b42960e81b8152fd5b85516341abc80160e01b81528390fd5b50503461019457816003193601126101945760209051670de0b6b3a76400008152f35b905034610229576020366003190112610229578254813591906001600160a01b031633036108c45750907f0e6c1ecf62bc9f6c26287bb6a3404d50dd44446d71506263b3bcf5393cc8f74a91600254908060025582519182526020820152a180f35b82516282b42960e81b8152fd5b905034610229576020366003190112610229578160a09360ff92358152600d602052209181600180861b0384541693600260018201549101549283918151968752602087015267ffffffffffffffff8216818701521c161515606084015260481c1615156080820152f35b505034610194578160031936011261019457905490516001600160a01b039091168152602090f35b5050346101945781600319360112610194576020906008549051908152f35b5050346101945781600319360112610194576020906002549051908152f35b5050346101945781600319360112610194576020906007549051908152f35b5050346101945781600319360112610194576020906005549051908152f35b5050346101945781600319360112610194576020906001549051908152f35b90503461022957602036600319011261022957356001600160a01b038116908190036102295782829160209452600c845220549051908152f35b838334610194578160031936011261019457610a57600e54156112b4565b6001600e55610a64611187565b9163ffffffff60095416825190632efe8a5f60e01b825230868301526024820152602081604481856108015af1908115610c3c578291610c1e575b5015610c0e57610aad611187565b83811115610c0757610abf848261131a565b935b84158015610b08575b5060209550905f8051602061165883398151915291610ae76115b5565b8451908152602081019190915260408101859052606090a1600e5551908152f35b610b13868854611216565b908188556001549081610b86575b505060209650907f4ca31b8f435df10a9cb69690e4af29947006cdd5ad35a27a2075cf262c5926915f805160206116588339815191529392600354610b7c88519283928b846040919493926060820195825260208201520152565b0390a19091610aca565b670de0b6b3a76400009081890291898304141715610bf4576020985091610be9610be17f4ca31b8f435df10a9cb69690e4af29947006cdd5ad35a27a2075cf262c592691935f8051602061165883398151915297969561124a565b600354611216565b600355919293610b21565b634e487b7160e01b865260118952602486fd5b8193610ac1565b8151630d599dd960e11b81528490fd5b610c36915060203d8111610522576105148183611151565b85610a9f565b83513d84823e3d90fd5b50503461019457816003193601126101945790602091610c68600e54156112b4565b6001600e55610c75611327565b91600e5551908152f35b50503461019457816003193601126101945790602091610ca1600e54156112b4565b6001600e55610c7533611467565b919050346102295760209283600319360112610570578235610cd3600e54156112b4565b60019384600e558115610ff657610ce933611467565b50338352600b8652838320548083118015610fed575b610fde57610d1a610d1260025485611237565b87549061124a565b918215610fd0576009548651633991e9e560e11b81523081840190815260208101869052918a1c63ffffffff16604083015260609493909267ffffffffffffffff9290919042841690879086908190830103818c6108005af1948515610fc65789908a96610f6a575b50868103610f4e57508460070b898113801590610f43575b610f2857505086610dab9161131a565b338852600b8b5288882055610dc1868a5461131a565b8955610dcf8460025461131a565b600255610dde84600654611216565b600655338752600b8a52670de0b6b3a7640000610e018989205460035490611237565b04338852600c8b5288882055610e156115b5565b600854985f198a14610f1557808a0160085588519160a083019083821085831117610f0257508a899460027f3310f1d43f4f9df9a267a6a9da8bd7ab75ac0e320a65fc3405d43a0ca97c5ea198958f94958e859d9c9a978152338352868301908982528581850199169a8b8a52600d8d860199828b526080870199838b52835252209260018060a01b0390511660018060a01b031984541617835551908201550193511683549260ff60401b905115158d1b169160ff60481b9051151560481b169269ffffffffffffffffffff19161717179055875194855289850152868401523392a3600e5551908152f35b634e487b7160e01b8a5260419052602489fd5b634e487b7160e01b885260118252602488fd5b8a5163158e5da560e11b815293840152602483015250604490fd5b508185871610610d9b565b83604491888d5192633a54e96d60e21b84528301526024820152fd5b80929394959650888092503d8311610fbf575b610f878183611151565b81010312610fbb57908982610fa38e9796959451978201611309565b500151948560070b8603610fb7575f610d83565b8980fd5b8880fd5b503d610f7d565b8a513d8b823e3d90fd5b855163162908e360e11b8152fd5b508351630e433c2360e31b8152fd5b50855415610cff565b8351630e433c2360e31b8152fd5b9050346102295760603660031901126102295780359163ffffffff80841680940361022557602435908116908181036110cb57855460443594906001600160a01b031633036110be5782156110b057506009805467ffffffffffffffff19168617602092831b67ffffffff0000000016179055600a84905582519485528401528201527f7d10c2f08263d04ad9c37d1a4368c63e1f087bbe9d13c792e72a112cc37aef8f90606090a180f35b83516306b7c75960e31b8152fd5b83516282b42960e81b8152fd5b8580fd5b50503461019457816003193601126101945760209061026960065460075490611216565b90503461022957602036600319011261022957356001600160a01b038116908190036102295782829160209452600b845220549051908152f35b84903461019457816003193601126101945760209063ffffffff600954831c168152f35b90601f8019910116810190811067ffffffffffffffff82111761117357604052565b634e487b7160e01b5f52604160045260245ffd5b6040516370a0823160e01b81523060048201526020816024817f00000000000000000000000000000000000000000000000000000000000000006001600160a01b03165afa90811561120b575f916111dd575090565b906020823d8211611203575b816111f660209383611151565b8101031261057057505190565b3d91506111e9565b6040513d5f823e3d90fd5b9190820180921161122357565b634e487b7160e01b5f52601160045260245ffd5b8181029291811591840414171561122357565b8115611254570490565b634e487b7160e01b5f52601260045260245ffd5b60015480156112a75761128060055460025490611216565b90670de0b6b3a764000091828102928184041490151715611223576112a49161124a565b90565b50670de0b6b3a764000090565b156112bb57565b60405162461bcd60e51b815260206004820152600a6024820152697265656e7472616e637960b01b6044820152606490fd5b90816020910312611305575180151581036113055790565b5f80fd5b519063ffffffff8216820361130557565b9190820391821161122357565b60055490600a548210611462576009546040805162141ed760e41b81523060048201526024810185905263ffffffff60209390931c8316604482015293915f91908186606481866108005af1958615611456578380976113ec575b5050917f4cdda2b0641e11d4d0c953327ff68eb973718a3128f576eb86e3260df1ce45f6939160809382976113b98460055461131a565b6005556113c884600254611216565b93846002556113d56115b5565b8351958652602086015216908301526060820152a1565b91965092508183813d831161144f575b6114068183611151565b81010312610570575091817f4cdda2b0641e11d4d0c953327ff68eb973718a3128f576eb86e3260df1ce45f6936114436020608095519301611309565b96919381939550611382565b503d6113fc565b505051903d90823e3d90fd5b5f9150565b9060018060a01b0391828116905f90828252602091600b8352604091670de0b6b3a764000061149c8484205460035490611237565b04858352600c8552838320908082549255818111156115aa57916114c486926115079461131a565b9889916114d38360045461131a565b60045585875180968195829463a9059cbb60e01b84526004840160209093929193604081019460018060a01b031681520152565b03927f0000000000000000000000000000000000000000000000000000000000000000165af191821561159f5791611582575b501561157257907ffc30cddea38e2bf4d6ea7d3f9ed3b6ad7f176419f4963bd81318067a4aee73fe9161156b6115b5565b51858152a2565b5163022e258160e11b8152600490fd5b6115999150833d8511610522576105148183611151565b5f61153a565b8351903d90823e3d90fd5b509196505050505050565b6115bd611187565b60045481811161163a57600754906115d58282611216565b83811161161c5750906115ed6115f292600554611216565b611216565b908082116115fe575050565b6044925060405191630648624b60e21b835260048301526024820152fd5b604490846040519163c53ef3b160e01b835260048301526024820152fd5b60449160405191637843b5b360e01b835260048301526024820152fdfe4ec2d4038813a7f233af1d6d09519189db3ed5bc5b823bf72f6d3144574721dea2646970667358221220682df586013c5d054b693ac7ca6c6e79dcfb4d82a89610b1d1213d4d9a50700864736f6c63430008140033",
  "linkReferences": {},
  "deployedLinkReferences": {},
  "immutableReferences": {
    "3943": [
      {
        "length": 32,
        "start": 737
      },
      {
        "length": 32,
        "start": 1025
      },
      {
        "length": 32,
        "start": 1645
      },
      {
        "length": 32,
        "start": 4514
      },
      {
        "length": 32,
        "start": 5387
      }
    ]
  },
  "inputSourceName": "project/solidity/pool/CommunityPool.sol",
  "buildInfoId": "solc-0_8_20-976e47a1ebd979fc766a2ad9b546f4ca71dab7dd"
}