{
  "_format": "hh3-artifact-1",
  "contractName": "CommunityPool",
  "sourceName": "solidity/pool/CommunityPool.sol",
  "abi": [
    {
      "inputs": [
        {
          "internalType": "address",
          "name": "bondToken_",
          "type": "address"
        },
        {
          "internalType": "uint32",
          "name": "maxRetrieve_",
          "type": "uint32"
        },
        {
          "internalType": "uint32",
          "name": "maxValidators_",
          "type": "uint32"
        },
        {
          "internalType": "uint256",
          "name": "minStakeAmount_",
          "type": "uint256"
        },
        {
          "internalType": "address",
          "name": "owner_",
          "type": "address"
        }
      ],
      "stateMutability": "nonpayable",
      "type": "constructor"
    },
    {
      "inputs": [],
      "name": "HarvestFailed",
      "type": "error"
    },
    {
      "inputs": [
        {
          "internalType": "uint256",
          "name": "requested",
          "type": "uint256"
        },
        {
          "internalType": "uint256",
          "name": "available",
          "type": "uint256"
        }
      ],
      "name": "InsufficientLiquid",
      "type": "error"
    },
    {
      "inputs": [],
      "name": "InvalidAddress",
      "type": "error"
    },
    {
      "inputs": [],
      "name": "InvalidAmount",
      "type": "error"
    },
    {
      "inputs": [
        {
          "internalType": "int64",
          "name": "completionTime",
          "type": "int64"
        },
        {
          "internalType": "uint64",
          "name": "currentTime",
          "type": "uint64"
        }
      ],
      "name": "InvalidCompletionTime",
      "type": "error"
    },
    {
      "inputs": [],
      "name": "InvalidConfig",
      "type": "error"
    },
    {
      "inputs": [],
      "name": "InvalidRequest",
      "type": "error"
    },
    {
      "inputs": [],
      "name": "InvalidUnits",
      "type": "error"
    },
    {
      "inputs": [
        {
          "internalType": "uint256",
          "name": "reservedAmount",
          "type": "uint256"
        },
        {
          "internalType": "uint256",
          "name": "liquidBalance",
          "type": "uint256"
        }
      ],
      "name": "LiquidReserveInvariantViolation",
      "type": "error"
    },
    {
      "inputs": [],
      "name": "RequestAlreadyClaimed",
      "type": "error"
    },
    {
      "inputs": [
        {
          "internalType": "uint64",
          "name": "maturityTime",
          "type": "uint64"
        },
        {
          "internalType": "uint64",
          "name": "currentTime",
          "type": "uint64"
        }
      ],
      "name": "RequestNotMatured",
      "type": "error"
    },
    {
      "inputs": [
        {
          "internalType": "uint256",
          "name": "rewardReserve",
          "type": "uint256"
        },
        {
          "internalType": "uint256",
          "name": "liquidBalance",
          "type": "uint256"
        }
      ],
      "name": "RewardReserveInvariantViolation",
      "type": "error"
    },
    {
      "inputs": [
        {
          "internalType": "uint256",
          "name": "accountedLiquid",
          "type": "uint256"
        },
        {
          "internalType": "uint256",
          "name": "liquidBalance",
          "type": "uint256"
        }
      ],
      "name": "StakeablePrincipalInvariantViolation",
      "type": "error"
    },
    {
      "inputs": [],
      "name": "TokenTransferFailed",
      "type": "error"
    },
    {
      "inputs": [],
      "name": "TokenTransferFromFailed",
      "type": "error"
    },
    {
      "inputs": [],
      "name": "Unauthorized",
      "type": "error"
    },
    {
      "inputs": [
        {
          "internalType": "uint256",
          "name": "requested",
          "type": "uint256"
        },
        {
          "internalType": "uint256",
          "name": "undelegated",
          "type": "uint256"
        }
      ],
      "name": "UnexpectedUndelegatedAmount",
      "type": "error"
    },
    {
      "inputs": [],
      "name": "ZeroMintedUnits",
      "type": "error"
    },
    {
      "anonymous": false,
      "inputs": [
        {
          "indexed": true,
          "internalType": "address",
          "name": "previousCaller",
          "type": "address"
        },
        {
          "indexed": true,
          "internalType": "address",
          "name": "newCaller",
          "type": "address"
        }
      ],
      "name": "AutomationCallerUpdated",
      "type": "event"
    },
    {
      "anonymous": false,
      "inputs": [
        {
          "indexed": false,
          "internalType": "uint32",
          "name": "maxRetrieve",
          "type": "uint32"
        },
        {
          "indexed": false,
          "internalType": "uint32",
          "name": "maxValidators",
          "type": "uint32"
        },
        {
          "indexed": false,
          "internalType": "uint256",
          "name": "minStakeAmount",
          "type": "uint256"
        }
      ],
      "name": "ConfigUpdated",
      "type": "event"
    },
    {
      "anonymous": false,
      "inputs": [
        {
          "indexed": false,
          "internalType": "uint256",
          "name": "amount",
          "type": "uint256"
        },
        {
          "indexed": false,
          "internalType": "uint256",
          "name": "stakeablePrincipalLedgerAfter",
          "type": "uint256"
        }
      ],
      "name": "CreditStakeableFromRebalance",
      "type": "event"
    },
    {
      "anonymous": false,
      "inputs": [
        {
          "indexed": true,
          "internalType": "address",
          "name": "user",
          "type": "address"
        },
        {
          "indexed": false,
          "internalType": "uint256",
          "name": "amount",
          "type": "uint256"
        },
        {
          "indexed": false,
          "internalType": "uint256",
          "name": "mintedUnits",
          "type": "uint256"
        },
        {
          "indexed": false,
          "internalType": "uint256",
          "name": "totalUnitsAfter",
          "type": "uint256"
        }
      ],
      "name": "Deposit",
      "type": "event"
    },
    {
      "anonymous": false,
      "inputs": [
        {
          "indexed": false,
          "internalType": "uint256",
          "name": "liquidBefore",
          "type": "uint256"
        },
        {
          "indexed": false,
          "internalType": "uint256",
          "name": "liquidAfter",
          "type": "uint256"
        },
        {
          "indexed": false,
          "internalType": "uint256",
          "name": "harvestedAmount",
          "type": "uint256"
        }
      ],
      "name": "Harvest",
      "type": "event"
    },
    {
      "anonymous": false,
      "inputs": [
        {
          "indexed": true,
          "internalType": "address",
          "name": "previousOwner",
          "type": "address"
        },
        {
          "indexed": true,
          "internalType": "address",
          "name": "newOwner",
          "type": "address"
        }
      ],
      "name": "OwnershipTransferred",
      "type": "event"
    },
    {
      "anonymous": false,
      "inputs": [
        {
          "indexed": false,
          "internalType": "uint256",
          "name": "harvestedAmount",
          "type": "uint256"
        },
        {
          "indexed": false,
          "internalType": "uint256",
          "name": "accRewardPerUnit",
          "type": "uint256"
        },
        {
          "indexed": false,
          "internalType": "uint256",
          "name": "rewardReserve",
          "type": "uint256"
        }
      ],
      "name": "RewardIndexUpdated",
      "type": "event"
    },
    {
      "anonymous": false,
      "inputs": [
        {
          "indexed": true,
          "internalType": "address",
          "name": "user",
          "type": "address"
        },
        {
          "indexed": false,
          "internalType": "uint256",
          "name": "amount",
          "type": "uint256"
        }
      ],
      "name": "RewardsClaimed",
      "type": "event"
    },
    {
      "anonymous": false,
      "inputs": [
        {
          "indexed": false,
          "internalType": "uint256",
          "name": "liquidBefore",
          "type": "uint256"
        },
        {
          "indexed": false,
          "internalType": "uint256",
          "name": "delegatedAmount",
          "type": "uint256"
        },
        {
          "indexed": false,
          "internalType": "uint256",
          "name": "validatorsCount",
          "type": "uint256"
        },
        {
          "indexed": false,
          "internalType": "uint256",
          "name": "totalStakedAfter",
          "type": "uint256"
        }
      ],
      "name": "Stake",
      "type": "event"
    },
    {
      "anonymous": false,
      "inputs": [
        {
          "indexed": false,
          "internalType": "uint256",
          "name": "previousTotalStaked",
          "type": "uint256"
        },
        {
          "indexed": false,
          "internalType": "uint256",
          "name": "newTotalStaked",
          "type": "uint256"
        }
      ],
      "name": "TotalStakedSynced",
      "type": "event"
    },
    {
      "anonymous": false,
      "inputs": [
        {
          "indexed": true,
          "internalType": "address",
          "name": "user",
          "type": "address"
        },
        {
          "indexed": true,
          "internalType": "uint256",
          "name": "requestId",
          "type": "uint256"
        },
        {
          "indexed": false,
          "internalType": "uint256",
          "name": "amountOut",
          "type": "uint256"
        }
      ],
      "name": "WithdrawClaimed",
      "type": "event"
    },
    {
      "anonymous": false,
      "inputs": [
        {
          "indexed": true,
          "internalType": "address",
          "name": "user",
          "type": "address"
        },
        {
          "indexed": true,
          "internalType": "uint256",
          "name": "requestId",
          "type": "uint256"
        },
        {
          "indexed": false,
          "internalType": "uint256",
          "name": "units",
          "type": "uint256"
        },
        {
          "indexed": false,
          "internalType": "uint256",
          "name": "amountOut",
          "type": "uint256"
        },
        {
          "indexed": false,
          "internalType": "uint64",
          "name": "maturityTime",
          "type": "uint64"
        }
      ],
      "name": "WithdrawRequested",
      "type": "event"
    },
    {
      "anonymous": false,
      "inputs": [
        {
          "indexed": true,
          "internalType": "uint256",
          "name": "requestId",
          "type": "uint256"
        },
        {
          "indexed": false,
          "internalType": "uint256",
          "name": "amountOut",
          "type": "uint256"
        },
        {
          "indexed": false,
          "internalType": "uint256",
          "name": "pendingWithdrawReserveAfter",
          "type": "uint256"
        },
        {
          "indexed": false,
          "internalType": "uint256",
          "name": "maturedWithdrawReserveAfter",
          "type": "uint256"
        }
      ],
      "name": "WithdrawReserveMoved",
      "type": "event"
    },
    {
      "inputs": [],
      "name": "PRECISION",
      "outputs": [
        {
          "internalType": "uint256",
          "name": "",
          "type": "uint256"
        }
      ],
      "stateMutability": "view",
      "type": "function"
    },
    {
      "inputs": [],
      "name": "accRewardPerUnit",
      "outputs": [
        {
          "internalType": "uint256",
          "name": "",
          "type": "uint256"
        }
      ],
      "stateMutability": "view",
      "type": "function"
    },
    {
      "inputs": [],
      "name": "automationCaller",
      "outputs": [
        {
          "internalType": "address",
          "name": "",
          "type": "address"
        }
      ],
      "stateMutability": "view",
      "type": "function"
    },
    {
      "inputs": [],
      "name": "bondToken",
      "outputs": [
        {
          "internalType": "contract IERC20",
          "name": "",
          "type": "address"
        }
      ],
      "stateMutability": "view",
      "type": "function"
    },
    {
      "inputs": [],
      "name": "claimRewards",
      "outputs": [
        {
          "internalType": "uint256",
          "name": "claimedAmount",
          "type": "uint256"
        }
      ],
      "stateMutability": "nonpayable",
      "type": "function"
    },
    {
      "inputs": [
        {
          "internalType": "uint256",
          "name": "requestId",
          "type": "uint256"
        }
      ],
      "name": "claimWithdraw",
      "outputs": [
        {
          "internalType": "uint256",
          "name": "amountOut",
          "type": "uint256"
        }
      ],
      "stateMutability": "nonpayable",
      "type": "function"
    },
    {
      "inputs": [
        {
          "internalType": "uint256",
          "name": "amount",
          "type": "uint256"
        }
      ],
      "name": "creditStakeableFromRebalance",
      "outputs": [],
      "stateMutability": "nonpayable",
      "type": "function"
    },
    {
      "inputs": [
        {
          "internalType": "uint256",
          "name": "amount",
          "type": "uint256"
        }
      ],
      "name": "deposit",
      "outputs": [
        {
          "internalType": "uint256",
          "name": "mintedUnits",
          "type": "uint256"
        }
      ],
      "stateMutability": "nonpayable",
      "type": "function"
    },
    {
      "inputs": [],
      "name": "harvest",
      "outputs": [
        {
          "internalType": "uint256",
          "name": "harvestedAmount",
          "type": "uint256"
        }
      ],
      "stateMutability": "nonpayable",
      "type": "function"
    },
    {
      "inputs": [],
      "name": "liquidBalance",
      "outputs": [
        {
          "internalType": "uint256",
          "name": "",
          "type": "uint256"
        }
      ],
      "stateMutability": "view",
      "type": "function"
    },
    {
      "inputs": [],
      "name": "maturedWithdrawReserve",
      "outputs": [
        {
          "internalType": "uint256",
          "name": "",
          "type": "uint256"
        }
      ],
      "stateMutability": "view",
      "type": "function"
    },
    {
      "inputs": [],
      "name": "maxRetrieve",
      "outputs": [
        {
          "internalType": "uint32",
          "name": "",
          "type": "uint32"
        }
      ],
      "stateMutability": "view",
      "type": "function"
    },
    {
      "inputs": [],
      "name": "maxValidators",
      "outputs": [
        {
          "internalType": "uint32",
          "name": "",
          "type": "uint32"
        }
      ],
      "stateMutability": "view",
      "type": "function"
    },
    {
      "inputs": [],
      "name": "minStakeAmount",
      "outputs": [
        {
          "internalType": "uint256",
          "name": "",
          "type": "uint256"
        }
      ],
      "stateMutability": "view",
      "type": "function"
    },
    {
      "inputs": [],
      "name": "nextWithdrawRequestId",
      "outputs": [
        {
          "internalType": "uint256",
          "name": "",
          "type": "uint256"
        }
      ],
      "stateMutability": "view",
      "type": "function"
    },
    {
      "inputs": [],
      "name": "owner",
      "outputs": [
        {
          "internalType": "address",
          "name": "",
          "type": "address"
        }
      ],
      "stateMutability": "view",
      "type": "function"
    },
    {
      "inputs": [],
      "name": "pendingWithdrawReserve",
      "outputs": [
        {
          "internalType": "uint256",
          "name": "",
          "type": "uint256"
        }
      ],
      "stateMutability": "view",
      "type": "function"
    },
    {
      "inputs": [],
      "name": "pricePerUnit",
      "outputs": [
        {
          "internalType": "uint256",
          "name": "",
          "type": "uint256"
        }
      ],
      "stateMutability": "view",
      "type": "function"
    },
    {
      "inputs": [],
      "name": "principalAssets",
      "outputs": [
        {
          "internalType": "uint256",
          "name": "",
          "type": "uint256"
        }
      ],
      "stateMutability": "view",
      "type": "function"
    },
    {
      "inputs": [],
      "name": "principalLiquid",
      "outputs": [
        {
          "internalType": "uint256",
          "name": "",
          "type": "uint256"
        }
      ],
      "stateMutability": "view",
      "type": "function"
    },
    {
      "inputs": [
        {
          "internalType": "address",
          "name": "",
          "type": "address"
        }
      ],
      "name": "rewardDebt",
      "outputs": [
        {
          "internalType": "uint256",
          "name": "",
          "type": "uint256"
        }
      ],
      "stateMutability": "view",
      "type": "function"
    },
    {
      "inputs": [],
      "name": "rewardReserve",
      "outputs": [
        {
          "internalType": "uint256",
          "name": "",
          "type": "uint256"
        }
      ],
      "stateMutability": "view",
      "type": "function"
    },
    {
      "inputs": [
        {
          "internalType": "address",
          "name": "newAutomationCaller",
          "type": "address"
        }
      ],
      "name": "setAutomationCaller",
      "outputs": [],
      "stateMutability": "nonpayable",
      "type": "function"
    },
    {
      "inputs": [
        {
          "internalType": "uint32",
          "name": "newMaxRetrieve",
          "type": "uint32"
        },
        {
          "internalType": "uint32",
          "name": "newMaxValidators",
          "type": "uint32"
        },
        {
          "internalType": "uint256",
          "name": "newMinStakeAmount",
          "type": "uint256"
        }
      ],
      "name": "setConfig",
      "outputs": [],
      "stateMutability": "nonpayable",
      "type": "function"
    },
    {
      "inputs": [],
      "name": "stake",
      "outputs": [
        {
          "internalType": "uint256",
          "name": "delegatedAmount",
          "type": "uint256"
        }
      ],
      "stateMutability": "nonpayable",
      "type": "function"
    },
    {
      "inputs": [],
      "name": "stakeablePrincipalLedger",
      "outputs": [
        {
          "internalType": "uint256",
          "name": "",
          "type": "uint256"
        }
      ],
      "stateMutability": "view",
      "type": "function"
    },
    {
      "inputs": [
        {
          "internalType": "uint256",
          "name": "newTotalStaked",
          "type": "uint256"
        }
      ],
      "name": "syncTotalStaked",
      "outputs": [],
      "stateMutability": "nonpayable",
      "type": "function"
    },
    {
      "inputs": [],
      "name": "totalStaked",
      "outputs": [
        {
          "internalType": "uint256",
          "name": "",
          "type": "uint256"
        }
      ],
      "stateMutability": "view",
      "type": "function"
    },
    {
      "inputs": [],
      "name": "totalUnits",
      "outputs": [
        {
          "internalType": "uint256",
          "name": "",
          "type": "uint256"
        }
      ],
      "stateMutability": "view",
      "type": "function"
    },
    {
      "inputs": [],
      "name": "totalWithdrawCommitments",
      "outputs": [
        {
          "internalType": "uint256",
          "name": "",
          "type": "uint256"
        }
      ],
      "stateMutability": "view",
      "type": "function"
    },
    {
      "inputs": [
        {
          "internalType": "address",
          "name": "newOwner",
          "type": "address"
        }
      ],
      "name": "transferOwnership",
      "outputs": [],
      "stateMutability": "nonpayable",
      "type": "function"
    },
    {
      "inputs": [
        {
          "internalType": "address",
          "name": "",
          "type": "address"
        }
      ],
      "name": "unitsOf",
      "outputs": [
        {
          "internalType": "uint256",
          "name": "",
          "type": "uint256"
        }
      ],
      "stateMutability": "view",
      "type": "function"
    },
    {
      "inputs": [
        {
          "internalType": "uint256",
          "name": "userUnits",
          "type": "uint256"
        }
      ],
      "name": "withdraw",
      "outputs": [
        {
          "internalType": "uint256",
          "name": "requestId",
          "type": "uint256"
        }
      ],
      "stateMutability": "nonpayable",
      "type": "function"
    },
    {
      "inputs": [
        {
          "internalType": "uint256",
          "name": "",
          "type": "uint256"
        }
      ],
      "name": "withdrawRequests",
      "outputs": [
        {
          "internalType": "address",
          "name": "owner",
          "type": "address"
        },
        {
          "internalType": "uint256",
          "name": "amountOut",
          "type": "uint256"
        },
        {
          "internalType": "uint64",
          "name": "maturityTime",
          "type": "uint64"
        },
        {
          "internalType": "bool",
          "name": "reserveMoved",
          "type": "bool"
        },
        {
          "internalType": "bool",
          "name": "claimed",
          "type": "bool"
        }
      ],
      "stateMutability": "view",
      "type": "function"
    }
  ],
  "bytecode": "0x60a0346200015557601f62001a4538819003918201601f19168301916001600160401b03831184841017620001595780849260a09460405283398101031262000155576200004d816200016d565b906200005c6020820162000182565b906200006b6040820162000182565b916200007f6080606084015193016200016d565b60016009556001600160a01b03949093908516801580156200014a575b620001385763ffffffff9081831615620001265760805267ffffffff00000000600a549260201b1692169060018060401b0319161717600a55600b551660018060a01b031981815f5416175f5560015416176001556040516118b0908162000195823960805181818161038c015281816104ac0152818161071801528181611324015261170e0152f35b6040516306b7c75960e31b8152600490fd5b60405163e6c4247b60e01b8152600490fd5b50858516156200009c565b5f80fd5b634e487b7160e01b5f52604160045260245ffd5b51906001600160a01b03821682036200015557565b519063ffffffff82168203620001555756fe6080604081815260049182361015610015575f80fd5b5f92833560e01c91826308ac5256146112af575081630eccc708146112755781630ed61edb146112515781631a0a253c146111865781632e1a7d4d14610e36578163372500ab14610e065781633a4b66f114610da25781634641257d14610b5e5781635873eb9b14610b245781636d86acc414610b055781636f62018514610ae65781637bfe7d5714610ac7578163817b1cd214610aa857816383810d1d14610a2e5781638ca8210814610a0f5781638da5cb5b146109e7578163992a7dfb1461097c578163a8c791471461090d578163aaf5eb68146108ea578163b13acedd1461061d578163b6b55f2514610421578163b7ec1a3314610404578163bae80594146103e0578163bbe9a070146103bb578163c28f439214610377578163c73d4d4114610315578163cab64bcd146102f6578163d5f884a1146102d7578163dacd7e0c146102b9578163e66825c314610295578163f188768414610276578163f2fde38b146101e157508063f74bcf29146101c35763fa303a5314610198575f80fd5b346101bf57816003193601126101bf5760015490516001600160a01b039091168152602090f35b5080fd5b50346101bf57816003193601126101bf576020906006549051908152f35b91905034610272576020366003190112610272576001600160a01b038235818116939084900361026e578454918216928333036102625784156102555750506001600160a01b031916821783557f8be0079c531659141344cd1fd0a4f28419497f9722a3daafe3b4186f6b6457e08380a380f35b5163e6c4247b60e01b8152fd5b516282b42960e81b8152fd5b8480fd5b8280fd5b5050346101bf57816003193601126101bf57602090600b549051908152f35b5050346101bf57816003193601126101bf576020906102b26113ea565b9051908152f35b90503461027257826003193601126102725760209250549051908152f35b5050346101bf57816003193601126101bf576020906007549051908152f35b5050346101bf57816003193601126101bf576020906005549051908152f35b9190503461027257602036600319011261027257610335600f5415611436565b6001600f558254336001600160a01b0391821614159081610368575b50610262575061036190356115e9565b80600f5580f35b9050600154163314155f610351565b5050346101bf57816003193601126101bf57517f00000000000000000000000000000000000000000000000000000000000000006001600160a01b03168152602090f35b5050346101bf57816003193601126101bf5760209063ffffffff600a54169051908152f35b5050346101bf57816003193601126101bf576020906102b260065460035490611398565b5050346101bf57816003193601126101bf576020906102b2611309565b91905034610272576020928360031936011261061a578235610445600f5415611436565b6001600f55801561060b5761045933611665565b5061046960065460035490611398565b6002549081158015610603575b156105eb57505080935b84156105dd5783516323b872dd60e01b81523382820152306024820152604481018390528681606481877f00000000000000000000000000000000000000000000000000000000000000006001600160a01b03165af19081156105d35784916105a6575b50156105985761053f670de0b6b3a76400009161050384600654611398565b600655338552600c885285852061051b888254611398565b905561052987600254611398565b600255338552600c8852858520549054906113b9565b04338352600d8652838320556105536117b8565b600254835191825260208201859052604082015233907f36af321ec8d3c75236829c5317affd40ddb308863a1236d2d277a4025cccee1e90606090a2600f5551908152f35b835163be24f3c560e01b8152fd5b6105c69150873d89116105cc575b6105be81836112d3565b81019061146f565b5f6104e4565b503d6105b4565b85513d86823e3d90fd5b8351639345f64b60e01b8152fd5b6105f86105fd92846113b9565b6113cc565b93610480565b508015610476565b50505163162908e360e11b8152fd5b80fd5b91905034610272576020928360031936011261061a578235610641600f5415611436565b6001600f55808252600e855282822080546001600160a01b03959190861680156108da5733036108cc5760028101805460ff8160481c166108bc5767ffffffffffffffff8042169082168082106108a0575050861c60ff16156107ed575b805460ff60481b1916600160481b179055600101546008549095908087116107d1576106d56106cc611309565b6005549061149c565b8088116107b55750866106e79161149c565b600855845163a9059cbb60e01b815233838201908152602081018890529091889183919082908890829060400103927f0000000000000000000000000000000000000000000000000000000000000000165af19081156105d3578491610798575b501561078a57506107576117b8565b82518481527f5b9b0bc34c7f6a61889ce3382d8697cc823f00d6e619362ae6b156bc8ee3ad46863392a3600f5551908152f35b835163022e258160e11b8152fd5b6107af9150873d89116105cc576105be81836112d3565b5f610748565b83604491898951926382b3a56560e01b84528301526024820152fd5b82604491888851926382b3a56560e01b84528301526024820152fd5b60018201805460075480821161088357600194939261082e88937fe303da04bf6b13e3562ddfe787f074bcf5855167c6667376cadc0e0d5706eeee9361149c565b60075561083e8154600854611398565b6008558560401b60ff60401b1985541617845554600754906108786008548c51938493846040919493926060820195825260208201520152565b0390a290915061069f565b88516382b3a56560e01b8152808701929092526024820152604490fd5b60449186918a5192633760603560e21b84528301526024820152fd5b86516354e19feb60e01b81528490fd5b5083516282b42960e81b8152fd5b85516341abc80160e01b81528390fd5b5050346101bf57816003193601126101bf5760209051670de0b6b3a76400008152f35b905034610272576020366003190112610272578254813591906001600160a01b0316330361096f5750907f0e6c1ecf62bc9f6c26287bb6a3404d50dd44446d71506263b3bcf5393cc8f74a91600354908060035582519182526020820152a180f35b82516282b42960e81b8152fd5b905034610272576020366003190112610272578160a09360ff92358152600e602052209181600180861b0384541693600260018201549101549283918151968752602087015267ffffffffffffffff8216818701521c161515606084015260481c1615156080820152f35b5050346101bf57816003193601126101bf57905490516001600160a01b039091168152602090f35b5050346101bf57816003193601126101bf576020906009549051908152f35b91905034610272576020366003190112610272576001600160a01b0382358181169391929084900361026e57828554163303610262578315610255575050600180546001600160a01b031981168417909155167f9b6cbce723aab630d07d7af8531985c84625fa96e4c7405835f8d8ca53b5bb498380a380f35b5050346101bf57816003193601126101bf576020906003549051908152f35b5050346101bf57816003193601126101bf576020906008549051908152f35b5050346101bf57816003193601126101bf576020906006549051908152f35b5050346101bf57816003193601126101bf576020906002549051908152f35b90503461027257602036600319011261027257356001600160a01b038116908190036102725782829160209452600d845220549051908152f35b8383346101bf57816003193601126101bf57610b7c600f5415611436565b6001600f558154336001600160a01b0391821614159081610d93575b50610d8557610ba5611309565b9163ffffffff600a5416825190632efe8a5f60e01b825230868301526024820152602081604481856108015af1908115610d7b578291610d5d575b5015610d4d57610bee611309565b83811115610d4657610c00848261149c565b935b84158015610c49575b5060209550905f8051602061185b83398151915291610c286117b8565b8451908152602081019190915260408101859052606090a1600f5551908152f35b610c5586600554611398565b90816005556002549081610cc6575b5050907f4ca31b8f435df10a9cb69690e4af29947006cdd5ad35a27a2075cf262c5926915f8051602061185b833981519152939260209854610cbc88519283928b846040919493926060820195825260208201520152565b0390a19091610c0b565b670de0b6b3a76400009081890291898304141715610d335791602098610d27610d207f4ca31b8f435df10a9cb69690e4af29947006cdd5ad35a27a2075cf262c592691945f8051602061185b8339815191529897966113cc565b8254611398565b81559850919293610c64565b634e487b7160e01b865260118952602486fd5b8193610c02565b8151630d599dd960e11b81528490fd5b610d75915060203d81116105cc576105be81836112d3565b85610be0565b83513d84823e3d90fd5b516282b42960e81b81529050fd5b90506001541633141584610b98565b8383346101bf57816003193601126101bf57610dc0600f5415611436565b6001600f558154336001600160a01b0391821614159081610df7575b50610d855760209250610ded6114a9565b91600f5551908152f35b90506001541633141584610ddc565b5050346101bf57816003193601126101bf5790602091610e28600f5415611436565b6001600f55610ded33611665565b91905034610272576020928360031936011261061a578235610e5a600f5415611436565b6001600f55801561117757610e6e33611665565b50338252600c855282822054808211801561116d575b61115d57610ea0610e97600354846113b9565b600254906113cc565b90811561114d57600a548551633991e9e560e11b8152308189019081526020810185905291891c63ffffffff16604083015260609392909167ffffffffffffffff919042831690869085908190830103818b6108005af193841561114357889089956110f0575b508581036110d457508360070b8881138015906110c9575b6110ad57505085610f2f9161149c565b338752600c8a5287872055610f468560025461149c565b600255610f558360035461149c565b600355610f6483600754611398565b600755338652600c8952670de0b6b3a7640000610f86888820548a54906113b9565b04338752600d8a5287872055610f9a6117b8565b600954975f19891461109a576001890160095587519060a0820190828210848311176110875750928a8a899460027f3310f1d43f4f9df9a267a6a9da8bd7ab75ac0e320a65fc3405d43a0ca97c5ea19895839b9a988e523381528d85820190888252848184019816998a8952600e8c850198828a526080860198838a52835252209160018060a01b0390511660018060a01b03198354161782555160018201550193511683549260ff60401b905115158d1b169160ff60481b9051151560481b169269ffffffffffffffffffff19161717179055875194855289850152868401523392a3600f5551908152f35b634e487b7160e01b895260419052602488fd5b634e487b7160e01b875260119052602486fd5b6044918b918b519263158e5da560e11b84528301526024820152fd5b508184861610610f1f565b8a604491878c5192633a54e96d60e21b84528301526024820152fd5b809550878092503d831161113c575b61110981836112d3565b8101031261113857888451946111208d820161148b565b500151938460070b8503611134575f610f07565b8880fd5b8780fd5b503d6110ff565b89513d8a823e3d90fd5b845163162908e360e11b81528690fd5b50505051630e433c2360e31b8152fd5b5060025415610e84565b505051630e433c2360e31b8152fd5b9050346102725760603660031901126102725780359163ffffffff80841680940361026e576024359081169081810361124d57855460443594906001600160a01b031633036112405782156112325750600a805467ffffffffffffffff19168617602092831b67ffffffff0000000016179055600b84905582519485528401528201527f7d10c2f08263d04ad9c37d1a4368c63e1f087bbe9d13c792e72a112cc37aef8f90606090a180f35b83516306b7c75960e31b8152fd5b83516282b42960e81b8152fd5b8580fd5b5050346101bf57816003193601126101bf576020906102b260075460085490611398565b90503461027257602036600319011261027257356001600160a01b038116908190036102725782829160209452600c845220549051908152f35b8490346101bf57816003193601126101bf5760209063ffffffff600a54831c168152f35b90601f8019910116810190811067ffffffffffffffff8211176112f557604052565b634e487b7160e01b5f52604160045260245ffd5b6040516370a0823160e01b81523060048201526020816024817f00000000000000000000000000000000000000000000000000000000000000006001600160a01b03165afa90811561138d575f9161135f575090565b906020823d8211611385575b81611378602093836112d3565b8101031261061a57505190565b3d915061136b565b6040513d5f823e3d90fd5b919082018092116113a557565b634e487b7160e01b5f52601160045260245ffd5b818102929181159184041417156113a557565b81156113d6570490565b634e487b7160e01b5f52601260045260245ffd5b60025480156114295761140260065460035490611398565b90670de0b6b3a7640000918281029281840414901517156113a557611426916113cc565b90565b50670de0b6b3a764000090565b1561143d57565b60405162461bcd60e51b815260206004820152600a6024820152697265656e7472616e637960b01b6044820152606490fd5b90816020910312611487575180151581036114875790565b5f80fd5b519063ffffffff8216820361148757565b919082039182116113a557565b60065490600b5482106115e457600a546040805162141ed760e41b81523060048201526024810185905263ffffffff60209390931c8316604482015293915f91908186606481866108005af19586156115d85783809761156e575b5050917f4cdda2b0641e11d4d0c953327ff68eb973718a3128f576eb86e3260df1ce45f69391608093829761153b8460065461149c565b60065561154a84600354611398565b93846003556115576117b8565b8351958652602086015216908301526060820152a1565b91965092508183813d83116115d1575b61158881836112d3565b8101031261061a575091817f4cdda2b0641e11d4d0c953327ff68eb973718a3128f576eb86e3260df1ce45f6936115c5602060809551930161148b565b96919381939550611504565b503d61157e565b505051903d90823e3d90fd5b5f9150565b80156116625760035480821161165057816040916116388261162e7f059c0130eec0bf9098b2fa923e100804f27098dd107ac34a8c15fc23c662f74e96600654611398565b928360065561149c565b6003556116436117b8565b82519182526020820152a1565b60405163162908e360e11b8152600490fd5b50565b9060018060a01b0391828116905f90828252602091600c8352604091670de0b6b3a764000061169a84842054600454906113b9565b04858352600d8552838320908082549255818111156117ad57916116c2869261170a9461149c565b9889916116d18360055461149c565b600555865163a9059cbb60e01b81526001600160a01b039091166004820152602481019290925290928391908290869082906044820190565b03927f0000000000000000000000000000000000000000000000000000000000000000165af19182156117a25791611785575b501561177557907ffc30cddea38e2bf4d6ea7d3f9ed3b6ad7f176419f4963bd81318067a4aee73fe9161176e6117b8565b51858152a2565b5163022e258160e11b8152600490fd5b61179c9150833d85116105cc576105be81836112d3565b5f61173d565b8351903d90823e3d90fd5b509196505050505050565b6117c0611309565b60055481811161183d57600854906117d88282611398565b83811161181f5750906117f06117f592600654611398565b611398565b90808211611801575050565b6044925060405191630648624b60e21b835260048301526024820152fd5b604490846040519163c53ef3b160e01b835260048301526024820152fd5b60449160405191637843b5b360e01b835260048301526024820152fdfe4ec2d4038813a7f233af1d6d09519189db3ed5bc5b823bf72f6d3144574721dea264697066735822122054e23a886bd27cecc0b0630910bfbc27326cae87ecae43dcceaca3608ea1dc0064736f6c63430008140033",
  "linkReferences": {},
  "deployedLinkReferences": {},
  "immutableReferences": {
    "10615": [
      {
        "length": 32,
        "start": 908
      },
      {
        "length": 32,
        "start": 1196
      },
      {
        "length": 32,
        "start": 1816
      },
      {
        "length": 32,
        "start": 4900
      },
      {
        "length": 32,
        "start": 5902
      }
    ]
  },
  "inputSourceName": "project/solidity/pool/CommunityPool.sol",
  "buildInfoId": "solc-0_8_20-73ba749b7410351eda1c49f7cccac4bc1253acac"
}