{
  "_format": "hh3-artifact-1",
  "contractName": "CommunityPool",
  "sourceName": "solidity/pool/CommunityPool.sol",
  "abi": [
    {
      "inputs": [
        {
          "internalType": "address",
          "name": "bondToken_",
          "type": "address"
        },
        {
          "internalType": "uint32",
          "name": "maxRetrieve_",
          "type": "uint32"
        },
        {
          "internalType": "uint32",
          "name": "maxValidators_",
          "type": "uint32"
        },
        {
          "internalType": "uint256",
          "name": "minStakeAmount_",
          "type": "uint256"
        },
        {
          "internalType": "address",
          "name": "owner_",
          "type": "address"
        },
        {
          "internalType": "string",
          "name": "validatorPrefix_",
          "type": "string"
        }
      ],
      "stateMutability": "nonpayable",
      "type": "constructor"
    },
    {
      "inputs": [
        {
          "internalType": "string",
          "name": "validator",
          "type": "string"
        },
        {
          "internalType": "uint256",
          "name": "amount",
          "type": "uint256"
        }
      ],
      "name": "DelegateFailed",
      "type": "error"
    },
    {
      "inputs": [],
      "name": "HarvestFailed",
      "type": "error"
    },
    {
      "inputs": [
        {
          "internalType": "uint256",
          "name": "requested",
          "type": "uint256"
        },
        {
          "internalType": "uint256",
          "name": "available",
          "type": "uint256"
        }
      ],
      "name": "InsufficientLiquid",
      "type": "error"
    },
    {
      "inputs": [],
      "name": "InvalidAddress",
      "type": "error"
    },
    {
      "inputs": [],
      "name": "InvalidAmount",
      "type": "error"
    },
    {
      "inputs": [],
      "name": "InvalidConfig",
      "type": "error"
    },
    {
      "inputs": [],
      "name": "InvalidUnits",
      "type": "error"
    },
    {
      "inputs": [],
      "name": "NoValidators",
      "type": "error"
    },
    {
      "inputs": [],
      "name": "TokenTransferFailed",
      "type": "error"
    },
    {
      "inputs": [],
      "name": "TokenTransferFromFailed",
      "type": "error"
    },
    {
      "inputs": [],
      "name": "Unauthorized",
      "type": "error"
    },
    {
      "inputs": [],
      "name": "ZeroMintedUnits",
      "type": "error"
    },
    {
      "anonymous": false,
      "inputs": [
        {
          "indexed": false,
          "internalType": "uint32",
          "name": "maxRetrieve",
          "type": "uint32"
        },
        {
          "indexed": false,
          "internalType": "uint32",
          "name": "maxValidators",
          "type": "uint32"
        },
        {
          "indexed": false,
          "internalType": "uint256",
          "name": "minStakeAmount",
          "type": "uint256"
        }
      ],
      "name": "ConfigUpdated",
      "type": "event"
    },
    {
      "anonymous": false,
      "inputs": [
        {
          "indexed": true,
          "internalType": "address",
          "name": "user",
          "type": "address"
        },
        {
          "indexed": false,
          "internalType": "uint256",
          "name": "amount",
          "type": "uint256"
        },
        {
          "indexed": false,
          "internalType": "uint256",
          "name": "mintedUnits",
          "type": "uint256"
        },
        {
          "indexed": false,
          "internalType": "uint256",
          "name": "totalUnitsAfter",
          "type": "uint256"
        }
      ],
      "name": "Deposit",
      "type": "event"
    },
    {
      "anonymous": false,
      "inputs": [
        {
          "indexed": false,
          "internalType": "uint256",
          "name": "liquidBefore",
          "type": "uint256"
        },
        {
          "indexed": false,
          "internalType": "uint256",
          "name": "liquidAfter",
          "type": "uint256"
        },
        {
          "indexed": false,
          "internalType": "uint256",
          "name": "harvestedAmount",
          "type": "uint256"
        }
      ],
      "name": "Harvest",
      "type": "event"
    },
    {
      "anonymous": false,
      "inputs": [
        {
          "indexed": true,
          "internalType": "address",
          "name": "previousOwner",
          "type": "address"
        },
        {
          "indexed": true,
          "internalType": "address",
          "name": "newOwner",
          "type": "address"
        }
      ],
      "name": "OwnershipTransferred",
      "type": "event"
    },
    {
      "anonymous": false,
      "inputs": [
        {
          "indexed": false,
          "internalType": "uint256",
          "name": "liquidBefore",
          "type": "uint256"
        },
        {
          "indexed": false,
          "internalType": "uint256",
          "name": "delegatedAmount",
          "type": "uint256"
        },
        {
          "indexed": false,
          "internalType": "uint256",
          "name": "validatorsCount",
          "type": "uint256"
        },
        {
          "indexed": false,
          "internalType": "uint256",
          "name": "totalStakedAfter",
          "type": "uint256"
        }
      ],
      "name": "Stake",
      "type": "event"
    },
    {
      "anonymous": false,
      "inputs": [
        {
          "indexed": false,
          "internalType": "string",
          "name": "validator",
          "type": "string"
        },
        {
          "indexed": false,
          "internalType": "uint256",
          "name": "amount",
          "type": "uint256"
        }
      ],
      "name": "StakeDelegated",
      "type": "event"
    },
    {
      "anonymous": false,
      "inputs": [
        {
          "indexed": false,
          "internalType": "uint256",
          "name": "previousTotalStaked",
          "type": "uint256"
        },
        {
          "indexed": false,
          "internalType": "uint256",
          "name": "newTotalStaked",
          "type": "uint256"
        }
      ],
      "name": "TotalStakedSynced",
      "type": "event"
    },
    {
      "anonymous": false,
      "inputs": [
        {
          "indexed": false,
          "internalType": "string",
          "name": "previousPrefix",
          "type": "string"
        },
        {
          "indexed": false,
          "internalType": "string",
          "name": "newPrefix",
          "type": "string"
        }
      ],
      "name": "ValidatorPrefixUpdated",
      "type": "event"
    },
    {
      "anonymous": false,
      "inputs": [
        {
          "indexed": true,
          "internalType": "address",
          "name": "user",
          "type": "address"
        },
        {
          "indexed": false,
          "internalType": "uint256",
          "name": "burnedUnits",
          "type": "uint256"
        },
        {
          "indexed": false,
          "internalType": "uint256",
          "name": "amountOut",
          "type": "uint256"
        },
        {
          "indexed": false,
          "internalType": "uint256",
          "name": "totalUnitsAfter",
          "type": "uint256"
        }
      ],
      "name": "Withdraw",
      "type": "event"
    },
    {
      "inputs": [],
      "name": "bondToken",
      "outputs": [
        {
          "internalType": "contract IERC20",
          "name": "",
          "type": "address"
        }
      ],
      "stateMutability": "view",
      "type": "function"
    },
    {
      "inputs": [
        {
          "internalType": "uint256",
          "name": "amount",
          "type": "uint256"
        }
      ],
      "name": "deposit",
      "outputs": [
        {
          "internalType": "uint256",
          "name": "mintedUnits",
          "type": "uint256"
        }
      ],
      "stateMutability": "nonpayable",
      "type": "function"
    },
    {
      "inputs": [],
      "name": "harvest",
      "outputs": [
        {
          "internalType": "uint256",
          "name": "harvestedAmount",
          "type": "uint256"
        }
      ],
      "stateMutability": "nonpayable",
      "type": "function"
    },
    {
      "inputs": [],
      "name": "liquidBalance",
      "outputs": [
        {
          "internalType": "uint256",
          "name": "",
          "type": "uint256"
        }
      ],
      "stateMutability": "view",
      "type": "function"
    },
    {
      "inputs": [],
      "name": "maxRetrieve",
      "outputs": [
        {
          "internalType": "uint32",
          "name": "",
          "type": "uint32"
        }
      ],
      "stateMutability": "view",
      "type": "function"
    },
    {
      "inputs": [],
      "name": "maxValidators",
      "outputs": [
        {
          "internalType": "uint32",
          "name": "",
          "type": "uint32"
        }
      ],
      "stateMutability": "view",
      "type": "function"
    },
    {
      "inputs": [],
      "name": "minStakeAmount",
      "outputs": [
        {
          "internalType": "uint256",
          "name": "",
          "type": "uint256"
        }
      ],
      "stateMutability": "view",
      "type": "function"
    },
    {
      "inputs": [],
      "name": "owner",
      "outputs": [
        {
          "internalType": "address",
          "name": "",
          "type": "address"
        }
      ],
      "stateMutability": "view",
      "type": "function"
    },
    {
      "inputs": [],
      "name": "poolAssets",
      "outputs": [
        {
          "internalType": "uint256",
          "name": "",
          "type": "uint256"
        }
      ],
      "stateMutability": "view",
      "type": "function"
    },
    {
      "inputs": [],
      "name": "pricePerUnit",
      "outputs": [
        {
          "internalType": "uint256",
          "name": "",
          "type": "uint256"
        }
      ],
      "stateMutability": "view",
      "type": "function"
    },
    {
      "inputs": [
        {
          "internalType": "uint32",
          "name": "newMaxRetrieve",
          "type": "uint32"
        },
        {
          "internalType": "uint32",
          "name": "newMaxValidators",
          "type": "uint32"
        },
        {
          "internalType": "uint256",
          "name": "newMinStakeAmount",
          "type": "uint256"
        }
      ],
      "name": "setConfig",
      "outputs": [],
      "stateMutability": "nonpayable",
      "type": "function"
    },
    {
      "inputs": [
        {
          "internalType": "string",
          "name": "newPrefix",
          "type": "string"
        }
      ],
      "name": "setValidatorPrefix",
      "outputs": [],
      "stateMutability": "nonpayable",
      "type": "function"
    },
    {
      "inputs": [],
      "name": "stake",
      "outputs": [
        {
          "internalType": "uint256",
          "name": "delegatedAmount",
          "type": "uint256"
        }
      ],
      "stateMutability": "nonpayable",
      "type": "function"
    },
    {
      "inputs": [
        {
          "internalType": "uint256",
          "name": "newTotalStaked",
          "type": "uint256"
        }
      ],
      "name": "syncTotalStaked",
      "outputs": [],
      "stateMutability": "nonpayable",
      "type": "function"
    },
    {
      "inputs": [],
      "name": "totalStaked",
      "outputs": [
        {
          "internalType": "uint256",
          "name": "",
          "type": "uint256"
        }
      ],
      "stateMutability": "view",
      "type": "function"
    },
    {
      "inputs": [],
      "name": "totalUnits",
      "outputs": [
        {
          "internalType": "uint256",
          "name": "",
          "type": "uint256"
        }
      ],
      "stateMutability": "view",
      "type": "function"
    },
    {
      "inputs": [
        {
          "internalType": "address",
          "name": "newOwner",
          "type": "address"
        }
      ],
      "name": "transferOwnership",
      "outputs": [],
      "stateMutability": "nonpayable",
      "type": "function"
    },
    {
      "inputs": [
        {
          "internalType": "address",
          "name": "",
          "type": "address"
        }
      ],
      "name": "unitsOf",
      "outputs": [
        {
          "internalType": "uint256",
          "name": "",
          "type": "uint256"
        }
      ],
      "stateMutability": "view",
      "type": "function"
    },
    {
      "inputs": [],
      "name": "validatorPrefix",
      "outputs": [
        {
          "internalType": "string",
          "name": "",
          "type": "string"
        }
      ],
      "stateMutability": "view",
      "type": "function"
    },
    {
      "inputs": [
        {
          "internalType": "uint256",
          "name": "userUnits",
          "type": "uint256"
        }
      ],
      "name": "withdraw",
      "outputs": [
        {
          "internalType": "uint256",
          "name": "amountOut",
          "type": "uint256"
        }
      ],
      "stateMutability": "nonpayable",
      "type": "function"
    }
  ],
  "bytecode": "0x604060a0815234620003015762001d7c803803806200001e8162000305565b92833981019060c08183031262000301576200003a816200032b565b9060206200004a81830162000340565b926200005886840162000340565b9060608401516200006c608086016200032b565b60a08601516001600160401b039691929187821162000301570196601f9489868a01121562000301578851888111620002ab57601f1999620000b48289018c168a0162000305565b9b828d52898383010111620003015788905f5b838110620002ec5750505f918c0101526001600160a01b0394851680158015620002e1575b620002d05763ffffffff9081831615620002bf578b5115620002bf57608052600380546001600160401b031916919093161790871b67ffffffff00000000161790556004555f80546001600160a01b031916929091169190911790558451928311620002ab576005948554926001938481811c91168015620002a0575b828210146200028c5783811162000246575b5080928511600114620001e15750839450908392915f94620001d5575b50501b915f199060031b1c19161790555b51611a29908162000353823960805181818161021f015281816103140152818161095d0152610d360152f35b015192505f8062000198565b929484908116875f52845f20945f905b888383106200022b575050501062000212575b505050811b019055620001a9565b01515f1960f88460031b161c191690555f808062000204565b858701518855909601959485019487935090810190620001f1565b875f52815f20848088018a1c82019284891062000282575b01891c019085905b828110620002765750506200017b565b5f815501859062000266565b925081926200025e565b634e487b7160e01b5f52602260045260245ffd5b90607f169062000169565b634e487b7160e01b5f52604160045260245ffd5b8c516306b7c75960e31b8152600490fd5b8b5163e6c4247b60e01b8152600490fd5b5085851615620000ec565b818101830151818f018401528a9201620000c7565b5f80fd5b6040519190601f01601f191682016001600160401b03811183821017620002ab57604052565b51906001600160a01b03821682036200030157565b519063ffffffff82168203620003015756fe6080604081815260049081361015610015575f80fd5b5f92833560e01c90816308ac525614610b6e575080630eccc70814610b345780631a0a253c14610a6c5780632e1a7d4d146108a35780633a4b66f11461086a5780634641257d14610741578063635bea2a146107215780636d86acc4146107025780637cbba4651461050f578063817b1cd2146104f05780638da5cb5b146104c8578063a8c7914714610459578063b6b55f2514610290578063b7ec1a3314610273578063bbe9a0701461024e578063c28f43921461020a578063cd61546a146101d5578063e66825c3146101ad578063f18876841461018f5763f2fde38b146100fd575f80fd5b3461018b57602036600319011261018b576001600160a01b03823581811693908490036101875784549182169283330361017b57841561016e5750506001600160a01b031916821783557f8be0079c531659141344cd1fd0a4f28419497f9722a3daafe3b4186f6b6457e08380a380f35b5163e6c4247b60e01b8152fd5b516282b42960e81b8152fd5b8480fd5b8280fd5b50903461018b578260031936011261018b5760209250549051908152f35b8382346101d157816003193601126101d1576020906101ca610dfc565b9051908152f35b5080fd5b8382346101d157816003193601126101d157610206906101f3610c1a565b9051918291602083526020830190610cf6565b0390f35b8382346101d157816003193601126101d157517f00000000000000000000000000000000000000000000000000000000000000006001600160a01b03168152602090f35b8382346101d157816003193601126101d15760209063ffffffff600354169051908152f35b8382346101d157816003193601126101d1576020906101ca610d1b565b503461018b57602092836003193601126104565782356102b260075415610e44565b60016007558015610447576102d16102c8610d1b565b60025490610daa565b600154908115801561043f575b1561042757505080935b84156104195783516323b872dd60e01b81523382820152306024820152604481018390528681606481877f00000000000000000000000000000000000000000000000000000000000000006001600160a01b03165af190811561040f5784916103d6575b50156103c8575033825260068552828220610368858254610daa565b90557f36af321ec8d3c75236829c5317affd40ddb308863a1236d2d277a4025cccee1e6103bc61039a86600154610daa565b6001819055855193845260208401879052604084015233929081906060820190565b0390a260075551908152f35b835163be24f3c560e01b8152fd5b90508681813d8311610408575b6103ed8183610bf9565b81010312610404576103fe90610e7d565b5f61034c565b8380fd5b503d6103e3565b85513d86823e3d90fd5b8351639345f64b60e01b8152fd5b6104346104399284610dcb565b610dde565b936102e8565b5080156102de565b50505163162908e360e11b8152fd5b80fd5b50903461018b57602036600319011261018b578254813591906001600160a01b031633036104bb5750907f0e6c1ecf62bc9f6c26287bb6a3404d50dd44446d71506263b3bcf5393cc8f74a91600254908060025582519182526020820152a180f35b82516282b42960e81b8152fd5b8382346101d157816003193601126101d157905490516001600160a01b039091168152602090f35b8382346101d157816003193601126101d1576020906002549051908152f35b508290346101d15760208060031936011261018b576001600160401b039184358381116101875736602382011215610187578086013593841161018757602495368786840101116106fe5785546001600160a01b031633036104bb5784156106f0575061057a610c1a565b9360056105878154610b92565b601f81116106af575b5086601f83116001146106275797829182828a9b7f4e078e5553e283423298b75f183265474fa61da0c06cbd3508a8fbb983db7acd9b9261061a575b50508360011b905f198560031b1c19161790555b6105f38551978689978852870190610cf6565b938585038787015282855201858401378181018401879052601f01601f191601030190a180f35b870101359050828c6105cc565b81885285882090601f198416895b818110610696575091849391847f4e078e5553e283423298b75f183265474fa61da0c06cbd3508a8fbb983db7acd9b9c941061067b575b5050600183811b0190556105e0565b86018301355f19600386901b60f8161c191690558a8061066c565b919288600181928e878b01013581550194019201610635565b818852858820601f8401831c8101918785106106e6575b601f01831c01905b8181106106db5750610590565b8881556001016106ce565b90915081906106c6565b82516306b7c75960e31b8152fd5b8580fd5b8382346101d157816003193601126101d1576020906001549051908152f35b8382346101d157816003193601126101d1576020906101ca6102c8610d1b565b508290346101d157816003193601126101d15761076060075415610e44565b600160075561076d610d1b565b9163ffffffff60035416825190632efe8a5f60e01b825230868301526024820152602081604481856108015af1908115610860578291610827575b501561081757602093507f4ec2d4038813a7f233af1d6d09519189db3ed5bc5b823bf72f6d3144574721de6107db610d1b565b84811115610810576107ed8582610e8e565b945b8451908152602081019190915260408101859052606090a160075551908152f35b82946107ef565b8151630d599dd960e11b81528490fd5b90506020813d8211610858575b8161084160209383610bf9565b810103126101d15761085290610e7d565b856107a8565b3d9150610834565b83513d84823e3d90fd5b8382346101d157816003193601126101d1579060209161088c60075415610e44565b6001600755610899610f2f565b9160075551908152f35b503461018b57602092836003193601126104565782356108c560075415610e44565b6001806007558115610a5c573383526006865283832054948583118015610a53575b610a455761090a6109026108fc6102c8610d1b565b85610dcb565b835490610dde565b95610913610d1b565b808811610a2957508361092591610e8e565b338552600688528585205561093b838354610e8e565b8255845163a9059cbb60e01b81523382820152602481018790528781604481887f00000000000000000000000000000000000000000000000000000000000000006001600160a01b03165af1908115610a1f5785916109ea575b50156109dc575054835191825260208201859052604082015233907f02f25270a4d87bea75db541cdfe559334a275b4a233520ed6c0a2429667cca949080606081016103bc565b845163022e258160e11b8152fd5b90508781813d8311610a18575b610a018183610bf9565b8101031261018757610a1290610e7d565b5f610995565b503d6109f7565b86513d87823e3d90fd5b82604491898951926382b3a56560e01b84528301526024820152fd5b8451630e433c2360e31b8152fd5b508154156108e7565b50505051630e433c2360e31b8152fd5b50903461018b57606036600319011261018b5780359163ffffffff9182841680940361018757602435928316908184036106fe57855460443594906001600160a01b03163303610b26578215610b17576003805467ffffffffffffffff19168717602092831b67ffffffff00000000161790559084905582519485528401528201527f7d10c2f08263d04ad9c37d1a4368c63e1f087bbe9d13c792e72a112cc37aef8f90606090a180f35b5082516306b7c75960e31b8152fd5b5082516282b42960e81b8152fd5b50903461018b57602036600319011261018b57356001600160a01b0381169081900361018b57828291602094526006845220549051908152f35b8490346101d157816003193601126101d15760209063ffffffff600354831c168152f35b90600182811c92168015610bc0575b6020831014610bac57565b634e487b7160e01b5f52602260045260245ffd5b91607f1691610ba1565b60a081019081106001600160401b03821117610be557604052565b634e487b7160e01b5f52604160045260245ffd5b90601f801991011681019081106001600160401b03821117610be557604052565b604051905f8260055491610c2d83610b92565b808352600193808516908115610cb45750600114610c55575b50610c5392500383610bf9565b565b60055f9081527f036b6384b5eca791c62761152d0c79bb0604c104a5fb6f4eb0703f3154bb3db094602093509091905b818310610c9c575050610c5393508201015f610c46565b85548884018501529485019487945091830191610c85565b9050610c5394506020925060ff191682840152151560051b8201015f610c46565b5f5b838110610ce65750505f910152565b8181015183820152602001610cd7565b90602091610d0f81518092818552858086019101610cd5565b601f01601f1916010190565b6040516370a0823160e01b81523060048201526020816024817f00000000000000000000000000000000000000000000000000000000000000006001600160a01b03165afa908115610d9f575f91610d71575090565b906020823d8211610d97575b81610d8a60209383610bf9565b8101031261045657505190565b3d9150610d7d565b6040513d5f823e3d90fd5b91908201809211610db757565b634e487b7160e01b5f52601160045260245ffd5b81810292918115918404141715610db757565b8115610de8570490565b634e487b7160e01b5f52601260045260245ffd5b6001548015610e3757610e106102c8610d1b565b90670de0b6b3a764000091828102928184041490151715610db757610e3491610dde565b90565b50670de0b6b3a764000090565b15610e4b57565b60405162461bcd60e51b815260206004820152600a6024820152697265656e7472616e637960b01b6044820152606490fd5b51908115158203610e8a57565b5f80fd5b91908203918211610db757565b5f198114610db75760010190565b8051821015610ebd5760209160051b010190565b634e487b7160e01b5f52603260045260245ffd5b909291926001600160401b038111610be55760405191610efb601f8301601f191660200184610bf9565b829482845282820111610e8a576020610c53930190610cd5565b9080601f83011215610e8a578151610e3492602001610ed1565b5f90610f39610d1b565b600454811061197f5763ffffffff60035460201c16801561196d57610f5d8161199c565b905f9060605b818310611417575b5050801561140557610f7c8161199c565b915f5b8281106113d657505050805190610f968284610dde565b908215610de8575f5b838110610ff8575050507f4cdda2b0641e11d4d0c953327ff68eb973718a3128f576eb86e3260df1ce45f691608091610fda86600254610daa565b908160025560405192835286602084015260408301526060820152a1565b829684860682106113c3575b87156113b8576110148284610ea9565b5190815191602a9283811490811591611395575b508015611342575b61130f57915f926002915b80831061126657505060408051633e562a6360e21b81526001600160a01b039094166004850152602484015250600580545f9184919061107a82610b92565b918260448501526001811690815f146112465750600114611206575b5050805f920381836104005af1918215610d9f575f926111c3575b506040516353266bbb60e01b815230600482015260606024820152602081806110dd6064820187610cf6565b8d604483015203815f6108005af1908115610d9f575f91611189575b501561115a5761114761115593926111328b7f9a4001bdb3452b060fc06c64fbf07b16cf6e9e5f5d67f9e7507331983d2de21894610daa565b9a604051928392604084526040840190610cf6565b9060208301520390a1610e9b565b610f9f565b60408051639f3289cf60e01b81526004810191909152808a61117f6044830186610cf6565b9060248301520390fd5b90506020813d6020116111bb575b816111a460209383610bf9565b81010312610e8a576111b590610e7d565b5f6110f9565b3d9150611197565b9091503d90815f823e6111d68282610bf9565b6020818381010312610e8a5780516001600160401b038111610e8a576111ff9282019101610f15565b905f6110b1565b915091505f528260205f20915f925b81841061122c5750508060645f9382010192611096565b805460648588010152602090930192859250600101611215565b9190505f9450839260649260ff1916838501521515901b82010192611096565b9091938251851015610ebd576020858401015160f81c603081101580611337575b156112bf57602f19019060ff8211610db75760ff6112b8925b60049290921b6010600160a01b031691161794610e9b565b919061103b565b60418110158061132c575b156112e757603619019060ff8211610db75760ff6112b8926112a0565b606181101580611321575b1561130f57605619019060ff8211610db75760ff6112b8926112a0565b60405163e6c4247b60e01b8152600490fd5b5060668111156112f2565b5060468111156112ca565b506039811115611287565b508051600190811015610ebd576021820180516001600160f81b0319908116600f60fb1b14159283611377575b505050611030565b9091925083511115610ebd57905116600b60fb1b14155f808061136f565b905015610ebd5760208101516001600160f81b031916600360fc1b14155f611028565b965061115590610e9b565b965060018301808411610db75796611004565b806113e46114009284610ea9565b516113ef8287610ea9565b526113fa8186610ea9565b50610e9b565b610f7f565b6040516313f8a3a760e31b8152600490fd5b92936001600160401b0361143084849894999599610e8e565b166040519461143e86610bca565b85525f602086015260408501525f60608501525f6080850152604051604081018181106001600160401b03821117610be5575f916114bb9160405260128152711093d39117d4d510551554d7d093d391115160721b6020820152604051968792839263186b216760e01b8452604060048501526044840190610cf6565b6003198382030160248401526080806114dd845160a0855260a0850190610cf6565b936001600160401b0360208201511660208501526001600160401b0360408201511660408501526060810151151560608501520151151591015203816108005afa8015610d9f575f945f916115aa575b50845196871561159b575f985b888a1080611592575b1561157c57611570611576916115598c8a610ea9565b5151611565828c610ea9565b526113fa818b610ea9565b99610e9b565b9861153a565b94985092965090949350518051610f6357610f6b565b50818110611543565b50509392819550959195610f6b565b9450503d805f863e6115bc8186610bf9565b6040858281010312610e8a578451906001600160401b038211610e8a57808601601f838801011215610e8a5781860151916115f683611985565b926116046040519485610bf9565b8084526020840183890160208360051b858c01010111610e8a576020838a0101905b60208360051b858c01010182106116ca575050505060208601516001600160401b038111610e8a5786016040818389010312610e8a5760405196604088018881106001600160401b03821117610be55760405281516001600160401b038111610e8a578201838201601f82011215610e8a5780516020946116aa9301918501610ed1565b875201516001600160401b0381168103610e8a576020860152935f61152d565b81516001600160401b038111610e8a57610160858c018201878d0103601f190112610e8a5760405191826101608101106001600160401b0361016085011117610be557602082878e6101608701604052010101516001600160401b038111610e8a5782878e61174760409460208d84019186868601010101610f15565b8752010101516001600160401b038111610e8a5782878e61177660809460208d84019186868601010101610f15565b602088015261178b6060848484010101610e7d565b6040880152010101516004811015610e8a5760608401528b8601820160a081810151608086015260c08201519085015260e00151906001600160401b038211610e8a5760a0878e0184018301898f0103601f190112610e8a578c93602083858a604051986117f88a610bca565b01010101516001600160401b038111610e8a57838f8a8161182b6040958f6020908c960191878787870101010101610f15565b8a5201010101516001600160401b038111610e8a57838f8a816118606060958f6020908c960191878787870101010101610f15565b60208b015201010101516001600160401b038111610e8a57838f8a816118986080958f6020908c960191878787870101010101610f15565b60408b015201010101516001600160401b038111610e8a57838f8a816118d060a0958f6020908c960191878787870101010101610f15565b60608b01520101010151946001600160401b038611610e8a576101608f91956020979661190e8c8a8f9a819b9a86839c8a01948a0101010101610f15565b608082015260c08501528a6101009361192c858484840101016119e5565b60e087015261012094611944868585850101016119e5565b908701526101409485848484010101519087015201010151908201528152019201919050611626565b6040516306b7c75960e31b8152600490fd5b505f9150565b6001600160401b038111610be55760051b60200190565b906119a682611985565b6119b36040519182610bf9565b82815280926119c4601f1991611985565b01905f5b8281106119d457505050565b8060606020809385010152016119c8565b51908160070b8203610e8a5756fea26469706673582212203d49af80e36bb94f2c2371d94c17db456854f54ebdbaa3bf92732408776f654364736f6c63430008140033",
  "linkReferences": {},
  "deployedLinkReferences": {},
  "immutableReferences": {
    "13": [
      {
        "length": 32,
        "start": 543
      },
      {
        "length": 32,
        "start": 788
      },
      {
        "length": 32,
        "start": 2397
      },
      {
        "length": 32,
        "start": 3382
      }
    ]
  },
  "inputSourceName": "project/solidity/pool/CommunityPool.sol",
  "buildInfoId": "solc-0_8_20-764ee487806caff476736ab9b208906c0233ec72"
}