{
  "_format": "hh3-artifact-1",
  "contractName": "CommunityPool",
  "sourceName": "solidity/pool/CommunityPool.sol",
  "abi": [
    {
      "inputs": [
        {
          "internalType": "address",
          "name": "bondToken_",
          "type": "address"
        },
        {
          "internalType": "uint32",
          "name": "maxRetrieve_",
          "type": "uint32"
        },
        {
          "internalType": "uint32",
          "name": "maxValidators_",
          "type": "uint32"
        },
        {
          "internalType": "uint256",
          "name": "minStakeAmount_",
          "type": "uint256"
        },
        {
          "internalType": "address",
          "name": "owner_",
          "type": "address"
        }
      ],
      "stateMutability": "nonpayable",
      "type": "constructor"
    },
    {
      "inputs": [],
      "name": "HarvestFailed",
      "type": "error"
    },
    {
      "inputs": [
        {
          "internalType": "uint256",
          "name": "requested",
          "type": "uint256"
        },
        {
          "internalType": "uint256",
          "name": "available",
          "type": "uint256"
        }
      ],
      "name": "InsufficientLiquid",
      "type": "error"
    },
    {
      "inputs": [],
      "name": "InvalidAddress",
      "type": "error"
    },
    {
      "inputs": [],
      "name": "InvalidAmount",
      "type": "error"
    },
    {
      "inputs": [],
      "name": "InvalidConfig",
      "type": "error"
    },
    {
      "inputs": [],
      "name": "InvalidUnits",
      "type": "error"
    },
    {
      "inputs": [],
      "name": "TokenTransferFailed",
      "type": "error"
    },
    {
      "inputs": [],
      "name": "TokenTransferFromFailed",
      "type": "error"
    },
    {
      "inputs": [],
      "name": "Unauthorized",
      "type": "error"
    },
    {
      "inputs": [],
      "name": "ZeroMintedUnits",
      "type": "error"
    },
    {
      "anonymous": false,
      "inputs": [
        {
          "indexed": false,
          "internalType": "uint32",
          "name": "maxRetrieve",
          "type": "uint32"
        },
        {
          "indexed": false,
          "internalType": "uint32",
          "name": "maxValidators",
          "type": "uint32"
        },
        {
          "indexed": false,
          "internalType": "uint256",
          "name": "minStakeAmount",
          "type": "uint256"
        }
      ],
      "name": "ConfigUpdated",
      "type": "event"
    },
    {
      "anonymous": false,
      "inputs": [
        {
          "indexed": true,
          "internalType": "address",
          "name": "user",
          "type": "address"
        },
        {
          "indexed": false,
          "internalType": "uint256",
          "name": "amount",
          "type": "uint256"
        },
        {
          "indexed": false,
          "internalType": "uint256",
          "name": "mintedUnits",
          "type": "uint256"
        },
        {
          "indexed": false,
          "internalType": "uint256",
          "name": "totalUnitsAfter",
          "type": "uint256"
        }
      ],
      "name": "Deposit",
      "type": "event"
    },
    {
      "anonymous": false,
      "inputs": [
        {
          "indexed": false,
          "internalType": "uint256",
          "name": "liquidBefore",
          "type": "uint256"
        },
        {
          "indexed": false,
          "internalType": "uint256",
          "name": "liquidAfter",
          "type": "uint256"
        },
        {
          "indexed": false,
          "internalType": "uint256",
          "name": "harvestedAmount",
          "type": "uint256"
        }
      ],
      "name": "Harvest",
      "type": "event"
    },
    {
      "anonymous": false,
      "inputs": [
        {
          "indexed": true,
          "internalType": "address",
          "name": "previousOwner",
          "type": "address"
        },
        {
          "indexed": true,
          "internalType": "address",
          "name": "newOwner",
          "type": "address"
        }
      ],
      "name": "OwnershipTransferred",
      "type": "event"
    },
    {
      "anonymous": false,
      "inputs": [
        {
          "indexed": false,
          "internalType": "uint256",
          "name": "liquidBefore",
          "type": "uint256"
        },
        {
          "indexed": false,
          "internalType": "uint256",
          "name": "delegatedAmount",
          "type": "uint256"
        },
        {
          "indexed": false,
          "internalType": "uint256",
          "name": "validatorsCount",
          "type": "uint256"
        },
        {
          "indexed": false,
          "internalType": "uint256",
          "name": "totalStakedAfter",
          "type": "uint256"
        }
      ],
      "name": "Stake",
      "type": "event"
    },
    {
      "anonymous": false,
      "inputs": [
        {
          "indexed": false,
          "internalType": "uint256",
          "name": "previousTotalStaked",
          "type": "uint256"
        },
        {
          "indexed": false,
          "internalType": "uint256",
          "name": "newTotalStaked",
          "type": "uint256"
        }
      ],
      "name": "TotalStakedSynced",
      "type": "event"
    },
    {
      "anonymous": false,
      "inputs": [
        {
          "indexed": true,
          "internalType": "address",
          "name": "user",
          "type": "address"
        },
        {
          "indexed": false,
          "internalType": "uint256",
          "name": "burnedUnits",
          "type": "uint256"
        },
        {
          "indexed": false,
          "internalType": "uint256",
          "name": "amountOut",
          "type": "uint256"
        },
        {
          "indexed": false,
          "internalType": "uint256",
          "name": "totalUnitsAfter",
          "type": "uint256"
        }
      ],
      "name": "Withdraw",
      "type": "event"
    },
    {
      "inputs": [],
      "name": "bondToken",
      "outputs": [
        {
          "internalType": "contract IERC20",
          "name": "",
          "type": "address"
        }
      ],
      "stateMutability": "view",
      "type": "function"
    },
    {
      "inputs": [
        {
          "internalType": "uint256",
          "name": "amount",
          "type": "uint256"
        }
      ],
      "name": "deposit",
      "outputs": [
        {
          "internalType": "uint256",
          "name": "mintedUnits",
          "type": "uint256"
        }
      ],
      "stateMutability": "nonpayable",
      "type": "function"
    },
    {
      "inputs": [],
      "name": "harvest",
      "outputs": [
        {
          "internalType": "uint256",
          "name": "harvestedAmount",
          "type": "uint256"
        }
      ],
      "stateMutability": "nonpayable",
      "type": "function"
    },
    {
      "inputs": [],
      "name": "liquidBalance",
      "outputs": [
        {
          "internalType": "uint256",
          "name": "",
          "type": "uint256"
        }
      ],
      "stateMutability": "view",
      "type": "function"
    },
    {
      "inputs": [],
      "name": "maxRetrieve",
      "outputs": [
        {
          "internalType": "uint32",
          "name": "",
          "type": "uint32"
        }
      ],
      "stateMutability": "view",
      "type": "function"
    },
    {
      "inputs": [],
      "name": "maxValidators",
      "outputs": [
        {
          "internalType": "uint32",
          "name": "",
          "type": "uint32"
        }
      ],
      "stateMutability": "view",
      "type": "function"
    },
    {
      "inputs": [],
      "name": "minStakeAmount",
      "outputs": [
        {
          "internalType": "uint256",
          "name": "",
          "type": "uint256"
        }
      ],
      "stateMutability": "view",
      "type": "function"
    },
    {
      "inputs": [],
      "name": "owner",
      "outputs": [
        {
          "internalType": "address",
          "name": "",
          "type": "address"
        }
      ],
      "stateMutability": "view",
      "type": "function"
    },
    {
      "inputs": [],
      "name": "poolAssets",
      "outputs": [
        {
          "internalType": "uint256",
          "name": "",
          "type": "uint256"
        }
      ],
      "stateMutability": "view",
      "type": "function"
    },
    {
      "inputs": [],
      "name": "pricePerUnit",
      "outputs": [
        {
          "internalType": "uint256",
          "name": "",
          "type": "uint256"
        }
      ],
      "stateMutability": "view",
      "type": "function"
    },
    {
      "inputs": [
        {
          "internalType": "uint32",
          "name": "newMaxRetrieve",
          "type": "uint32"
        },
        {
          "internalType": "uint32",
          "name": "newMaxValidators",
          "type": "uint32"
        },
        {
          "internalType": "uint256",
          "name": "newMinStakeAmount",
          "type": "uint256"
        }
      ],
      "name": "setConfig",
      "outputs": [],
      "stateMutability": "nonpayable",
      "type": "function"
    },
    {
      "inputs": [],
      "name": "stake",
      "outputs": [
        {
          "internalType": "uint256",
          "name": "delegatedAmount",
          "type": "uint256"
        }
      ],
      "stateMutability": "nonpayable",
      "type": "function"
    },
    {
      "inputs": [
        {
          "internalType": "uint256",
          "name": "newTotalStaked",
          "type": "uint256"
        }
      ],
      "name": "syncTotalStaked",
      "outputs": [],
      "stateMutability": "nonpayable",
      "type": "function"
    },
    {
      "inputs": [],
      "name": "totalStaked",
      "outputs": [
        {
          "internalType": "uint256",
          "name": "",
          "type": "uint256"
        }
      ],
      "stateMutability": "view",
      "type": "function"
    },
    {
      "inputs": [],
      "name": "totalUnits",
      "outputs": [
        {
          "internalType": "uint256",
          "name": "",
          "type": "uint256"
        }
      ],
      "stateMutability": "view",
      "type": "function"
    },
    {
      "inputs": [
        {
          "internalType": "address",
          "name": "newOwner",
          "type": "address"
        }
      ],
      "name": "transferOwnership",
      "outputs": [],
      "stateMutability": "nonpayable",
      "type": "function"
    },
    {
      "inputs": [
        {
          "internalType": "address",
          "name": "",
          "type": "address"
        }
      ],
      "name": "unitsOf",
      "outputs": [
        {
          "internalType": "uint256",
          "name": "",
          "type": "uint256"
        }
      ],
      "stateMutability": "view",
      "type": "function"
    },
    {
      "inputs": [
        {
          "internalType": "uint256",
          "name": "userUnits",
          "type": "uint256"
        }
      ],
      "name": "withdraw",
      "outputs": [
        {
          "internalType": "uint256",
          "name": "amountOut",
          "type": "uint256"
        }
      ],
      "stateMutability": "nonpayable",
      "type": "function"
    }
  ],
  "bytecode": "0x60a03461012e57601f610d8138819003918201601f19168301916001600160401b038311848410176101325780849260a09460405283398101031261012e5761004781610146565b906100546020820161015a565b906100616040820161015a565b91610073608060608401519301610146565b6001600160a01b0394909390851680158015610124575b6101125763ffffffff90818316156101005760805267ffffffff000000006003549260201b1692169060018060401b03191617176003556004551660018060a01b03195f5416175f55604051610c15908161016c82396080518181816101d4015281816102c9015281816106f8015261096a0152f35b6040516306b7c75960e31b8152600490fd5b60405163e6c4247b60e01b8152600490fd5b508585161561008a565b5f80fd5b634e487b7160e01b5f52604160045260245ffd5b51906001600160a01b038216820361012e57565b519063ffffffff8216820361012e5756fe6080604081815260049081361015610015575f80fd5b5f92833560e01c90816308ac5256146108f5575080630eccc708146108bb5780631a0a253c146107ef5780632e1a7d4d1461063e5780633a4b66f1146106055780634641257d146104f7578063635bea2a146104d75780636d86acc4146104b8578063817b1cd2146104995780638da5cb5b14610471578063a8c7914714610402578063b6b55f2514610245578063b7ec1a3314610228578063bbe9a07014610203578063c28f4392146101bf578063e66825c314610197578063f1887684146101795763f2fde38b146100e7575f80fd5b34610175576020366003190112610175576001600160a01b0382358181169390849003610171578454918216928333036101655784156101585750506001600160a01b031916821783557f8be0079c531659141344cd1fd0a4f28419497f9722a3daafe3b4186f6b6457e08380a380f35b5163e6c4247b60e01b8152fd5b516282b42960e81b8152fd5b8480fd5b8280fd5b50903461017557826003193601126101755760209250549051908152f35b8382346101bb57816003193601126101bb576020906101b4610a30565b9051908152f35b5080fd5b8382346101bb57816003193601126101bb57517f00000000000000000000000000000000000000000000000000000000000000006001600160a01b03168152602090f35b8382346101bb57816003193601126101bb5760209063ffffffff600354169051908152f35b8382346101bb57816003193601126101bb576020906101b461094f565b503461017557602092836003193601126103ff57823561026760065415610a78565b600160065580156103f05761028661027d61094f565b600254906109de565b60015490811580156103e8575b156103d057505080935b84156103c25783516323b872dd60e01b81523382820152306024820152604481018390528681606481877f00000000000000000000000000000000000000000000000000000000000000006001600160a01b03165af19081156103b857849161038b575b501561037d57503382526005855282822061031d8582546109de565b90557f36af321ec8d3c75236829c5317affd40ddb308863a1236d2d277a4025cccee1e61037161034f866001546109de565b6001819055855193845260208401879052604084015233929081906060820190565b0390a260065551908152f35b835163be24f3c560e01b8152fd5b6103ab9150873d89116103b1575b6103a38183610919565b810190610ab1565b5f610301565b503d610399565b85513d86823e3d90fd5b8351639345f64b60e01b8152fd5b6103dd6103e292846109ff565b610a12565b9361029d565b508015610293565b50505163162908e360e11b8152fd5b80fd5b509034610175576020366003190112610175578254813591906001600160a01b031633036104645750907f0e6c1ecf62bc9f6c26287bb6a3404d50dd44446d71506263b3bcf5393cc8f74a91600254908060025582519182526020820152a180f35b82516282b42960e81b8152fd5b8382346101bb57816003193601126101bb57905490516001600160a01b039091168152602090f35b8382346101bb57816003193601126101bb576020906002549051908152f35b8382346101bb57816003193601126101bb576020906001549051908152f35b8382346101bb57816003193601126101bb576020906101b461027d61094f565b508290346101bb57816003193601126101bb5761051660065415610a78565b600160065561052361094f565b9163ffffffff60035416825190632efe8a5f60e01b825230868301526024820152602081604481856108015af19081156105fb5782916105dd575b50156105cd57602093507f4ec2d4038813a7f233af1d6d09519189db3ed5bc5b823bf72f6d3144574721de61059161094f565b848111156105c6576105a38582610acd565b945b8451908152602081019190915260408101859052606090a160065551908152f35b82946105a5565b8151630d599dd960e11b81528490fd5b6105f5915060203d81116103b1576103a38183610919565b8561055e565b83513d84823e3d90fd5b8382346101bb57816003193601126101bb579060209161062760065415610a78565b6001600655610634610ada565b9160065551908152f35b503461017557602092836003193601126103ff57823561066060065415610a78565b60018060065581156107df5733835260058652838320549485831180156107d6575b6107c8576106a561069d61069761027d61094f565b856109ff565b835490610a12565b956106ae61094f565b8088116107ac5750836106c091610acd565b33855260058852858520556106d6838354610acd565b8255845163a9059cbb60e01b81523382820152602481018790528781604481887f00000000000000000000000000000000000000000000000000000000000000006001600160a01b03165af19081156107a2578591610785575b5015610777575054835191825260208201859052604082015233907f02f25270a4d87bea75db541cdfe559334a275b4a233520ed6c0a2429667cca94908060608101610371565b845163022e258160e11b8152fd5b61079c9150883d8a116103b1576103a38183610919565b5f610730565b86513d87823e3d90fd5b82604491898951926382b3a56560e01b84528301526024820152fd5b8451630e433c2360e31b8152fd5b50815415610682565b50505051630e433c2360e31b8152fd5b5090346101755760603660031901126101755780359163ffffffff9182841680940361017157602435928316908184036108b757855460443594906001600160a01b031633036108a957821561089a576003805467ffffffffffffffff19168717602092831b67ffffffff00000000161790559084905582519485528401528201527f7d10c2f08263d04ad9c37d1a4368c63e1f087bbe9d13c792e72a112cc37aef8f90606090a180f35b5082516306b7c75960e31b8152fd5b5082516282b42960e81b8152fd5b8580fd5b50903461017557602036600319011261017557356001600160a01b0381169081900361017557828291602094526005845220549051908152f35b8490346101bb57816003193601126101bb5760209063ffffffff600354831c168152f35b90601f8019910116810190811067ffffffffffffffff82111761093b57604052565b634e487b7160e01b5f52604160045260245ffd5b6040516370a0823160e01b81523060048201526020816024817f00000000000000000000000000000000000000000000000000000000000000006001600160a01b03165afa9081156109d3575f916109a5575090565b906020823d82116109cb575b816109be60209383610919565b810103126103ff57505190565b3d91506109b1565b6040513d5f823e3d90fd5b919082018092116109eb57565b634e487b7160e01b5f52601160045260245ffd5b818102929181159184041417156109eb57565b8115610a1c570490565b634e487b7160e01b5f52601260045260245ffd5b6001548015610a6b57610a4461027d61094f565b90670de0b6b3a7640000918281029281840414901517156109eb57610a6891610a12565b90565b50670de0b6b3a764000090565b15610a7f57565b60405162461bcd60e51b815260206004820152600a6024820152697265656e7472616e637960b01b6044820152606490fd5b90816020910312610ac957518015158103610ac95790565b5f80fd5b919082039182116109eb57565b610ae261094f565b906004548210610bda5760035491604080519062141ed760e41b825230600483015282602483015263ffffffff809560201c1660448301525f948183606481896108005af1958615610bcf5780938197610b8a575b5050917f4cdda2b0641e11d4d0c953327ff68eb973718a3128f576eb86e3260df1ce45f693916080938297610b6e846002546109de565b93846002558351958652602086015216908301526060820152a1565b91965092508181813d8111610bc8575b610ba48183610919565b8101031261017557602081519101519286841684036103ff57509194816080610b37565b503d610b9a565b8251903d90823e3d90fd5b5f915056fea26469706673582212209fdff7701bd430cab462c994d74424fd4e2601d9b9945cb35fb4b553603e3d9564736f6c63430008140033",
  "linkReferences": {},
  "deployedLinkReferences": {},
  "immutableReferences": {
    "3877": [
      {
        "length": 32,
        "start": 468
      },
      {
        "length": 32,
        "start": 713
      },
      {
        "length": 32,
        "start": 1784
      },
      {
        "length": 32,
        "start": 2410
      }
    ]
  },
  "inputSourceName": "project/solidity/pool/CommunityPool.sol",
  "buildInfoId": "solc-0_8_20-a811408d247f4050efe5537fb7107e02e5e2869f"
}