{
  "_format": "hh3-artifact-1",
  "contractName": "CommunityPool",
  "sourceName": "solidity/pool/CommunityPool.sol",
  "abi": [
    {
      "inputs": [
        {
          "internalType": "address",
          "name": "bondToken_",
          "type": "address"
        },
        {
          "internalType": "uint32",
          "name": "maxRetrieve_",
          "type": "uint32"
        },
        {
          "internalType": "uint32",
          "name": "maxValidators_",
          "type": "uint32"
        },
        {
          "internalType": "uint256",
          "name": "minStakeAmount_",
          "type": "uint256"
        },
        {
          "internalType": "address",
          "name": "owner_",
          "type": "address"
        }
      ],
      "stateMutability": "nonpayable",
      "type": "constructor"
    },
    {
      "inputs": [],
      "name": "HarvestFailed",
      "type": "error"
    },
    {
      "inputs": [
        {
          "internalType": "uint256",
          "name": "requested",
          "type": "uint256"
        },
        {
          "internalType": "uint256",
          "name": "available",
          "type": "uint256"
        }
      ],
      "name": "InsufficientLiquid",
      "type": "error"
    },
    {
      "inputs": [],
      "name": "InvalidAddress",
      "type": "error"
    },
    {
      "inputs": [],
      "name": "InvalidAmount",
      "type": "error"
    },
    {
      "inputs": [
        {
          "internalType": "int64",
          "name": "completionTime",
          "type": "int64"
        },
        {
          "internalType": "uint64",
          "name": "currentTime",
          "type": "uint64"
        }
      ],
      "name": "InvalidCompletionTime",
      "type": "error"
    },
    {
      "inputs": [],
      "name": "InvalidConfig",
      "type": "error"
    },
    {
      "inputs": [],
      "name": "InvalidRequest",
      "type": "error"
    },
    {
      "inputs": [],
      "name": "InvalidUnits",
      "type": "error"
    },
    {
      "inputs": [
        {
          "internalType": "uint256",
          "name": "reservedAmount",
          "type": "uint256"
        },
        {
          "internalType": "uint256",
          "name": "liquidBalance",
          "type": "uint256"
        }
      ],
      "name": "LiquidReserveInvariantViolation",
      "type": "error"
    },
    {
      "inputs": [],
      "name": "RequestAlreadyClaimed",
      "type": "error"
    },
    {
      "inputs": [
        {
          "internalType": "uint64",
          "name": "maturityTime",
          "type": "uint64"
        },
        {
          "internalType": "uint64",
          "name": "currentTime",
          "type": "uint64"
        }
      ],
      "name": "RequestNotMatured",
      "type": "error"
    },
    {
      "inputs": [
        {
          "internalType": "uint256",
          "name": "rewardReserve",
          "type": "uint256"
        },
        {
          "internalType": "uint256",
          "name": "liquidBalance",
          "type": "uint256"
        }
      ],
      "name": "RewardReserveInvariantViolation",
      "type": "error"
    },
    {
      "inputs": [
        {
          "internalType": "uint256",
          "name": "accountedLiquid",
          "type": "uint256"
        },
        {
          "internalType": "uint256",
          "name": "liquidBalance",
          "type": "uint256"
        }
      ],
      "name": "StakeablePrincipalInvariantViolation",
      "type": "error"
    },
    {
      "inputs": [],
      "name": "TokenTransferFailed",
      "type": "error"
    },
    {
      "inputs": [],
      "name": "TokenTransferFromFailed",
      "type": "error"
    },
    {
      "inputs": [],
      "name": "Unauthorized",
      "type": "error"
    },
    {
      "inputs": [
        {
          "internalType": "uint256",
          "name": "requested",
          "type": "uint256"
        },
        {
          "internalType": "uint256",
          "name": "undelegated",
          "type": "uint256"
        }
      ],
      "name": "UnexpectedUndelegatedAmount",
      "type": "error"
    },
    {
      "inputs": [],
      "name": "ZeroMintedUnits",
      "type": "error"
    },
    {
      "anonymous": false,
      "inputs": [
        {
          "indexed": true,
          "internalType": "address",
          "name": "previousCaller",
          "type": "address"
        },
        {
          "indexed": true,
          "internalType": "address",
          "name": "newCaller",
          "type": "address"
        }
      ],
      "name": "AutomationCallerUpdated",
      "type": "event"
    },
    {
      "anonymous": false,
      "inputs": [
        {
          "indexed": false,
          "internalType": "uint32",
          "name": "maxRetrieve",
          "type": "uint32"
        },
        {
          "indexed": false,
          "internalType": "uint32",
          "name": "maxValidators",
          "type": "uint32"
        },
        {
          "indexed": false,
          "internalType": "uint256",
          "name": "minStakeAmount",
          "type": "uint256"
        }
      ],
      "name": "ConfigUpdated",
      "type": "event"
    },
    {
      "anonymous": false,
      "inputs": [
        {
          "indexed": true,
          "internalType": "address",
          "name": "user",
          "type": "address"
        },
        {
          "indexed": false,
          "internalType": "uint256",
          "name": "amount",
          "type": "uint256"
        },
        {
          "indexed": false,
          "internalType": "uint256",
          "name": "mintedUnits",
          "type": "uint256"
        },
        {
          "indexed": false,
          "internalType": "uint256",
          "name": "totalUnitsAfter",
          "type": "uint256"
        }
      ],
      "name": "Deposit",
      "type": "event"
    },
    {
      "anonymous": false,
      "inputs": [
        {
          "indexed": false,
          "internalType": "uint256",
          "name": "liquidBefore",
          "type": "uint256"
        },
        {
          "indexed": false,
          "internalType": "uint256",
          "name": "liquidAfter",
          "type": "uint256"
        },
        {
          "indexed": false,
          "internalType": "uint256",
          "name": "harvestedAmount",
          "type": "uint256"
        }
      ],
      "name": "Harvest",
      "type": "event"
    },
    {
      "anonymous": false,
      "inputs": [
        {
          "indexed": true,
          "internalType": "address",
          "name": "previousOwner",
          "type": "address"
        },
        {
          "indexed": true,
          "internalType": "address",
          "name": "newOwner",
          "type": "address"
        }
      ],
      "name": "OwnershipTransferred",
      "type": "event"
    },
    {
      "anonymous": false,
      "inputs": [
        {
          "indexed": false,
          "internalType": "uint256",
          "name": "harvestedAmount",
          "type": "uint256"
        },
        {
          "indexed": false,
          "internalType": "uint256",
          "name": "accRewardPerUnit",
          "type": "uint256"
        },
        {
          "indexed": false,
          "internalType": "uint256",
          "name": "rewardReserve",
          "type": "uint256"
        }
      ],
      "name": "RewardIndexUpdated",
      "type": "event"
    },
    {
      "anonymous": false,
      "inputs": [
        {
          "indexed": true,
          "internalType": "address",
          "name": "user",
          "type": "address"
        },
        {
          "indexed": false,
          "internalType": "uint256",
          "name": "amount",
          "type": "uint256"
        }
      ],
      "name": "RewardsClaimed",
      "type": "event"
    },
    {
      "anonymous": false,
      "inputs": [
        {
          "indexed": false,
          "internalType": "uint256",
          "name": "liquidBefore",
          "type": "uint256"
        },
        {
          "indexed": false,
          "internalType": "uint256",
          "name": "delegatedAmount",
          "type": "uint256"
        },
        {
          "indexed": false,
          "internalType": "uint256",
          "name": "validatorsCount",
          "type": "uint256"
        },
        {
          "indexed": false,
          "internalType": "uint256",
          "name": "totalStakedAfter",
          "type": "uint256"
        }
      ],
      "name": "Stake",
      "type": "event"
    },
    {
      "anonymous": false,
      "inputs": [
        {
          "indexed": false,
          "internalType": "uint256",
          "name": "previousTotalStaked",
          "type": "uint256"
        },
        {
          "indexed": false,
          "internalType": "uint256",
          "name": "newTotalStaked",
          "type": "uint256"
        }
      ],
      "name": "TotalStakedSynced",
      "type": "event"
    },
    {
      "anonymous": false,
      "inputs": [
        {
          "indexed": true,
          "internalType": "address",
          "name": "user",
          "type": "address"
        },
        {
          "indexed": true,
          "internalType": "uint256",
          "name": "requestId",
          "type": "uint256"
        },
        {
          "indexed": false,
          "internalType": "uint256",
          "name": "amountOut",
          "type": "uint256"
        }
      ],
      "name": "WithdrawClaimed",
      "type": "event"
    },
    {
      "anonymous": false,
      "inputs": [
        {
          "indexed": true,
          "internalType": "address",
          "name": "user",
          "type": "address"
        },
        {
          "indexed": true,
          "internalType": "uint256",
          "name": "requestId",
          "type": "uint256"
        },
        {
          "indexed": false,
          "internalType": "uint256",
          "name": "units",
          "type": "uint256"
        },
        {
          "indexed": false,
          "internalType": "uint256",
          "name": "amountOut",
          "type": "uint256"
        },
        {
          "indexed": false,
          "internalType": "uint64",
          "name": "maturityTime",
          "type": "uint64"
        }
      ],
      "name": "WithdrawRequested",
      "type": "event"
    },
    {
      "anonymous": false,
      "inputs": [
        {
          "indexed": true,
          "internalType": "uint256",
          "name": "requestId",
          "type": "uint256"
        },
        {
          "indexed": false,
          "internalType": "uint256",
          "name": "amountOut",
          "type": "uint256"
        },
        {
          "indexed": false,
          "internalType": "uint256",
          "name": "pendingWithdrawReserveAfter",
          "type": "uint256"
        },
        {
          "indexed": false,
          "internalType": "uint256",
          "name": "maturedWithdrawReserveAfter",
          "type": "uint256"
        }
      ],
      "name": "WithdrawReserveMoved",
      "type": "event"
    },
    {
      "inputs": [],
      "name": "PRECISION",
      "outputs": [
        {
          "internalType": "uint256",
          "name": "",
          "type": "uint256"
        }
      ],
      "stateMutability": "view",
      "type": "function"
    },
    {
      "inputs": [],
      "name": "accRewardPerUnit",
      "outputs": [
        {
          "internalType": "uint256",
          "name": "",
          "type": "uint256"
        }
      ],
      "stateMutability": "view",
      "type": "function"
    },
    {
      "inputs": [],
      "name": "automationCaller",
      "outputs": [
        {
          "internalType": "address",
          "name": "",
          "type": "address"
        }
      ],
      "stateMutability": "view",
      "type": "function"
    },
    {
      "inputs": [],
      "name": "bondToken",
      "outputs": [
        {
          "internalType": "contract IERC20",
          "name": "",
          "type": "address"
        }
      ],
      "stateMutability": "view",
      "type": "function"
    },
    {
      "inputs": [],
      "name": "claimRewards",
      "outputs": [
        {
          "internalType": "uint256",
          "name": "claimedAmount",
          "type": "uint256"
        }
      ],
      "stateMutability": "nonpayable",
      "type": "function"
    },
    {
      "inputs": [
        {
          "internalType": "uint256",
          "name": "requestId",
          "type": "uint256"
        }
      ],
      "name": "claimWithdraw",
      "outputs": [
        {
          "internalType": "uint256",
          "name": "amountOut",
          "type": "uint256"
        }
      ],
      "stateMutability": "nonpayable",
      "type": "function"
    },
    {
      "inputs": [
        {
          "internalType": "uint256",
          "name": "amount",
          "type": "uint256"
        }
      ],
      "name": "deposit",
      "outputs": [
        {
          "internalType": "uint256",
          "name": "mintedUnits",
          "type": "uint256"
        }
      ],
      "stateMutability": "nonpayable",
      "type": "function"
    },
    {
      "inputs": [],
      "name": "harvest",
      "outputs": [
        {
          "internalType": "uint256",
          "name": "harvestedAmount",
          "type": "uint256"
        }
      ],
      "stateMutability": "nonpayable",
      "type": "function"
    },
    {
      "inputs": [],
      "name": "liquidBalance",
      "outputs": [
        {
          "internalType": "uint256",
          "name": "",
          "type": "uint256"
        }
      ],
      "stateMutability": "view",
      "type": "function"
    },
    {
      "inputs": [],
      "name": "maturedWithdrawReserve",
      "outputs": [
        {
          "internalType": "uint256",
          "name": "",
          "type": "uint256"
        }
      ],
      "stateMutability": "view",
      "type": "function"
    },
    {
      "inputs": [],
      "name": "maxRetrieve",
      "outputs": [
        {
          "internalType": "uint32",
          "name": "",
          "type": "uint32"
        }
      ],
      "stateMutability": "view",
      "type": "function"
    },
    {
      "inputs": [],
      "name": "maxValidators",
      "outputs": [
        {
          "internalType": "uint32",
          "name": "",
          "type": "uint32"
        }
      ],
      "stateMutability": "view",
      "type": "function"
    },
    {
      "inputs": [],
      "name": "minStakeAmount",
      "outputs": [
        {
          "internalType": "uint256",
          "name": "",
          "type": "uint256"
        }
      ],
      "stateMutability": "view",
      "type": "function"
    },
    {
      "inputs": [],
      "name": "nextWithdrawRequestId",
      "outputs": [
        {
          "internalType": "uint256",
          "name": "",
          "type": "uint256"
        }
      ],
      "stateMutability": "view",
      "type": "function"
    },
    {
      "inputs": [],
      "name": "owner",
      "outputs": [
        {
          "internalType": "address",
          "name": "",
          "type": "address"
        }
      ],
      "stateMutability": "view",
      "type": "function"
    },
    {
      "inputs": [],
      "name": "pendingWithdrawReserve",
      "outputs": [
        {
          "internalType": "uint256",
          "name": "",
          "type": "uint256"
        }
      ],
      "stateMutability": "view",
      "type": "function"
    },
    {
      "inputs": [],
      "name": "pricePerUnit",
      "outputs": [
        {
          "internalType": "uint256",
          "name": "",
          "type": "uint256"
        }
      ],
      "stateMutability": "view",
      "type": "function"
    },
    {
      "inputs": [],
      "name": "principalAssets",
      "outputs": [
        {
          "internalType": "uint256",
          "name": "",
          "type": "uint256"
        }
      ],
      "stateMutability": "view",
      "type": "function"
    },
    {
      "inputs": [],
      "name": "principalLiquid",
      "outputs": [
        {
          "internalType": "uint256",
          "name": "",
          "type": "uint256"
        }
      ],
      "stateMutability": "view",
      "type": "function"
    },
    {
      "inputs": [
        {
          "internalType": "address",
          "name": "",
          "type": "address"
        }
      ],
      "name": "rewardDebt",
      "outputs": [
        {
          "internalType": "uint256",
          "name": "",
          "type": "uint256"
        }
      ],
      "stateMutability": "view",
      "type": "function"
    },
    {
      "inputs": [],
      "name": "rewardReserve",
      "outputs": [
        {
          "internalType": "uint256",
          "name": "",
          "type": "uint256"
        }
      ],
      "stateMutability": "view",
      "type": "function"
    },
    {
      "inputs": [
        {
          "internalType": "address",
          "name": "newAutomationCaller",
          "type": "address"
        }
      ],
      "name": "setAutomationCaller",
      "outputs": [],
      "stateMutability": "nonpayable",
      "type": "function"
    },
    {
      "inputs": [
        {
          "internalType": "uint32",
          "name": "newMaxRetrieve",
          "type": "uint32"
        },
        {
          "internalType": "uint32",
          "name": "newMaxValidators",
          "type": "uint32"
        },
        {
          "internalType": "uint256",
          "name": "newMinStakeAmount",
          "type": "uint256"
        }
      ],
      "name": "setConfig",
      "outputs": [],
      "stateMutability": "nonpayable",
      "type": "function"
    },
    {
      "inputs": [],
      "name": "stake",
      "outputs": [
        {
          "internalType": "uint256",
          "name": "delegatedAmount",
          "type": "uint256"
        }
      ],
      "stateMutability": "nonpayable",
      "type": "function"
    },
    {
      "inputs": [],
      "name": "stakeablePrincipalLedger",
      "outputs": [
        {
          "internalType": "uint256",
          "name": "",
          "type": "uint256"
        }
      ],
      "stateMutability": "view",
      "type": "function"
    },
    {
      "inputs": [
        {
          "internalType": "uint256",
          "name": "newTotalStaked",
          "type": "uint256"
        }
      ],
      "name": "syncTotalStaked",
      "outputs": [],
      "stateMutability": "nonpayable",
      "type": "function"
    },
    {
      "inputs": [],
      "name": "totalStaked",
      "outputs": [
        {
          "internalType": "uint256",
          "name": "",
          "type": "uint256"
        }
      ],
      "stateMutability": "view",
      "type": "function"
    },
    {
      "inputs": [],
      "name": "totalUnits",
      "outputs": [
        {
          "internalType": "uint256",
          "name": "",
          "type": "uint256"
        }
      ],
      "stateMutability": "view",
      "type": "function"
    },
    {
      "inputs": [],
      "name": "totalWithdrawCommitments",
      "outputs": [
        {
          "internalType": "uint256",
          "name": "",
          "type": "uint256"
        }
      ],
      "stateMutability": "view",
      "type": "function"
    },
    {
      "inputs": [
        {
          "internalType": "address",
          "name": "newOwner",
          "type": "address"
        }
      ],
      "name": "transferOwnership",
      "outputs": [],
      "stateMutability": "nonpayable",
      "type": "function"
    },
    {
      "inputs": [
        {
          "internalType": "address",
          "name": "",
          "type": "address"
        }
      ],
      "name": "unitsOf",
      "outputs": [
        {
          "internalType": "uint256",
          "name": "",
          "type": "uint256"
        }
      ],
      "stateMutability": "view",
      "type": "function"
    },
    {
      "inputs": [
        {
          "internalType": "uint256",
          "name": "userUnits",
          "type": "uint256"
        }
      ],
      "name": "withdraw",
      "outputs": [
        {
          "internalType": "uint256",
          "name": "requestId",
          "type": "uint256"
        }
      ],
      "stateMutability": "nonpayable",
      "type": "function"
    },
    {
      "inputs": [
        {
          "internalType": "uint256",
          "name": "",
          "type": "uint256"
        }
      ],
      "name": "withdrawRequests",
      "outputs": [
        {
          "internalType": "address",
          "name": "owner",
          "type": "address"
        },
        {
          "internalType": "uint256",
          "name": "amountOut",
          "type": "uint256"
        },
        {
          "internalType": "uint64",
          "name": "maturityTime",
          "type": "uint64"
        },
        {
          "internalType": "bool",
          "name": "reserveMoved",
          "type": "bool"
        },
        {
          "internalType": "bool",
          "name": "claimed",
          "type": "bool"
        }
      ],
      "stateMutability": "view",
      "type": "function"
    }
  ],
  "bytecode": "0x60a0346200015557601f6200195c38819003918201601f19168301916001600160401b03831184841017620001595780849260a09460405283398101031262000155576200004d816200016d565b906200005c6020820162000182565b906200006b6040820162000182565b916200007f6080606084015193016200016d565b60016009556001600160a01b03949093908516801580156200014a575b620001385763ffffffff9081831615620001265760805267ffffffff00000000600a549260201b1692169060018060401b0319161717600a55600b551660018060a01b031981815f5416175f5560015416176001556040516117c7908162000195823960805181818161031f0152818161043f015281816106ab015281816112b701526116250152f35b6040516306b7c75960e31b8152600490fd5b60405163e6c4247b60e01b8152600490fd5b50858516156200009c565b5f80fd5b634e487b7160e01b5f52604160045260245ffd5b51906001600160a01b03821682036200015557565b519063ffffffff82168203620001555756fe6080604081815260049182361015610015575f80fd5b5f92833560e01c91826308ac525614611242575081630eccc708146112085781630ed61edb146111e45781631a0a253c146111195781632e1a7d4d14610dc9578163372500ab14610d995781633a4b66f114610d355781634641257d14610af15781635873eb9b14610ab75781636d86acc414610a985781636f62018514610a795781637bfe7d5714610a5a578163817b1cd214610a3b57816383810d1d146109c15781638ca82108146109a25781638da5cb5b1461097a578163992a7dfb1461090f578163a8c79147146108a0578163aaf5eb681461087d578163b13acedd146105b0578163b6b55f25146103b4578163b7ec1a3314610397578163bae8059414610373578163bbe9a0701461034e578163c28f43921461030a578163cab64bcd146102eb578163d5f884a1146102cc578163dacd7e0c146102ae578163e66825c31461028a578163f18876841461026b578163f2fde38b146101d657508063f74bcf29146101b85763fa303a531461018d575f80fd5b346101b457816003193601126101b45760015490516001600160a01b039091168152602090f35b5080fd5b50346101b457816003193601126101b4576020906006549051908152f35b91905034610267576020366003190112610267576001600160a01b03823581811693908490036102635784549182169283330361025757841561024a5750506001600160a01b031916821783557f8be0079c531659141344cd1fd0a4f28419497f9722a3daafe3b4186f6b6457e08380a380f35b5163e6c4247b60e01b8152fd5b516282b42960e81b8152fd5b8480fd5b8280fd5b5050346101b457816003193601126101b457602090600b549051908152f35b5050346101b457816003193601126101b4576020906102a761137d565b9051908152f35b90503461026757826003193601126102675760209250549051908152f35b5050346101b457816003193601126101b4576020906007549051908152f35b5050346101b457816003193601126101b4576020906005549051908152f35b5050346101b457816003193601126101b457517f00000000000000000000000000000000000000000000000000000000000000006001600160a01b03168152602090f35b5050346101b457816003193601126101b45760209063ffffffff600a54169051908152f35b5050346101b457816003193601126101b4576020906102a76006546003549061132b565b5050346101b457816003193601126101b4576020906102a761129c565b9190503461026757602092836003193601126105ad5782356103d8600f54156113c9565b6001600f55801561059e576103ec3361157c565b506103fc6006546003549061132b565b6002549081158015610596575b1561057e57505080935b84156105705783516323b872dd60e01b81523382820152306024820152604481018390528681606481877f00000000000000000000000000000000000000000000000000000000000000006001600160a01b03165af1908115610566578491610539575b501561052b576104d2670de0b6b3a7640000916104968460065461132b565b600655338552600c88528585206104ae88825461132b565b90556104bc8760025461132b565b600255338552600c88528585205490549061134c565b04338352600d8652838320556104e66116cf565b600254835191825260208201859052604082015233907f36af321ec8d3c75236829c5317affd40ddb308863a1236d2d277a4025cccee1e90606090a2600f5551908152f35b835163be24f3c560e01b8152fd5b6105599150873d891161055f575b6105518183611266565b810190611402565b5f610477565b503d610547565b85513d86823e3d90fd5b8351639345f64b60e01b8152fd5b61058b610590928461134c565b61135f565b93610413565b508015610409565b50505163162908e360e11b8152fd5b80fd5b9190503461026757602092836003193601126105ad5782356105d4600f54156113c9565b6001600f55808252600e855282822080546001600160a01b039591908616801561086d57330361085f5760028101805460ff8160481c1661084f5767ffffffffffffffff804216908216808210610833575050861c60ff1615610780575b805460ff60481b1916600160481b179055600101546008549095908087116107645761066861065f61129c565b6005549061142f565b80881161074857508661067a9161142f565b600855845163a9059cbb60e01b815233838201908152602081018890529091889183919082908890829060400103927f0000000000000000000000000000000000000000000000000000000000000000165af190811561056657849161072b575b501561071d57506106ea6116cf565b82518481527f5b9b0bc34c7f6a61889ce3382d8697cc823f00d6e619362ae6b156bc8ee3ad46863392a3600f5551908152f35b835163022e258160e11b8152fd5b6107429150873d891161055f576105518183611266565b5f6106db565b83604491898951926382b3a56560e01b84528301526024820152fd5b82604491888851926382b3a56560e01b84528301526024820152fd5b6001820180546007548082116108165760019493926107c188937fe303da04bf6b13e3562ddfe787f074bcf5855167c6667376cadc0e0d5706eeee9361142f565b6007556107d1815460085461132b565b6008558560401b60ff60401b19855416178455546007549061080b6008548c51938493846040919493926060820195825260208201520152565b0390a2909150610632565b88516382b3a56560e01b8152808701929092526024820152604490fd5b60449186918a5192633760603560e21b84528301526024820152fd5b86516354e19feb60e01b81528490fd5b5083516282b42960e81b8152fd5b85516341abc80160e01b81528390fd5b5050346101b457816003193601126101b45760209051670de0b6b3a76400008152f35b905034610267576020366003190112610267578254813591906001600160a01b031633036109025750907f0e6c1ecf62bc9f6c26287bb6a3404d50dd44446d71506263b3bcf5393cc8f74a91600354908060035582519182526020820152a180f35b82516282b42960e81b8152fd5b905034610267576020366003190112610267578160a09360ff92358152600e602052209181600180861b0384541693600260018201549101549283918151968752602087015267ffffffffffffffff8216818701521c161515606084015260481c1615156080820152f35b5050346101b457816003193601126101b457905490516001600160a01b039091168152602090f35b5050346101b457816003193601126101b4576020906009549051908152f35b91905034610267576020366003190112610267576001600160a01b038235818116939192908490036102635782855416330361025757831561024a575050600180546001600160a01b031981168417909155167f9b6cbce723aab630d07d7af8531985c84625fa96e4c7405835f8d8ca53b5bb498380a380f35b5050346101b457816003193601126101b4576020906003549051908152f35b5050346101b457816003193601126101b4576020906008549051908152f35b5050346101b457816003193601126101b4576020906006549051908152f35b5050346101b457816003193601126101b4576020906002549051908152f35b90503461026757602036600319011261026757356001600160a01b038116908190036102675782829160209452600d845220549051908152f35b8383346101b457816003193601126101b457610b0f600f54156113c9565b6001600f558154336001600160a01b0391821614159081610d26575b50610d1857610b3861129c565b9163ffffffff600a5416825190632efe8a5f60e01b825230868301526024820152602081604481856108015af1908115610d0e578291610cf0575b5015610ce057610b8161129c565b83811115610cd957610b93848261142f565b935b84158015610bdc575b5060209550905f8051602061177283398151915291610bbb6116cf565b8451908152602081019190915260408101859052606090a1600f5551908152f35b610be88660055461132b565b90816005556002549081610c59575b5050907f4ca31b8f435df10a9cb69690e4af29947006cdd5ad35a27a2075cf262c5926915f80516020611772833981519152939260209854610c4f88519283928b846040919493926060820195825260208201520152565b0390a19091610b9e565b670de0b6b3a76400009081890291898304141715610cc65791602098610cba610cb37f4ca31b8f435df10a9cb69690e4af29947006cdd5ad35a27a2075cf262c592691945f8051602061177283398151915298979661135f565b825461132b565b81559850919293610bf7565b634e487b7160e01b865260118952602486fd5b8193610b95565b8151630d599dd960e11b81528490fd5b610d08915060203d811161055f576105518183611266565b85610b73565b83513d84823e3d90fd5b516282b42960e81b81529050fd5b90506001541633141584610b2b565b8383346101b457816003193601126101b457610d53600f54156113c9565b6001600f558154336001600160a01b0391821614159081610d8a575b50610d185760209250610d8061143c565b91600f5551908152f35b90506001541633141584610d6f565b5050346101b457816003193601126101b45790602091610dbb600f54156113c9565b6001600f55610d803361157c565b9190503461026757602092836003193601126105ad578235610ded600f54156113c9565b6001600f55801561110a57610e013361157c565b50338252600c8552828220548082118015611100575b6110f057610e33610e2a6003548461134c565b6002549061135f565b9081156110e057600a548551633991e9e560e11b8152308189019081526020810185905291891c63ffffffff16604083015260609392909167ffffffffffffffff919042831690869085908190830103818b6108005af19384156110d65788908995611083575b5085810361106757508360070b88811380159061105c575b61104057505085610ec29161142f565b338752600c8a5287872055610ed98560025461142f565b600255610ee88360035461142f565b600355610ef78360075461132b565b600755338652600c8952670de0b6b3a7640000610f19888820548a549061134c565b04338752600d8a5287872055610f2d6116cf565b600954975f19891461102d576001890160095587519060a08201908282108483111761101a5750928a8a899460027f3310f1d43f4f9df9a267a6a9da8bd7ab75ac0e320a65fc3405d43a0ca97c5ea19895839b9a988e523381528d85820190888252848184019816998a8952600e8c850198828a526080860198838a52835252209160018060a01b0390511660018060a01b03198354161782555160018201550193511683549260ff60401b905115158d1b169160ff60481b9051151560481b169269ffffffffffffffffffff19161717179055875194855289850152868401523392a3600f5551908152f35b634e487b7160e01b895260419052602488fd5b634e487b7160e01b875260119052602486fd5b6044918b918b519263158e5da560e11b84528301526024820152fd5b508184861610610eb2565b8a604491878c5192633a54e96d60e21b84528301526024820152fd5b809550878092503d83116110cf575b61109c8183611266565b810103126110cb57888451946110b38d820161141e565b500151938460070b85036110c7575f610e9a565b8880fd5b8780fd5b503d611092565b89513d8a823e3d90fd5b845163162908e360e11b81528690fd5b50505051630e433c2360e31b8152fd5b5060025415610e17565b505051630e433c2360e31b8152fd5b9050346102675760603660031901126102675780359163ffffffff80841680940361026357602435908116908181036111e057855460443594906001600160a01b031633036111d35782156111c55750600a805467ffffffffffffffff19168617602092831b67ffffffff0000000016179055600b84905582519485528401528201527f7d10c2f08263d04ad9c37d1a4368c63e1f087bbe9d13c792e72a112cc37aef8f90606090a180f35b83516306b7c75960e31b8152fd5b83516282b42960e81b8152fd5b8580fd5b5050346101b457816003193601126101b4576020906102a76007546008549061132b565b90503461026757602036600319011261026757356001600160a01b038116908190036102675782829160209452600c845220549051908152f35b8490346101b457816003193601126101b45760209063ffffffff600a54831c168152f35b90601f8019910116810190811067ffffffffffffffff82111761128857604052565b634e487b7160e01b5f52604160045260245ffd5b6040516370a0823160e01b81523060048201526020816024817f00000000000000000000000000000000000000000000000000000000000000006001600160a01b03165afa908115611320575f916112f2575090565b906020823d8211611318575b8161130b60209383611266565b810103126105ad57505190565b3d91506112fe565b6040513d5f823e3d90fd5b9190820180921161133857565b634e487b7160e01b5f52601160045260245ffd5b8181029291811591840414171561133857565b8115611369570490565b634e487b7160e01b5f52601260045260245ffd5b60025480156113bc576113956006546003549061132b565b90670de0b6b3a764000091828102928184041490151715611338576113b99161135f565b90565b50670de0b6b3a764000090565b156113d057565b60405162461bcd60e51b815260206004820152600a6024820152697265656e7472616e637960b01b6044820152606490fd5b9081602091031261141a5751801515810361141a5790565b5f80fd5b519063ffffffff8216820361141a57565b9190820391821161133857565b60065490600b54821061157757600a546040805162141ed760e41b81523060048201526024810185905263ffffffff60209390931c8316604482015293915f91908186606481866108005af195861561156b57838097611501575b5050917f4cdda2b0641e11d4d0c953327ff68eb973718a3128f576eb86e3260df1ce45f6939160809382976114ce8460065461142f565b6006556114dd8460035461132b565b93846003556114ea6116cf565b8351958652602086015216908301526060820152a1565b91965092508183813d8311611564575b61151b8183611266565b810103126105ad575091817f4cdda2b0641e11d4d0c953327ff68eb973718a3128f576eb86e3260df1ce45f693611558602060809551930161141e565b96919381939550611497565b503d611511565b505051903d90823e3d90fd5b5f9150565b9060018060a01b0391828116905f90828252602091600c8352604091670de0b6b3a76400006115b1848420546004549061134c565b04858352600d8552838320908082549255818111156116c457916115d986926116219461142f565b9889916115e88360055461142f565b600555865163a9059cbb60e01b81526001600160a01b039091166004820152602481019290925290928391908290869082906044820190565b03927f0000000000000000000000000000000000000000000000000000000000000000165af19182156116b9579161169c575b501561168c57907ffc30cddea38e2bf4d6ea7d3f9ed3b6ad7f176419f4963bd81318067a4aee73fe916116856116cf565b51858152a2565b5163022e258160e11b8152600490fd5b6116b39150833d851161055f576105518183611266565b5f611654565b8351903d90823e3d90fd5b509196505050505050565b6116d761129c565b60055481811161175457600854906116ef828261132b565b83811161173657509061170761170c9260065461132b565b61132b565b90808211611718575050565b6044925060405191630648624b60e21b835260048301526024820152fd5b604490846040519163c53ef3b160e01b835260048301526024820152fd5b60449160405191637843b5b360e01b835260048301526024820152fdfe4ec2d4038813a7f233af1d6d09519189db3ed5bc5b823bf72f6d3144574721dea2646970667358221220414c83de887f7aba70f466b3b0148b72c8c1b8e43eba93c815fb2625fddf1cb564736f6c63430008140033",
  "linkReferences": {},
  "deployedLinkReferences": {},
  "immutableReferences": {
    "9": [
      {
        "length": 32,
        "start": 799
      },
      {
        "length": 32,
        "start": 1087
      },
      {
        "length": 32,
        "start": 1707
      },
      {
        "length": 32,
        "start": 4791
      },
      {
        "length": 32,
        "start": 5669
      }
    ]
  },
  "inputSourceName": "project/solidity/pool/CommunityPool.sol",
  "buildInfoId": "solc-0_8_20-964f328906be1a5d90d685a6c14ba52665e8f58a"
}