{
  "_format": "hh3-artifact-1",
  "contractName": "TEERegistry",
  "sourceName": "solidity/TEERegistry.sol",
  "abi": [
    {
      "inputs": [],
      "stateMutability": "nonpayable",
      "type": "constructor"
    },
    {
      "inputs": [
        {
          "internalType": "string",
          "name": "reason",
          "type": "string"
        }
      ],
      "name": "AttestationInvalid",
      "type": "error"
    },
    {
      "inputs": [],
      "name": "InvalidSignature",
      "type": "error"
    },
    {
      "inputs": [],
      "name": "InvalidTEEType",
      "type": "error"
    },
    {
      "inputs": [
        {
          "internalType": "string",
          "name": "reason",
          "type": "string"
        }
      ],
      "name": "KeyBindingFailed",
      "type": "error"
    },
    {
      "inputs": [],
      "name": "NotTEEOwner",
      "type": "error"
    },
    {
      "inputs": [],
      "name": "PCRExpired",
      "type": "error"
    },
    {
      "inputs": [],
      "name": "PCRNotApproved",
      "type": "error"
    },
    {
      "inputs": [],
      "name": "SettlementAlreadyUsed",
      "type": "error"
    },
    {
      "inputs": [],
      "name": "TEEAlreadyExists",
      "type": "error"
    },
    {
      "inputs": [],
      "name": "TEENotActive",
      "type": "error"
    },
    {
      "inputs": [],
      "name": "TEENotFound",
      "type": "error"
    },
    {
      "inputs": [],
      "name": "TEETypeExists",
      "type": "error"
    },
    {
      "inputs": [],
      "name": "TEETypeNotFound",
      "type": "error"
    },
    {
      "inputs": [],
      "name": "TimestampInFuture",
      "type": "error"
    },
    {
      "inputs": [],
      "name": "TimestampTooOld",
      "type": "error"
    },
    {
      "anonymous": false,
      "inputs": [
        {
          "indexed": true,
          "internalType": "bytes32",
          "name": "certHash",
          "type": "bytes32"
        }
      ],
      "name": "AWSCertificateUpdated",
      "type": "event"
    },
    {
      "anonymous": false,
      "inputs": [
        {
          "indexed": true,
          "internalType": "bytes32",
          "name": "pcrHash",
          "type": "bytes32"
        },
        {
          "indexed": false,
          "internalType": "string",
          "name": "version",
          "type": "string"
        }
      ],
      "name": "PCRApproved",
      "type": "event"
    },
    {
      "anonymous": false,
      "inputs": [
        {
          "indexed": true,
          "internalType": "bytes32",
          "name": "pcrHash",
          "type": "bytes32"
        }
      ],
      "name": "PCRRevoked",
      "type": "event"
    },
    {
      "anonymous": false,
      "inputs": [
        {
          "indexed": true,
          "internalType": "bytes32",
          "name": "role",
          "type": "bytes32"
        },
        {
          "indexed": true,
          "internalType": "bytes32",
          "name": "previousAdminRole",
          "type": "bytes32"
        },
        {
          "indexed": true,
          "internalType": "bytes32",
          "name": "newAdminRole",
          "type": "bytes32"
        }
      ],
      "name": "RoleAdminChanged",
      "type": "event"
    },
    {
      "anonymous": false,
      "inputs": [
        {
          "indexed": true,
          "internalType": "bytes32",
          "name": "role",
          "type": "bytes32"
        },
        {
          "indexed": true,
          "internalType": "address",
          "name": "account",
          "type": "address"
        },
        {
          "indexed": true,
          "internalType": "address",
          "name": "sender",
          "type": "address"
        }
      ],
      "name": "RoleGranted",
      "type": "event"
    },
    {
      "anonymous": false,
      "inputs": [
        {
          "indexed": true,
          "internalType": "bytes32",
          "name": "role",
          "type": "bytes32"
        },
        {
          "indexed": true,
          "internalType": "address",
          "name": "account",
          "type": "address"
        },
        {
          "indexed": true,
          "internalType": "address",
          "name": "sender",
          "type": "address"
        }
      ],
      "name": "RoleRevoked",
      "type": "event"
    },
    {
      "anonymous": false,
      "inputs": [
        {
          "indexed": true,
          "internalType": "bytes32",
          "name": "teeId",
          "type": "bytes32"
        },
        {
          "indexed": true,
          "internalType": "bytes32",
          "name": "settlementHash",
          "type": "bytes32"
        }
      ],
      "name": "SettlementVerified",
      "type": "event"
    },
    {
      "anonymous": false,
      "inputs": [
        {
          "indexed": true,
          "internalType": "bytes32",
          "name": "teeId",
          "type": "bytes32"
        }
      ],
      "name": "TEEActivated",
      "type": "event"
    },
    {
      "anonymous": false,
      "inputs": [
        {
          "indexed": true,
          "internalType": "bytes32",
          "name": "teeId",
          "type": "bytes32"
        }
      ],
      "name": "TEEDeactivated",
      "type": "event"
    },
    {
      "anonymous": false,
      "inputs": [
        {
          "indexed": true,
          "internalType": "bytes32",
          "name": "teeId",
          "type": "bytes32"
        },
        {
          "indexed": true,
          "internalType": "address",
          "name": "owner",
          "type": "address"
        },
        {
          "indexed": false,
          "internalType": "uint8",
          "name": "teeType",
          "type": "uint8"
        }
      ],
      "name": "TEERegistered",
      "type": "event"
    },
    {
      "anonymous": false,
      "inputs": [
        {
          "indexed": true,
          "internalType": "uint8",
          "name": "typeId",
          "type": "uint8"
        },
        {
          "indexed": false,
          "internalType": "string",
          "name": "name",
          "type": "string"
        }
      ],
      "name": "TEETypeAdded",
      "type": "event"
    },
    {
      "anonymous": false,
      "inputs": [
        {
          "indexed": true,
          "internalType": "uint8",
          "name": "typeId",
          "type": "uint8"
        }
      ],
      "name": "TEETypeDeactivated",
      "type": "event"
    },
    {
      "inputs": [],
      "name": "DEFAULT_ADMIN_ROLE",
      "outputs": [
        {
          "internalType": "bytes32",
          "name": "",
          "type": "bytes32"
        }
      ],
      "stateMutability": "view",
      "type": "function"
    },
    {
      "inputs": [],
      "name": "FUTURE_TOLERANCE",
      "outputs": [
        {
          "internalType": "uint256",
          "name": "",
          "type": "uint256"
        }
      ],
      "stateMutability": "view",
      "type": "function"
    },
    {
      "inputs": [],
      "name": "MAX_SETTLEMENT_AGE",
      "outputs": [
        {
          "internalType": "uint256",
          "name": "",
          "type": "uint256"
        }
      ],
      "stateMutability": "view",
      "type": "function"
    },
    {
      "inputs": [],
      "name": "TEE_OPERATOR",
      "outputs": [
        {
          "internalType": "bytes32",
          "name": "",
          "type": "bytes32"
        }
      ],
      "stateMutability": "view",
      "type": "function"
    },
    {
      "inputs": [],
      "name": "VERIFIER",
      "outputs": [
        {
          "internalType": "contract ITEEVerifier",
          "name": "",
          "type": "address"
        }
      ],
      "stateMutability": "view",
      "type": "function"
    },
    {
      "inputs": [
        {
          "internalType": "bytes32",
          "name": "teeId",
          "type": "bytes32"
        }
      ],
      "name": "activateTEE",
      "outputs": [],
      "stateMutability": "nonpayable",
      "type": "function"
    },
    {
      "inputs": [
        {
          "internalType": "uint8",
          "name": "typeId",
          "type": "uint8"
        },
        {
          "internalType": "string",
          "name": "name",
          "type": "string"
        }
      ],
      "name": "addTEEType",
      "outputs": [],
      "stateMutability": "nonpayable",
      "type": "function"
    },
    {
      "inputs": [
        {
          "components": [
            {
              "internalType": "bytes",
              "name": "pcr0",
              "type": "bytes"
            },
            {
              "internalType": "bytes",
              "name": "pcr1",
              "type": "bytes"
            },
            {
              "internalType": "bytes",
              "name": "pcr2",
              "type": "bytes"
            }
          ],
          "internalType": "struct TEERegistry.PCRMeasurements",
          "name": "pcrs",
          "type": "tuple"
        },
        {
          "internalType": "string",
          "name": "version",
          "type": "string"
        },
        {
          "internalType": "bytes32",
          "name": "previousPcrHash",
          "type": "bytes32"
        },
        {
          "internalType": "uint256",
          "name": "gracePeriod",
          "type": "uint256"
        }
      ],
      "name": "approvePCR",
      "outputs": [],
      "stateMutability": "nonpayable",
      "type": "function"
    },
    {
      "inputs": [
        {
          "internalType": "bytes32",
          "name": "",
          "type": "bytes32"
        }
      ],
      "name": "approvedPCRs",
      "outputs": [
        {
          "internalType": "bool",
          "name": "active",
          "type": "bool"
        },
        {
          "internalType": "uint256",
          "name": "approvedAt",
          "type": "uint256"
        },
        {
          "internalType": "uint256",
          "name": "expiresAt",
          "type": "uint256"
        },
        {
          "internalType": "string",
          "name": "version",
          "type": "string"
        }
      ],
      "stateMutability": "view",
      "type": "function"
    },
    {
      "inputs": [],
      "name": "awsRootCertificate",
      "outputs": [
        {
          "internalType": "bytes",
          "name": "",
          "type": "bytes"
        }
      ],
      "stateMutability": "view",
      "type": "function"
    },
    {
      "inputs": [
        {
          "internalType": "bytes32",
          "name": "inputHash",
          "type": "bytes32"
        },
        {
          "internalType": "bytes32",
          "name": "outputHash",
          "type": "bytes32"
        },
        {
          "internalType": "uint256",
          "name": "timestamp",
          "type": "uint256"
        }
      ],
      "name": "computeMessageHash",
      "outputs": [
        {
          "internalType": "bytes32",
          "name": "",
          "type": "bytes32"
        }
      ],
      "stateMutability": "pure",
      "type": "function"
    },
    {
      "inputs": [
        {
          "components": [
            {
              "internalType": "bytes",
              "name": "pcr0",
              "type": "bytes"
            },
            {
              "internalType": "bytes",
              "name": "pcr1",
              "type": "bytes"
            },
            {
              "internalType": "bytes",
              "name": "pcr2",
              "type": "bytes"
            }
          ],
          "internalType": "struct TEERegistry.PCRMeasurements",
          "name": "pcrs",
          "type": "tuple"
        }
      ],
      "name": "computePCRHash",
      "outputs": [
        {
          "internalType": "bytes32",
          "name": "",
          "type": "bytes32"
        }
      ],
      "stateMutability": "pure",
      "type": "function"
    },
    {
      "inputs": [
        {
          "internalType": "bytes",
          "name": "publicKey",
          "type": "bytes"
        }
      ],
      "name": "computeTEEId",
      "outputs": [
        {
          "internalType": "bytes32",
          "name": "",
          "type": "bytes32"
        }
      ],
      "stateMutability": "pure",
      "type": "function"
    },
    {
      "inputs": [
        {
          "internalType": "bytes32",
          "name": "teeId",
          "type": "bytes32"
        }
      ],
      "name": "deactivateTEE",
      "outputs": [],
      "stateMutability": "nonpayable",
      "type": "function"
    },
    {
      "inputs": [
        {
          "internalType": "uint8",
          "name": "typeId",
          "type": "uint8"
        }
      ],
      "name": "deactivateTEEType",
      "outputs": [],
      "stateMutability": "nonpayable",
      "type": "function"
    },
    {
      "inputs": [],
      "name": "getActivePCRs",
      "outputs": [
        {
          "internalType": "bytes32[]",
          "name": "",
          "type": "bytes32[]"
        }
      ],
      "stateMutability": "view",
      "type": "function"
    },
    {
      "inputs": [],
      "name": "getActiveTEEs",
      "outputs": [
        {
          "internalType": "bytes32[]",
          "name": "",
          "type": "bytes32[]"
        }
      ],
      "stateMutability": "view",
      "type": "function"
    },
    {
      "inputs": [
        {
          "internalType": "bytes32",
          "name": "teeId",
          "type": "bytes32"
        }
      ],
      "name": "getPaymentAddress",
      "outputs": [
        {
          "internalType": "address",
          "name": "",
          "type": "address"
        }
      ],
      "stateMutability": "view",
      "type": "function"
    },
    {
      "inputs": [
        {
          "internalType": "bytes32",
          "name": "teeId",
          "type": "bytes32"
        }
      ],
      "name": "getPublicKey",
      "outputs": [
        {
          "internalType": "bytes",
          "name": "",
          "type": "bytes"
        }
      ],
      "stateMutability": "view",
      "type": "function"
    },
    {
      "inputs": [
        {
          "internalType": "bytes32",
          "name": "role",
          "type": "bytes32"
        }
      ],
      "name": "getRoleAdmin",
      "outputs": [
        {
          "internalType": "bytes32",
          "name": "",
          "type": "bytes32"
        }
      ],
      "stateMutability": "view",
      "type": "function"
    },
    {
      "inputs": [
        {
          "internalType": "bytes32",
          "name": "teeId",
          "type": "bytes32"
        }
      ],
      "name": "getTEE",
      "outputs": [
        {
          "components": [
            {
              "internalType": "address",
              "name": "owner",
              "type": "address"
            },
            {
              "internalType": "address",
              "name": "paymentAddress",
              "type": "address"
            },
            {
              "internalType": "string",
              "name": "endpoint",
              "type": "string"
            },
            {
              "internalType": "bytes",
              "name": "publicKey",
              "type": "bytes"
            },
            {
              "internalType": "bytes",
              "name": "tlsCertificate",
              "type": "bytes"
            },
            {
              "internalType": "bytes32",
              "name": "pcrHash",
              "type": "bytes32"
            },
            {
              "internalType": "uint8",
              "name": "teeType",
              "type": "uint8"
            },
            {
              "internalType": "bool",
              "name": "active",
              "type": "bool"
            },
            {
              "internalType": "uint256",
              "name": "registeredAt",
              "type": "uint256"
            },
            {
              "internalType": "uint256",
              "name": "lastUpdatedAt",
              "type": "uint256"
            }
          ],
          "internalType": "struct TEERegistry.TEEInfo",
          "name": "",
          "type": "tuple"
        }
      ],
      "stateMutability": "view",
      "type": "function"
    },
    {
      "inputs": [],
      "name": "getTEETypes",
      "outputs": [
        {
          "internalType": "uint8[]",
          "name": "typeIds",
          "type": "uint8[]"
        },
        {
          "components": [
            {
              "internalType": "string",
              "name": "name",
              "type": "string"
            },
            {
              "internalType": "bool",
              "name": "active",
              "type": "bool"
            },
            {
              "internalType": "uint256",
              "name": "addedAt",
              "type": "uint256"
            }
          ],
          "internalType": "struct TEERegistry.TEETypeInfo[]",
          "name": "infos",
          "type": "tuple[]"
        }
      ],
      "stateMutability": "view",
      "type": "function"
    },
    {
      "inputs": [
        {
          "internalType": "address",
          "name": "owner",
          "type": "address"
        }
      ],
      "name": "getTEEsByOwner",
      "outputs": [
        {
          "internalType": "bytes32[]",
          "name": "",
          "type": "bytes32[]"
        }
      ],
      "stateMutability": "view",
      "type": "function"
    },
    {
      "inputs": [
        {
          "internalType": "uint8",
          "name": "teeType",
          "type": "uint8"
        }
      ],
      "name": "getTEEsByType",
      "outputs": [
        {
          "internalType": "bytes32[]",
          "name": "",
          "type": "bytes32[]"
        }
      ],
      "stateMutability": "view",
      "type": "function"
    },
    {
      "inputs": [
        {
          "internalType": "bytes32",
          "name": "teeId",
          "type": "bytes32"
        }
      ],
      "name": "getTLSCertificate",
      "outputs": [
        {
          "internalType": "bytes",
          "name": "",
          "type": "bytes"
        }
      ],
      "stateMutability": "view",
      "type": "function"
    },
    {
      "inputs": [
        {
          "internalType": "bytes32",
          "name": "role",
          "type": "bytes32"
        },
        {
          "internalType": "address",
          "name": "account",
          "type": "address"
        }
      ],
      "name": "grantRole",
      "outputs": [],
      "stateMutability": "nonpayable",
      "type": "function"
    },
    {
      "inputs": [
        {
          "internalType": "bytes32",
          "name": "role",
          "type": "bytes32"
        },
        {
          "internalType": "address",
          "name": "account",
          "type": "address"
        }
      ],
      "name": "hasRole",
      "outputs": [
        {
          "internalType": "bool",
          "name": "",
          "type": "bool"
        }
      ],
      "stateMutability": "view",
      "type": "function"
    },
    {
      "inputs": [
        {
          "internalType": "bytes32",
          "name": "teeId",
          "type": "bytes32"
        }
      ],
      "name": "isActive",
      "outputs": [
        {
          "internalType": "bool",
          "name": "",
          "type": "bool"
        }
      ],
      "stateMutability": "view",
      "type": "function"
    },
    {
      "inputs": [
        {
          "internalType": "bytes32",
          "name": "pcrHash",
          "type": "bytes32"
        }
      ],
      "name": "isPCRApproved",
      "outputs": [
        {
          "internalType": "bool",
          "name": "",
          "type": "bool"
        }
      ],
      "stateMutability": "view",
      "type": "function"
    },
    {
      "inputs": [
        {
          "internalType": "uint8",
          "name": "typeId",
          "type": "uint8"
        }
      ],
      "name": "isValidTEEType",
      "outputs": [
        {
          "internalType": "bool",
          "name": "",
          "type": "bool"
        }
      ],
      "stateMutability": "view",
      "type": "function"
    },
    {
      "inputs": [
        {
          "internalType": "bytes",
          "name": "attestationDocument",
          "type": "bytes"
        },
        {
          "internalType": "bytes",
          "name": "signingPublicKey",
          "type": "bytes"
        },
        {
          "internalType": "bytes",
          "name": "tlsCertificate",
          "type": "bytes"
        },
        {
          "internalType": "address",
          "name": "paymentAddress",
          "type": "address"
        },
        {
          "internalType": "string",
          "name": "endpoint",
          "type": "string"
        },
        {
          "internalType": "uint8",
          "name": "teeType",
          "type": "uint8"
        }
      ],
      "name": "registerTEEWithAttestation",
      "outputs": [
        {
          "internalType": "bytes32",
          "name": "teeId",
          "type": "bytes32"
        }
      ],
      "stateMutability": "nonpayable",
      "type": "function"
    },
    {
      "inputs": [
        {
          "internalType": "bytes32",
          "name": "role",
          "type": "bytes32"
        },
        {
          "internalType": "address",
          "name": "account",
          "type": "address"
        }
      ],
      "name": "renounceRole",
      "outputs": [],
      "stateMutability": "nonpayable",
      "type": "function"
    },
    {
      "inputs": [
        {
          "internalType": "bytes32",
          "name": "pcrHash",
          "type": "bytes32"
        }
      ],
      "name": "revokePCR",
      "outputs": [],
      "stateMutability": "nonpayable",
      "type": "function"
    },
    {
      "inputs": [
        {
          "internalType": "bytes32",
          "name": "role",
          "type": "bytes32"
        },
        {
          "internalType": "address",
          "name": "account",
          "type": "address"
        }
      ],
      "name": "revokeRole",
      "outputs": [],
      "stateMutability": "nonpayable",
      "type": "function"
    },
    {
      "inputs": [
        {
          "internalType": "bytes",
          "name": "certificate",
          "type": "bytes"
        }
      ],
      "name": "setAWSRootCertificate",
      "outputs": [],
      "stateMutability": "nonpayable",
      "type": "function"
    },
    {
      "inputs": [
        {
          "internalType": "bytes32",
          "name": "",
          "type": "bytes32"
        }
      ],
      "name": "settlementUsed",
      "outputs": [
        {
          "internalType": "bool",
          "name": "",
          "type": "bool"
        }
      ],
      "stateMutability": "view",
      "type": "function"
    },
    {
      "inputs": [
        {
          "internalType": "bytes4",
          "name": "interfaceId",
          "type": "bytes4"
        }
      ],
      "name": "supportsInterface",
      "outputs": [
        {
          "internalType": "bool",
          "name": "",
          "type": "bool"
        }
      ],
      "stateMutability": "view",
      "type": "function"
    },
    {
      "inputs": [
        {
          "internalType": "uint8",
          "name": "",
          "type": "uint8"
        }
      ],
      "name": "teeTypes",
      "outputs": [
        {
          "internalType": "string",
          "name": "name",
          "type": "string"
        },
        {
          "internalType": "bool",
          "name": "active",
          "type": "bool"
        },
        {
          "internalType": "uint256",
          "name": "addedAt",
          "type": "uint256"
        }
      ],
      "stateMutability": "view",
      "type": "function"
    },
    {
      "inputs": [
        {
          "internalType": "bytes32",
          "name": "",
          "type": "bytes32"
        }
      ],
      "name": "tees",
      "outputs": [
        {
          "internalType": "address",
          "name": "owner",
          "type": "address"
        },
        {
          "internalType": "address",
          "name": "paymentAddress",
          "type": "address"
        },
        {
          "internalType": "string",
          "name": "endpoint",
          "type": "string"
        },
        {
          "internalType": "bytes",
          "name": "publicKey",
          "type": "bytes"
        },
        {
          "internalType": "bytes",
          "name": "tlsCertificate",
          "type": "bytes"
        },
        {
          "internalType": "bytes32",
          "name": "pcrHash",
          "type": "bytes32"
        },
        {
          "internalType": "uint8",
          "name": "teeType",
          "type": "uint8"
        },
        {
          "internalType": "bool",
          "name": "active",
          "type": "bool"
        },
        {
          "internalType": "uint256",
          "name": "registeredAt",
          "type": "uint256"
        },
        {
          "internalType": "uint256",
          "name": "lastUpdatedAt",
          "type": "uint256"
        }
      ],
      "stateMutability": "view",
      "type": "function"
    },
    {
      "inputs": [
        {
          "internalType": "bytes32",
          "name": "teeId",
          "type": "bytes32"
        },
        {
          "internalType": "bytes32",
          "name": "inputHash",
          "type": "bytes32"
        },
        {
          "internalType": "bytes32",
          "name": "outputHash",
          "type": "bytes32"
        },
        {
          "internalType": "uint256",
          "name": "timestamp",
          "type": "uint256"
        },
        {
          "internalType": "bytes",
          "name": "signature",
          "type": "bytes"
        }
      ],
      "name": "verifySettlement",
      "outputs": [
        {
          "internalType": "bool",
          "name": "",
          "type": "bool"
        }
      ],
      "stateMutability": "nonpayable",
      "type": "function"
    },
    {
      "inputs": [
        {
          "internalType": "bytes32",
          "name": "teeId",
          "type": "bytes32"
        },
        {
          "internalType": "bytes32",
          "name": "inputHash",
          "type": "bytes32"
        },
        {
          "internalType": "bytes32",
          "name": "outputHash",
          "type": "bytes32"
        },
        {
          "internalType": "uint256",
          "name": "timestamp",
          "type": "uint256"
        },
        {
          "internalType": "bytes",
          "name": "signature",
          "type": "bytes"
        }
      ],
      "name": "verifySignature",
      "outputs": [
        {
          "internalType": "bool",
          "name": "",
          "type": "bool"
        }
      ],
      "stateMutability": "view",
      "type": "function"
    }
  ],
  "bytecode": "0x608060408181523462000118575f908180526001602091838352808420338552835260ff818520541615620000e2575b837fae5084c516dacf3f1a818c437d702c28b8d2088455f592a7ea799413e3b6f1bf93848252818152828220338352815260ff838320541615620000ac575b848252528320019082825492557fbd79b86ffe0ab8e8776151514217cd7cacd52c909f66475c3af44e129f0b00ff8380a46131f890816200011d8239f35b84825281815282822033835281528282208460ff198254161790553333865f80516020620033158339815191528580a46200006e565b83805283835280842033855283528084208260ff198254161790553333855f80516020620033158339815191528180a46200002f565b5f80fdfe6080806040526004361015610012575f80fd5b5f3560e01c90816301ffc9a7146124995750806308c84e701461247d578063097775c61461246157806315c9bdb414611c50578063248a9ca314611c245780632f2ff15d14611b7f57806336568abe14611aed5780633c1a88b014611ab3578063418b207d146118d657806343ed32741461177d578063476cb0301461173f5780634b19d463146116b857806358db61a8146116995780635c36901c14611664578063643d8cb51461153b5780639138c99e146114e557806391cc00e91461149b57806391d1485414611453578063971cfbf114610d23578063a217fddf14610d09578063b19ffd1c14610c9c578063b1c551ca14610c50578063b348303f14610c34578063b778f86914610bd6578063b82644b714610b69578063c0abde4514610917578063c206baa3146108eb578063c855bcc4146108bc578063cbdfc4e0146106b5578063ccdf0493146105b0578063d046a7fa14610539578063d2e034271461043f578063d547741f14610403578063d5ed579d146103db578063d6741a4214610366578063dd31611314610348578063de3c80051461032c578063e10a2ea4146102f2578063e44cc4821461026f578063f33d2c00146102255763f44a0780146101df575f80fd5b34610221575f3660031901126102215761021d60405161020981610202816125fb565b038261275e565b604051918291602083526020830190612560565b0390f35b5f80fd5b34610221576020366003190112610221576004356001600160401b0381116102215761026161025a60209236906004016124ec565b3691612bc7565b818151910120604051908152f35b3461022157602080600319360112610221576004356001600160a01b03811690819003610221575f526009815260405f209060405190818184549182815201935f52815f20915f905b8282106102db5761021d856102cf8189038261275e565b6040519182918261277f565b8354865294850194600193840193909101906102b8565b346102215760203660031901126102215760ff61030d61252f565b165f526001602052602060ff600160405f200154166040519015158152f35b34610221575f366003190112610221576020604051610e108152f35b3461022157602036600319011261022157610364600435612e64565b005b346102215760203660031901126102215760ff61038161252f565b165f5260016020526103ca60405f20604051906103a9826103a2818461267b565b038361275e565b600260ff600183015416910154604051938493606085526060850190612560565b911515602084015260408301520390f35b346102215760203660031901126102215760206103f9600435612d7a565b6040519015158152f35b3461022157604036600319011261022157610364600435610422612519565b90805f525f60205261043a600160405f200154612984565b612a8c565b34610221575f366003190112610221575f80600454905b8181106104f9575061046782612cc4565b91610475604051938461275e565b808352610484601f1991612cc4565b013660208401375f805b8281106104a3576040518061021d868261277f565b806104c16104b36104cc93612cfd565b919054600392831b1c612d7a565b6104d1575b50612cdb565b61048e565b6104da82612cfd565b9054911b1c6104f26104eb85612cdb565b9487612ce9565b52856104c6565b61051161050582612cfd565b90549060031b1c612d7a565b610524575b61051f90612cdb565b610456565b9161053161051f91612cdb565b929050610516565b34610221575f36600319011261022157604051600780548083525f918252602080840193927fa66cc928b5edb82af9bd49922954155ab7b0942694bea4ce44661d9a8736c68892915b8282106105995761021d856102cf8189038261275e565b835486529485019460019384019390910190610582565b34610221576020366003190112610221576004355f52600660205260405f2060018060a01b038082541690600183015416916040516105f681610202816002860161267b565b604051916106128361060b816003850161267b565b038461275e565b60ff6040519361063085610629816004870161267b565b038661275e565b61068c60058401549561067e60068601549361067060086007890154980154986040519c8d9c8d5260208d015260408c61014091829101528c0190612560565b908a820360608c0152612560565b9088820360808a0152612560565b9460a087015281811660c087015260081c16151560e08501526101008401526101208301520390f35b34610221576040366003190112610221576106ce61252f565b6001600160401b0390602435828111610221576106f160ff9136906004016124ec565b9190926106fc6127b9565b1692835f52600192602091848352600260405f2001546108aa576040519061072382612728565b61072e368685612bc7565b82528382018681526040830191428352885f5287865260405f2093518051918211610820576107678261076187546125c3565b87612c22565b8690601f831160011461083f57918060029594926107b0945f92610834575b50505f19600383901b1c1916908a1b1785555b5115158885019060ff801983541691151516179055565b5191015560025490600160401b821015610820576107f7827fed0161664cf318441e585cccad9fa9fc770298b648a49635dda84ac6f0adc9089661081b9401600255612c67565b81549060031b9060ff89831b921b1916179055604051938385948552840191612ca4565b0390a2005b634e487b7160e01b5f52604160045260245ffd5b015190508c80610786565b899291601f19831691875f52895f20925f5b8b828210610894575050916107b0959391856002999896941061087c575b505050811b018555610799565b01515f1960f88460031b161c191690558c808061086f565b8385015186558e97909501949384019301610851565b60405163095faf7360e01b8152600490fd5b34610221576020366003190112610221576004355f52600b602052602060ff60405f2054166040519015158152f35b3461022157606036600319011261022157602061090f604435602435600435613189565b604051908152f35b346102215760031960803682011261022157600435906001600160401b039081831161022157606090833603011261022157602435818111610221576109619036906004016124ec565b909161097a604435946109726127b9565b600401612ded565b9380151580610b53575b610b1d575b5060405192608084018481108382111761082057604052600193848152602092600384830192428452604081015f81526109c4368988612bc7565b94606083019586528a5f528388526109ef60405f2093511515849060ff801983541691151516179055565b51898301555160028201550191518051918211610820578190610a1c82610a1686546125c3565b86612c22565b8590601f8311600114610abe575f92610ab3575b50505f19600383901b1c191690861b1790555b60045490600160401b8210156108205785610aa0610a8a847fa3cbee87ba6def0cc8a2c5a3cf7a54f0209c6f939b07979dde08d447d6c3666d9861081b9601600455612cfd565b819391549060031b91821b915f19901b19161790565b9055604051938385948552840191612ca4565b015190508880610a30565b90889350601f19831691855f52875f20925f5b89828210610b075750508411610aef575b505050811b019055610a43565b01515f1960f88460031b161c19169055888080610ae2565b8385015186558c97909501949384019301610ad1565b606435420190814211610b3f575f526003602052600260405f20015584610989565b634e487b7160e01b5f52601160045260245ffd5b50805f52600360205260ff60405f205416610984565b34610221576020806003193601126102215760ff610b8561252f565b165f52600a815260405f209060405190818184549182815201935f52815f20915f905b828210610bbf5761021d856102cf8189038261275e565b835486529485019460019384019390910190610ba8565b3461022157602036600319011261022157600435805f526006602052600760405f20015415610c22575f52600660205261021d610202610209600460405f20016040519283809261267b565b60405163f6523b6560e01b8152600490fd5b34610221575f36600319011261022157602060405161012c8152f35b3461022157602036600319011261022157600435805f526006602052600760405f20015415610c22575f52600660205261021d610202610209600360405f20016040519283809261267b565b34610221576020366003190112610221576004355f52600360205260405f2060ff81541661021d6003600184015493610ce46002820154916103a2604051809581930161267b565b6040519485941515855260208501526040840152608060608401526080830190612560565b34610221575f3660031901126102215760206040515f8152f35b34610221575f366003190112610221576040518060029182549081835260208093019283855f528282805f20925f5b8780601f8301106112cb57610e72955491848282106112b8575b8282106112a2575b82821061128c575b828210611276575b828210611261575b82821061124b575b828210611235575b82821061121f575b828210611209575b8282106111f3575b8282106111dd575b8282106111c7575b8282106111b1575b82821061119b575b828210611185575b82821061116f575b828210611159575b828210611143575b82821061112d575b828210611117575b828210611101575b8282106110eb575b8282106110d5575b8282106110bf575b8282106110a9575b828210611093575b82821061107d575b828210611067575b828210611051575b82821061103b575b828210611025575b5010611017575b5090509693929596038261275e565b610e7b83612cc4565b92610e89604051948561275e565b808452601f199283610e9a83612cc4565b015f5b818110610fe55750505f5b828110610f6857505050604051936040850191604086525180925260609182860196905f5b818110610f5157505050848603818601528351918287528187019082808560051b8a01019601945f985b858a10610f045788880389f35b909192939495968580828585600195030188528a5190604080610f2e84518b85528b850190612560565b938581015115158685015201519101529901950199019892919095949395610ef7565b825160ff1689529783019791830191600101610ecd565b80610f7a610fdb929998959699612c67565b9060ff918291549060031b1c165f528360019182885260405f209060405193610fa285612728565b604051610fb381610202818761267b565b85528201541615158884015201546040820152610fd08289612ce9565b526104c68188612ce9565b9693929596610ea8565b968094959897604051610ff781612728565b606081525f838201525f604082015282828a010152019794939697610e9d565b60f81c815201839089610e63565b6001919460ff8560f01c16815201930184610e5c565b6001919460ff8560e81c16815201930184610e54565b6001919460ff8560e01c16815201930184610e4c565b6001919460ff8560d81c16815201930184610e44565b6001919460ff8560d01c16815201930184610e3c565b6001919460ff8560c81c16815201930184610e34565b6001919460ff8560c01c16815201930184610e2c565b6001919460ff8560b81c16815201930184610e24565b6001919460ff8560b01c16815201930184610e1c565b6001919460ff8560a81c16815201930184610e14565b6001919460ff8560a01c16815201930184610e0c565b6001919460ff8560981c16815201930184610e04565b6001919460ff8560901c16815201930184610dfc565b6001919460ff8560881c16815201930184610df4565b6001919460ff8560801c16815201930184610dec565b6001919460ff8560781c16815201930184610de4565b6001919460ff8560701c16815201930184610ddc565b6001919460ff8560681c16815201930184610dd4565b6001919460ff8560601c16815201930184610dcc565b6001919460ff8560581c16815201930184610dc4565b6001919460ff8560501c16815201930184610dbc565b6001919460ff8560481c16815201930184610db4565b6001919460ff8560401c16815201930184610dac565b6001919460ff8560381c16815201930184610da4565b6001919460ff8560301c16815201930184610d9c565b6001919460ff8560281c16815201930184610d94565b6001919460ff85831c16815201930184610d8c565b6001919460ff8560181c16815201930184610d84565b6001919460ff8560101c16815201930184610d7c565b6001919460ff8560081c16815201930184610d74565b6001919460ff8516815201930184610d6c565b509250610400600191855460ff8082168352808260081c1686840152808260101c16604084015280828482826060828260181c168185015282828d82826080921c1681880152828260a095828260281c16878b015260c099838360301c168b820152838360381c1660e0820152838360401c16610100820152838360481c16610120820152838360501c16610140820152610160848460581c169101521c166101808d0152828260681c166101a08d0152828260701c166101c08d0152828260781c166101e08d01521c166102008a0152828260881c166102208a0152828260901c166102408a0152828260981c166102608a01521c16610280870152828260a81c166102a0870152828260b01c166102c0870152828260b81c166102e08701521c16610300840152808260c81c16610320840152808260d01c16610340840152808260d81c16610360840152808260e01c16610380840152808260e81c166103a08401528160f01c166103c083015260f81c6103e082015201930191018491928491610d52565b346102215760403660031901126102215761146c612519565b6004355f525f60205260405f209060018060a01b03165f52602052602060ff60405f2054166040519015158152f35b3461022157602036600319011261022157600435805f526006602052600760405f20015415610c22575f526006602052602060018060a01b03600160405f20015416604051908152f35b34610221576020366003190112610221576004356115016127b9565b805f52600360205260405f2060ff1981541690557f021cbdaf8e2ddc626ca016468398743e833c1d67b00106b10077757586679a205f80a2005b346102215761154936612585565b91610e0f959395194201428111610b3f5781106116525761012c4201804211610b3f5781116116405760405195602087018581528660408901528160608901528260808901526080885260a08801978089106001600160401b038a1117610820578860405251902095865f52600b60205260ff60405f20541661163157856115d3969798506130ad565b1561161f57816020925f52600b835260405f20600160ff19825416179055604051917fa01d6f73b605f49667014b1d3d37ec01d0b7dce889375902112d267976765aeb5f80a360018152f35b604051638baa579f60e01b8152600490fd5b63043881e960e11b8852600488fd5b6040516347860b9760e01b8152600490fd5b60405163d40fc74b60e01b8152600490fd5b34610221576020366003190112610221576004355f526006602052602060ff600660405f20015460081c166040519015158152f35b346102215760206103f96116ac36612585565b949390939291926130ad565b346102215760203660031901126102215760ff6116d361252f565b6116db6127b9565b16805f526001602052600260405f2001541561172e57805f526001602052600160405f200160ff1981541690557f30e2b43b128fac88e776d92f693d539845d727cdb1978017ddff47a2e5319a035f80a2005b604051629f97d960e31b8152600490fd5b346102215760031960203682011261022157600435906001600160401b0382116102215760609082360301126102215761090f602091600401612ded565b3461022157602080600319360112610221576001600160401b03600435818111610221576117af9036906004016124ec565b916117b86127b9565b8211610820576005916117cb83546125c3565b601f811161189f575b505f92601f821160011461183d5781611807945f91611832575b508260011b905f198460031b1c19161790553691612bc7565b80519101207f378c4547bd8b346276ae1db9e298d984a43bd8788ad795e7a141ba069045f4cb5f80a2005b9050830135866117ee565b601f19821693815f52855f20905f5b87878210611889575050836118079610611870575b5050600182811b01905561025a565b8401355f19600385901b60f8161c191690558580611861565b600183948293948901358155019301910161184c565b6118c690845f52855f20601f8401861c8101918785106118cc575b601f01861c0190612c0c565b846117d4565b90915081906118ba565b34610221576020366003190112610221576004355f6101206040516118fa8161270c565b82815282602082015260606040820152606080820152606060808201528260a08201528260c08201528260e0820152826101008201520152805f526006602052600760405f20015415610c22575f52600660205260405f206008604051916119618361270c565b80546001600160a01b039081168452600182015416602084015260405161198f81610202816002860161267b565b60408401526040516119a881610202816003860161267b565b60608401526040516119c181610202816004860161267b565b6080840152600581015460a084015260ff600682015481811660c0860152831c16151560e08401526007810154610100840152015461012082015260405180916020825260018060a01b03815116602083015260018060a01b0360208201511660408301526040810151610120611a7a611a4961014093846060880152610160870190612560565b611a65606086015191601f1992838983030160808a0152612560565b906080860151908783030160a0880152612560565b9260a081015160c086015260ff60c08201511660e086015260e08101511515610100860152610100810151828601520151908301520390f35b34610221575f3660031901126102215760206040517fae5084c516dacf3f1a818c437d702c28b8d2088455f592a7ea799413e3b6f1bf8152f35b3461022157604036600319011261022157611b06612519565b336001600160a01b03821603611b225761036490600435612a8c565b60405162461bcd60e51b815260206004820152602f60248201527f416363657373436f6e74726f6c3a2063616e206f6e6c792072656e6f756e636560448201526e103937b632b9903337b91039b2b63360891b6064820152608490fd5b3461022157604036600319011261022157600435611b9b612519565b815f525f602052611bb2600160405f200154612984565b815f525f60205260405f209060018060a01b031690815f5260205260ff60405f20541615611bdc57005b815f525f60205260405f20815f5260205260405f20600160ff1982541617905533917f2f8788117e7eff1d82e926ec794901d17c78024a50270940304540a733656f0d5f80a4005b34610221576020366003190112610221576004355f525f6020526020600160405f200154604051908152f35b346102215760c0366003190112610221576004356001600160401b03811161022157611c809036906004016124ec565b6024356001600160401b03811161022157611c9f9036906004016124ec565b90926044356001600160401b03811161022157611cc09036906004016124ec565b6064359591906001600160a01b0387168703610221576001600160401b036084351161022157611cf5366084356004016124ec565b909360a4359660ff8816880361022157335f9081527f04824ce33f8c803f181be3cbd8c64c21a81bc533fe6d4b921df175b0eaf5cbeb602052604090205460ff16156122ae5760ff88165f52600160205260ff600160405f200154161561229c57611d61368284612bc7565b6020815191012098895f526006602052600760405f20015461228a57611daf97604091611de6611dd5611dc285519c8d95869563f7cf40d360e01b8752608060048801526084870191612ca4565b8481036003190160248601528789612ca4565b838103600319016044850152898b612ca4565b8281036003190160648401526125fb565b03816109005afa96871561227f575f905f9861223e575b50156121f857611e0c87612d7a565b156121e757611e44611e5c96611e509460209c6040519d8e91611e2e8361270c565b3383526001600160a01b03169101523691612bc7565b60408b01523691612bc7565b60608801523691612bc7565b608085015260a084015260ff811660c0840152600160e084018190524261010085018190526101208501525f83815260066020908152604091829020865181546001600160a01b03199081166001600160a01b03928316178355928801519482018054909316941693909317905584015180516001600160401b03811161082057806002840192611ef182610a1686546125c3565b602090601f8311600114612183575f92612178575b50508160011b915f199060031b1c19161790555b606084015180516001600160401b03811161082057806003840192611f4382610a1686546125c3565b602090601f8311600114612114575f92612109575b50508160011b915f199060031b1c19161790555b60808401519384516001600160401b03811161082057602095611f9f82611f9660048701546125c3565b60048701612c22565b8690601f831160011461209957918060089492610120945f9261208e575b50508160011b915f199060031b1c19161760048501555b60a081015160058501556006840160ff60c08301511681549061ff0060e08501511515871b169161ffff19161717905561010081015160078501550151910155600754825f526008845260405f205561202c82612d2d565b335f52600983526120408260405f20612d53565b60ff81165f52600a83526120578260405f20612d53565b60ff60405191168152817f97d0af70a4d2c616e9c1093d5f57c8b31b3a7d824f1d335e5d5416402ec14931843393a3604051908152f35b015190508980611fbd565b90600485015f52875f20915f5b601f19851681106120f2575092600894926001926101209583601f198116106120da575b505050811b016004850155611fd4565b01515f1960f88460031b161c191690558980806120ca565b9192896001819286850151815501940192016120a6565b015190508780611f58565b5f858152602081209350601f198516905b8181106121605750908460019594939210612148575b505050811b019055611f6c565b01515f1960f88460031b161c1916905587808061213b565b92936020600181928786015181550195019301612125565b015190508780611f06565b5f858152602081209350601f198516905b8181106121cf57509084600195949392106121b7575b505050811b019055611f1a565b01515f1960f88460031b161c191690558780806121aa565b92936020600181928786015181550195019301612194565b60405162d85d7f60e71b8152600490fd5b604051630368f92d60e11b815260206004820152601f60248201527f4174746573746174696f6e20766572696669636174696f6e206661696c6564006044820152606490fd5b9750506040873d604011612277575b8161225a6040938361275e565b8101031261022157602061226d88612e57565b970151968b611dfd565b3d915061224d565b6040513d5f823e3d90fd5b604051631346e43960e01b8152600490fd5b604051635d672da760e01b8152600490fd5b6122b733612b10565b604051907fae5084c516dacf3f1a818c437d702c28b8d2088455f592a7ea799413e3b6f1bf6122e583612743565b604283526020830190606036833783511561244d5760308253835160019081101561244d57607860218601536041905b80821161240a5750506123c6576048612393926123a2926123c29560405195869376020b1b1b2b9b9a1b7b73a3937b61d1030b1b1b7bab73a1604d1b602086015261236a81518092602060378901910161253f565b8401917001034b99036b4b9b9b4b733903937b6329607d1b60378401525180938684019061253f565b0103602881018452018261275e565b60405162461bcd60e51b8152602060048201529182916024830190612560565b0390fd5b606460405162461bcd60e51b815260206004820152602060248201527f537472696e67733a20686578206c656e67746820696e73756666696369656e746044820152fd5b9091600f8116601081101561244d576f181899199a1a9b1b9c1cb0b131b232b360811b901a6124398488612aff565b5360041c918015610b3f575f190190612315565b634e487b7160e01b5f52603260045260245ffd5b3461022157602036600319011261022157610364600435612fd3565b34610221575f3660031901126102215760206040516109008152f35b34610221576020366003190112610221576004359063ffffffff60e01b821680920361022157602091637965db0b60e01b81149081156124db575b5015158152f35b6301ffc9a760e01b149050836124d4565b9181601f84011215610221578235916001600160401b038311610221576020838186019501011161022157565b602435906001600160a01b038216820361022157565b6004359060ff8216820361022157565b5f5b8381106125505750505f910152565b8181015183820152602001612541565b906020916125798151809281855285808601910161253f565b601f01601f1916010190565b60a06003198201126102215760043591602435916044359160643591608435906001600160401b038211610221576125bf916004016124ec565b9091565b90600182811c921680156125f1575b60208310146125dd57565b634e487b7160e01b5f52602260045260245ffd5b91607f16916125d2565b6005545f929161260a826125c3565b9081815260019283811690815f14612660575060011461262957505050565b9092935060055f52602092835f2092845f945b83861061264c5750505050010190565b80548587018301529401938590820161263c565b91935050602093945060ff191683830152151560051b010190565b905f929180549161268b836125c3565b9182825260019384811690815f146126e957506001146126ac575b50505050565b90919394505f52602092835f2092845f945b8386106126d557505050500101905f8080806126a6565b8054858701830152940193859082016126be565b9294505050602093945060ff191683830152151560051b0101905f8080806126a6565b61014081019081106001600160401b0382111761082057604052565b606081019081106001600160401b0382111761082057604052565b608081019081106001600160401b0382111761082057604052565b90601f801991011681019081106001600160401b0382111761082057604052565b602090816040818301928281528551809452019301915f5b8281106127a5575050505090565b835185529381019392810192600101612797565b335f9081527fad3228b676f7d3cd4284a5443f17f1962b36e491b30a40b2405849e597ba5fb5602090815260408083205490929060ff16156127fa57505050565b61280333612b10565b908084519061281182612743565b6042825284820192606036853782511561297057603084538251906001918210156129705790607860218501536041915b818311612903575050506128c15760486123c29386936128a593612896985198899376020b1b1b2b9b9a1b7b73a3937b61d1030b1b1b7bab73a1604d1b8a86015261236a815180928c60378901910161253f565b0103602881018752018561275e565b5192839262461bcd60e51b845260048401526024830190612560565b60648486519062461bcd60e51b825280600483015260248201527f537472696e67733a20686578206c656e67746820696e73756666696369656e746044820152fd5b909192600f8116601081101561295c576f181899199a1a9b1b9c1cb0b131b232b360811b901a6129338587612aff565b5360041c928015612948575f19019190612842565b634e487b7160e01b82526011600452602482fd5b634e487b7160e01b83526032600452602483fd5b634e487b7160e01b81526032600452602490fd5b5f90808252602090828252604092838120338252835260ff8482205416156129ac5750505050565b6129b533612b10565b918451906129c282612743565b6042825284820192606036853782511561297057603084538251906001918210156129705790607860218501536041915b818311612a47575050506128c15760486123c29386936128a593612896985198899376020b1b1b2b9b9a1b7b73a3937b61d1030b1b1b7bab73a1604d1b8a86015261236a815180928c60378901910161253f565b909192600f8116601081101561295c576f181899199a1a9b1b9c1cb0b131b232b360811b901a612a778587612aff565b5360041c928015612948575f190191906129f3565b905f9180835282602052604083209160018060a01b03169182845260205260ff604084205416612abb57505050565b80835282602052604083208284526020526040832060ff1981541690557ff6391f5c32d9c69d2a47ea670b442974b53935d1edc7fd64eb21e047a839171b339380a4565b90815181101561244d570160200190565b60405190612b1d82612728565b602a825260208201604036823782511561244d5760309053815160019081101561244d57607860218401536029905b808211612b5c5750506123c65790565b9091600f81166010811015612bb3576f181899199a1a9b1b9c1cb0b131b232b360811b901a612b8b8486612aff565b5360041c918015612b9f575f190190612b4c565b60245f634e487b7160e01b81526011600452fd5b60245f634e487b7160e01b81526032600452fd5b9291926001600160401b0382116108205760405191612bf0601f8201601f19166020018461275e565b829481845281830111610221578281602093845f960137010152565b818110612c17575050565b5f8155600101612c0c565b9190601f8111612c3157505050565b612c5b925f5260205f20906020601f840160051c83019310612c5d575b601f0160051c0190612c0c565b565b9091508190612c4e565b9060025482101561244d5760025f52600582901c7f405787fa12a823e0f2b7631cc41b3ba8828b3321ca811111fa75cd3aa3bb5ace0191601f1690565b908060209392818452848401375f828201840152601f01601f1916010190565b6001600160401b0381116108205760051b60200190565b5f198114610b3f5760010190565b805182101561244d5760209160051b010190565b60045481101561244d5760045f5260205f2001905f90565b60075481101561244d5760075f5260205f2001905f90565b600754600160401b81101561082057610a8a816001612d4f9301600755612d15565b9055565b805490600160401b821015610820576001820180825582101561244d575f5260205f200155565b5f52600360205260405f2060ff81541615612db657600201548015159081612dab575b50612da757600190565b5f90565b90504210155f612d9d565b505f90565b903590601e198136030182121561022157018035906001600160401b0382116102215760200191813603831361022157565b612e1c612e51612dfd8380612dbb565b602094919491612e0f83820182612dbb565b9582604088940190612dbb565b9283919260405198868a978989019c8d378701918883015f81523701918583015f815237015f8382015203808452018261275e565b51902090565b5190811515820361022157565b5f818152602060068152604090818320600781015415612fc25780546001600160a01b031633141580612fa6575b612f955760068101805460ff8160081c1615612f8c5761ff0019169055426008918201558484528152818320546007545f199190828101908111612f7857808203612f48575b50506007548015612f345784939192837f784ce1077bc44f5b33e1724f6a1b9469423f16a15680c26d150787fb36349d1796946008930190612f1982612d15565b909182549160031b1b191690556007558684525281205580a2565b634e487b7160e01b85526031600452602485fd5b612f5190612d15565b90549060031b1c80612f65610a8a84612d15565b9055855260088352838520555f80612ed8565b634e487b7160e01b86526011600452602486fd5b50505050505050565b82516398b31e6f60e01b8152600490fd5b50838052838252828420338552825260ff838520541615612e92565b825163f6523b6560e01b8152600490fd5b5f81815260066020526040908181209160078301541561309d5782546001600160a01b03163314158061307f575b61306f57600683019283549360ff8560081c16613067576101007ff1107fa7ae6c5cdb1675a2191d02d30d03220d684e051e5c0632ca0458fe79749561ff00191617905560084291015560075490848352600860205282205561306383612d2d565b80a2565b505050505050565b516398b31e6f60e01b8152600490fd5b508180528160205280822033835260205260ff818320541615613001565b5163f6523b6560e01b8152600490fd5b949092915f9586526006602052604086209160ff600684015460081c1615613180576130e26131099461312093602097613189565b906040519687958695633f1333cd60e11b875260606004880152600360648801910161267b565b926024860152600319858403016044860152612ca4565b03816109005afa91821561317457809261313957505090565b9091506020823d821161316c575b816131546020938361275e565b81010312613169575061316690612e57565b90565b80fd5b3d9150613147565b604051903d90823e3d90fd5b50505050505090565b9160405191602083019384526040830152606082015260608152608081018181106001600160401b03821117610820576040525190209056fea2646970667358221220f26fdad330a13a39a24cbee89ef55eae5f3eae0ca7d4a665b6fcd048eb1a72d864736f6c634300081400332f8788117e7eff1d82e926ec794901d17c78024a50270940304540a733656f0d",
  "linkReferences": {},
  "deployedLinkReferences": {},
  "immutableReferences": {},
  "inputSourceName": "project/solidity/TEERegistry.sol",
  "buildInfoId": "solc-0_8_20-da099a34077f992f9f0e612dff150b59583b5220"
}