{
  "_format": "hh3-artifact-1",
  "contractName": "TEERegistry",
  "sourceName": "solidity/TEERegistry.sol",
  "abi": [
    {
      "inputs": [],
      "stateMutability": "nonpayable",
      "type": "constructor"
    },
    {
      "inputs": [],
      "name": "AccessControlBadConfirmation",
      "type": "error"
    },
    {
      "inputs": [
        {
          "internalType": "address",
          "name": "account",
          "type": "address"
        },
        {
          "internalType": "bytes32",
          "name": "neededRole",
          "type": "bytes32"
        }
      ],
      "name": "AccessControlUnauthorizedAccount",
      "type": "error"
    },
    {
      "inputs": [
        {
          "internalType": "string",
          "name": "reason",
          "type": "string"
        }
      ],
      "name": "AttestationInvalid",
      "type": "error"
    },
    {
      "inputs": [],
      "name": "InvalidTEEType",
      "type": "error"
    },
    {
      "inputs": [
        {
          "internalType": "string",
          "name": "reason",
          "type": "string"
        }
      ],
      "name": "KeyBindingFailed",
      "type": "error"
    },
    {
      "inputs": [],
      "name": "NotTEEOwner",
      "type": "error"
    },
    {
      "inputs": [],
      "name": "PCRAlreadyExists",
      "type": "error"
    },
    {
      "inputs": [],
      "name": "PCRExpired",
      "type": "error"
    },
    {
      "inputs": [],
      "name": "PCRNotApproved",
      "type": "error"
    },
    {
      "inputs": [],
      "name": "PCRTypeMismatch",
      "type": "error"
    },
    {
      "inputs": [],
      "name": "TEEAlreadyExists",
      "type": "error"
    },
    {
      "inputs": [],
      "name": "TEENotActive",
      "type": "error"
    },
    {
      "inputs": [],
      "name": "TEENotFound",
      "type": "error"
    },
    {
      "inputs": [],
      "name": "TEETypeExists",
      "type": "error"
    },
    {
      "inputs": [],
      "name": "TEETypeNotFound",
      "type": "error"
    },
    {
      "anonymous": false,
      "inputs": [
        {
          "indexed": true,
          "internalType": "bytes32",
          "name": "certHash",
          "type": "bytes32"
        }
      ],
      "name": "AWSCertificateUpdated",
      "type": "event"
    },
    {
      "anonymous": false,
      "inputs": [
        {
          "indexed": true,
          "internalType": "bytes32",
          "name": "pcrHash",
          "type": "bytes32"
        },
        {
          "indexed": true,
          "internalType": "uint8",
          "name": "teeType",
          "type": "uint8"
        },
        {
          "indexed": false,
          "internalType": "string",
          "name": "version",
          "type": "string"
        }
      ],
      "name": "PCRApproved",
      "type": "event"
    },
    {
      "anonymous": false,
      "inputs": [
        {
          "indexed": true,
          "internalType": "bytes32",
          "name": "pcrHash",
          "type": "bytes32"
        },
        {
          "indexed": false,
          "internalType": "uint256",
          "name": "gracePeriod",
          "type": "uint256"
        }
      ],
      "name": "PCRRevoked",
      "type": "event"
    },
    {
      "anonymous": false,
      "inputs": [
        {
          "indexed": true,
          "internalType": "bytes32",
          "name": "role",
          "type": "bytes32"
        },
        {
          "indexed": true,
          "internalType": "bytes32",
          "name": "previousAdminRole",
          "type": "bytes32"
        },
        {
          "indexed": true,
          "internalType": "bytes32",
          "name": "newAdminRole",
          "type": "bytes32"
        }
      ],
      "name": "RoleAdminChanged",
      "type": "event"
    },
    {
      "anonymous": false,
      "inputs": [
        {
          "indexed": true,
          "internalType": "bytes32",
          "name": "role",
          "type": "bytes32"
        },
        {
          "indexed": true,
          "internalType": "address",
          "name": "account",
          "type": "address"
        },
        {
          "indexed": true,
          "internalType": "address",
          "name": "sender",
          "type": "address"
        }
      ],
      "name": "RoleGranted",
      "type": "event"
    },
    {
      "anonymous": false,
      "inputs": [
        {
          "indexed": true,
          "internalType": "bytes32",
          "name": "role",
          "type": "bytes32"
        },
        {
          "indexed": true,
          "internalType": "address",
          "name": "account",
          "type": "address"
        },
        {
          "indexed": true,
          "internalType": "address",
          "name": "sender",
          "type": "address"
        }
      ],
      "name": "RoleRevoked",
      "type": "event"
    },
    {
      "anonymous": false,
      "inputs": [
        {
          "indexed": true,
          "internalType": "bytes32",
          "name": "teeId",
          "type": "bytes32"
        }
      ],
      "name": "TEEActivated",
      "type": "event"
    },
    {
      "anonymous": false,
      "inputs": [
        {
          "indexed": true,
          "internalType": "bytes32",
          "name": "teeId",
          "type": "bytes32"
        }
      ],
      "name": "TEEDeactivated",
      "type": "event"
    },
    {
      "anonymous": false,
      "inputs": [
        {
          "indexed": true,
          "internalType": "bytes32",
          "name": "teeId",
          "type": "bytes32"
        },
        {
          "indexed": true,
          "internalType": "address",
          "name": "owner",
          "type": "address"
        },
        {
          "indexed": false,
          "internalType": "uint8",
          "name": "teeType",
          "type": "uint8"
        }
      ],
      "name": "TEERegistered",
      "type": "event"
    },
    {
      "anonymous": false,
      "inputs": [
        {
          "indexed": true,
          "internalType": "uint8",
          "name": "typeId",
          "type": "uint8"
        },
        {
          "indexed": false,
          "internalType": "string",
          "name": "name",
          "type": "string"
        }
      ],
      "name": "TEETypeAdded",
      "type": "event"
    },
    {
      "anonymous": false,
      "inputs": [
        {
          "indexed": true,
          "internalType": "uint8",
          "name": "typeId",
          "type": "uint8"
        }
      ],
      "name": "TEETypeDeactivated",
      "type": "event"
    },
    {
      "inputs": [],
      "name": "DEFAULT_ADMIN_ROLE",
      "outputs": [
        {
          "internalType": "bytes32",
          "name": "",
          "type": "bytes32"
        }
      ],
      "stateMutability": "view",
      "type": "function"
    },
    {
      "inputs": [],
      "name": "TEE_OPERATOR",
      "outputs": [
        {
          "internalType": "bytes32",
          "name": "",
          "type": "bytes32"
        }
      ],
      "stateMutability": "view",
      "type": "function"
    },
    {
      "inputs": [],
      "name": "VERIFIER",
      "outputs": [
        {
          "internalType": "contract ITEEVerifier",
          "name": "",
          "type": "address"
        }
      ],
      "stateMutability": "view",
      "type": "function"
    },
    {
      "inputs": [
        {
          "internalType": "bytes32",
          "name": "teeId",
          "type": "bytes32"
        }
      ],
      "name": "activateTEE",
      "outputs": [],
      "stateMutability": "nonpayable",
      "type": "function"
    },
    {
      "inputs": [
        {
          "internalType": "uint8",
          "name": "typeId",
          "type": "uint8"
        },
        {
          "internalType": "string",
          "name": "name",
          "type": "string"
        }
      ],
      "name": "addTEEType",
      "outputs": [],
      "stateMutability": "nonpayable",
      "type": "function"
    },
    {
      "inputs": [
        {
          "components": [
            {
              "internalType": "bytes",
              "name": "pcr0",
              "type": "bytes"
            },
            {
              "internalType": "bytes",
              "name": "pcr1",
              "type": "bytes"
            },
            {
              "internalType": "bytes",
              "name": "pcr2",
              "type": "bytes"
            }
          ],
          "internalType": "struct TEERegistry.PCRMeasurements",
          "name": "pcrs",
          "type": "tuple"
        },
        {
          "internalType": "string",
          "name": "version",
          "type": "string"
        },
        {
          "internalType": "uint8",
          "name": "teeType",
          "type": "uint8"
        }
      ],
      "name": "approvePCR",
      "outputs": [],
      "stateMutability": "nonpayable",
      "type": "function"
    },
    {
      "inputs": [
        {
          "internalType": "bytes32",
          "name": "",
          "type": "bytes32"
        }
      ],
      "name": "approvedPCRs",
      "outputs": [
        {
          "internalType": "bool",
          "name": "active",
          "type": "bool"
        },
        {
          "internalType": "uint8",
          "name": "teeType",
          "type": "uint8"
        },
        {
          "internalType": "uint256",
          "name": "approvedAt",
          "type": "uint256"
        },
        {
          "internalType": "uint256",
          "name": "expiresAt",
          "type": "uint256"
        },
        {
          "internalType": "string",
          "name": "version",
          "type": "string"
        }
      ],
      "stateMutability": "view",
      "type": "function"
    },
    {
      "inputs": [],
      "name": "awsRootCertificate",
      "outputs": [
        {
          "internalType": "bytes",
          "name": "",
          "type": "bytes"
        }
      ],
      "stateMutability": "view",
      "type": "function"
    },
    {
      "inputs": [
        {
          "internalType": "bytes32",
          "name": "inputHash",
          "type": "bytes32"
        },
        {
          "internalType": "bytes32",
          "name": "outputHash",
          "type": "bytes32"
        },
        {
          "internalType": "uint256",
          "name": "timestamp",
          "type": "uint256"
        }
      ],
      "name": "computeMessageHash",
      "outputs": [
        {
          "internalType": "bytes32",
          "name": "",
          "type": "bytes32"
        }
      ],
      "stateMutability": "pure",
      "type": "function"
    },
    {
      "inputs": [
        {
          "components": [
            {
              "internalType": "bytes",
              "name": "pcr0",
              "type": "bytes"
            },
            {
              "internalType": "bytes",
              "name": "pcr1",
              "type": "bytes"
            },
            {
              "internalType": "bytes",
              "name": "pcr2",
              "type": "bytes"
            }
          ],
          "internalType": "struct TEERegistry.PCRMeasurements",
          "name": "pcrs",
          "type": "tuple"
        }
      ],
      "name": "computePCRHash",
      "outputs": [
        {
          "internalType": "bytes32",
          "name": "",
          "type": "bytes32"
        }
      ],
      "stateMutability": "pure",
      "type": "function"
    },
    {
      "inputs": [
        {
          "internalType": "bytes",
          "name": "publicKey",
          "type": "bytes"
        }
      ],
      "name": "computeTEEId",
      "outputs": [
        {
          "internalType": "bytes32",
          "name": "",
          "type": "bytes32"
        }
      ],
      "stateMutability": "pure",
      "type": "function"
    },
    {
      "inputs": [
        {
          "internalType": "bytes32",
          "name": "teeId",
          "type": "bytes32"
        }
      ],
      "name": "deactivateTEE",
      "outputs": [],
      "stateMutability": "nonpayable",
      "type": "function"
    },
    {
      "inputs": [
        {
          "internalType": "uint8",
          "name": "typeId",
          "type": "uint8"
        }
      ],
      "name": "deactivateTEEType",
      "outputs": [],
      "stateMutability": "nonpayable",
      "type": "function"
    },
    {
      "inputs": [],
      "name": "getActivePCRs",
      "outputs": [
        {
          "internalType": "bytes32[]",
          "name": "",
          "type": "bytes32[]"
        }
      ],
      "stateMutability": "view",
      "type": "function"
    },
    {
      "inputs": [],
      "name": "getActiveTEEs",
      "outputs": [
        {
          "internalType": "bytes32[]",
          "name": "",
          "type": "bytes32[]"
        }
      ],
      "stateMutability": "view",
      "type": "function"
    },
    {
      "inputs": [
        {
          "internalType": "bytes32",
          "name": "teeId",
          "type": "bytes32"
        }
      ],
      "name": "getPaymentAddress",
      "outputs": [
        {
          "internalType": "address",
          "name": "",
          "type": "address"
        }
      ],
      "stateMutability": "view",
      "type": "function"
    },
    {
      "inputs": [
        {
          "internalType": "bytes32",
          "name": "teeId",
          "type": "bytes32"
        }
      ],
      "name": "getPublicKey",
      "outputs": [
        {
          "internalType": "bytes",
          "name": "",
          "type": "bytes"
        }
      ],
      "stateMutability": "view",
      "type": "function"
    },
    {
      "inputs": [
        {
          "internalType": "bytes32",
          "name": "role",
          "type": "bytes32"
        }
      ],
      "name": "getRoleAdmin",
      "outputs": [
        {
          "internalType": "bytes32",
          "name": "",
          "type": "bytes32"
        }
      ],
      "stateMutability": "view",
      "type": "function"
    },
    {
      "inputs": [
        {
          "internalType": "bytes32",
          "name": "teeId",
          "type": "bytes32"
        }
      ],
      "name": "getTEE",
      "outputs": [
        {
          "components": [
            {
              "internalType": "address",
              "name": "owner",
              "type": "address"
            },
            {
              "internalType": "address",
              "name": "paymentAddress",
              "type": "address"
            },
            {
              "internalType": "string",
              "name": "endpoint",
              "type": "string"
            },
            {
              "internalType": "bytes",
              "name": "publicKey",
              "type": "bytes"
            },
            {
              "internalType": "bytes",
              "name": "tlsCertificate",
              "type": "bytes"
            },
            {
              "internalType": "bytes32",
              "name": "pcrHash",
              "type": "bytes32"
            },
            {
              "internalType": "uint8",
              "name": "teeType",
              "type": "uint8"
            },
            {
              "internalType": "bool",
              "name": "active",
              "type": "bool"
            },
            {
              "internalType": "uint256",
              "name": "registeredAt",
              "type": "uint256"
            },
            {
              "internalType": "uint256",
              "name": "lastUpdatedAt",
              "type": "uint256"
            }
          ],
          "internalType": "struct TEERegistry.TEEInfo",
          "name": "",
          "type": "tuple"
        }
      ],
      "stateMutability": "view",
      "type": "function"
    },
    {
      "inputs": [],
      "name": "getTEETypes",
      "outputs": [
        {
          "internalType": "uint8[]",
          "name": "typeIds",
          "type": "uint8[]"
        },
        {
          "components": [
            {
              "internalType": "string",
              "name": "name",
              "type": "string"
            },
            {
              "internalType": "bool",
              "name": "active",
              "type": "bool"
            },
            {
              "internalType": "uint256",
              "name": "addedAt",
              "type": "uint256"
            }
          ],
          "internalType": "struct TEERegistry.TEETypeInfo[]",
          "name": "infos",
          "type": "tuple[]"
        }
      ],
      "stateMutability": "view",
      "type": "function"
    },
    {
      "inputs": [
        {
          "internalType": "address",
          "name": "owner",
          "type": "address"
        }
      ],
      "name": "getTEEsByOwner",
      "outputs": [
        {
          "internalType": "bytes32[]",
          "name": "",
          "type": "bytes32[]"
        }
      ],
      "stateMutability": "view",
      "type": "function"
    },
    {
      "inputs": [
        {
          "internalType": "uint8",
          "name": "teeType",
          "type": "uint8"
        }
      ],
      "name": "getTEEsByType",
      "outputs": [
        {
          "internalType": "bytes32[]",
          "name": "",
          "type": "bytes32[]"
        }
      ],
      "stateMutability": "view",
      "type": "function"
    },
    {
      "inputs": [
        {
          "internalType": "bytes32",
          "name": "teeId",
          "type": "bytes32"
        }
      ],
      "name": "getTLSCertificate",
      "outputs": [
        {
          "internalType": "bytes",
          "name": "",
          "type": "bytes"
        }
      ],
      "stateMutability": "view",
      "type": "function"
    },
    {
      "inputs": [
        {
          "internalType": "bytes32",
          "name": "role",
          "type": "bytes32"
        },
        {
          "internalType": "address",
          "name": "account",
          "type": "address"
        }
      ],
      "name": "grantRole",
      "outputs": [],
      "stateMutability": "nonpayable",
      "type": "function"
    },
    {
      "inputs": [
        {
          "internalType": "bytes32",
          "name": "role",
          "type": "bytes32"
        },
        {
          "internalType": "address",
          "name": "account",
          "type": "address"
        }
      ],
      "name": "hasRole",
      "outputs": [
        {
          "internalType": "bool",
          "name": "",
          "type": "bool"
        }
      ],
      "stateMutability": "view",
      "type": "function"
    },
    {
      "inputs": [
        {
          "internalType": "bytes32",
          "name": "teeId",
          "type": "bytes32"
        }
      ],
      "name": "isActive",
      "outputs": [
        {
          "internalType": "bool",
          "name": "",
          "type": "bool"
        }
      ],
      "stateMutability": "view",
      "type": "function"
    },
    {
      "inputs": [
        {
          "internalType": "bytes32",
          "name": "pcrHash",
          "type": "bytes32"
        }
      ],
      "name": "isPCRApproved",
      "outputs": [
        {
          "internalType": "bool",
          "name": "",
          "type": "bool"
        }
      ],
      "stateMutability": "view",
      "type": "function"
    },
    {
      "inputs": [
        {
          "internalType": "uint8",
          "name": "typeId",
          "type": "uint8"
        }
      ],
      "name": "isValidTEEType",
      "outputs": [
        {
          "internalType": "bool",
          "name": "",
          "type": "bool"
        }
      ],
      "stateMutability": "view",
      "type": "function"
    },
    {
      "inputs": [
        {
          "internalType": "bytes",
          "name": "attestationDocument",
          "type": "bytes"
        },
        {
          "internalType": "bytes",
          "name": "signingPublicKey",
          "type": "bytes"
        },
        {
          "internalType": "bytes",
          "name": "tlsCertificate",
          "type": "bytes"
        },
        {
          "internalType": "address",
          "name": "paymentAddress",
          "type": "address"
        },
        {
          "internalType": "string",
          "name": "endpoint",
          "type": "string"
        },
        {
          "internalType": "uint8",
          "name": "teeType",
          "type": "uint8"
        }
      ],
      "name": "registerTEEWithAttestation",
      "outputs": [
        {
          "internalType": "bytes32",
          "name": "teeId",
          "type": "bytes32"
        }
      ],
      "stateMutability": "nonpayable",
      "type": "function"
    },
    {
      "inputs": [
        {
          "internalType": "bytes32",
          "name": "role",
          "type": "bytes32"
        },
        {
          "internalType": "address",
          "name": "callerConfirmation",
          "type": "address"
        }
      ],
      "name": "renounceRole",
      "outputs": [],
      "stateMutability": "nonpayable",
      "type": "function"
    },
    {
      "inputs": [
        {
          "internalType": "bytes32",
          "name": "pcrHash",
          "type": "bytes32"
        },
        {
          "internalType": "uint256",
          "name": "gracePeriod",
          "type": "uint256"
        }
      ],
      "name": "revokePCR",
      "outputs": [],
      "stateMutability": "nonpayable",
      "type": "function"
    },
    {
      "inputs": [
        {
          "internalType": "bytes32",
          "name": "role",
          "type": "bytes32"
        },
        {
          "internalType": "address",
          "name": "account",
          "type": "address"
        }
      ],
      "name": "revokeRole",
      "outputs": [],
      "stateMutability": "nonpayable",
      "type": "function"
    },
    {
      "inputs": [
        {
          "internalType": "bytes",
          "name": "certificate",
          "type": "bytes"
        }
      ],
      "name": "setAWSRootCertificate",
      "outputs": [],
      "stateMutability": "nonpayable",
      "type": "function"
    },
    {
      "inputs": [
        {
          "internalType": "bytes4",
          "name": "interfaceId",
          "type": "bytes4"
        }
      ],
      "name": "supportsInterface",
      "outputs": [
        {
          "internalType": "bool",
          "name": "",
          "type": "bool"
        }
      ],
      "stateMutability": "view",
      "type": "function"
    },
    {
      "inputs": [
        {
          "internalType": "uint8",
          "name": "",
          "type": "uint8"
        }
      ],
      "name": "teeTypes",
      "outputs": [
        {
          "internalType": "string",
          "name": "name",
          "type": "string"
        },
        {
          "internalType": "bool",
          "name": "active",
          "type": "bool"
        },
        {
          "internalType": "uint256",
          "name": "addedAt",
          "type": "uint256"
        }
      ],
      "stateMutability": "view",
      "type": "function"
    },
    {
      "inputs": [
        {
          "internalType": "bytes32",
          "name": "",
          "type": "bytes32"
        }
      ],
      "name": "tees",
      "outputs": [
        {
          "internalType": "address",
          "name": "owner",
          "type": "address"
        },
        {
          "internalType": "address",
          "name": "paymentAddress",
          "type": "address"
        },
        {
          "internalType": "string",
          "name": "endpoint",
          "type": "string"
        },
        {
          "internalType": "bytes",
          "name": "publicKey",
          "type": "bytes"
        },
        {
          "internalType": "bytes",
          "name": "tlsCertificate",
          "type": "bytes"
        },
        {
          "internalType": "bytes32",
          "name": "pcrHash",
          "type": "bytes32"
        },
        {
          "internalType": "uint8",
          "name": "teeType",
          "type": "uint8"
        },
        {
          "internalType": "bool",
          "name": "active",
          "type": "bool"
        },
        {
          "internalType": "uint256",
          "name": "registeredAt",
          "type": "uint256"
        },
        {
          "internalType": "uint256",
          "name": "lastUpdatedAt",
          "type": "uint256"
        }
      ],
      "stateMutability": "view",
      "type": "function"
    }
  ],
  "bytecode": "0x608060405234620000965762000015336200009a565b50620000213362000118565b505f8051602062002d0e8339815191525f81815260208190527f04824ce33f8c803f181be3cbd8c64c21a81bc533fe6d4b921df175b0eaf5cbec805490829055604051927fbd79b86ffe0ab8e8776151514217cd7cacd52c909f66475c3af44e129f0b00ff8380a4612b479081620001a78239f35b5f80fd5b6001600160a01b03165f8181527fad3228b676f7d3cd4284a5443f17f1962b36e491b30a40b2405849e597ba5fb5602052604081205490919060ff166200011457818052816020526040822081835260205260408220600160ff1982541617905533915f8051602062002cee8339815191528180a4600190565b5090565b6001600160a01b03165f8181527f04824ce33f8c803f181be3cbd8c64c21a81bc533fe6d4b921df175b0eaf5cbeb60205260408120549091905f8051602062002d0e8339815191529060ff16620001a157808352826020526040832082845260205260408320600160ff198254161790555f8051602062002cee833981519152339380a4600190565b50509056fe6080806040526004361015610012575f80fd5b5f3560e01c90816301ffc9a7146120dc5750806308c84e70146120c0578063097775c6146120a457806315c9bdb414611a08578063248a9ca3146119dc5780632f2ff15d146119a057806336568abe146119595780633c1a88b01461191f578063418b207d1461174257806343ed3274146115e9578063476cb030146115ab5780634b19d4631461152457806358db61a8146114dd5780635c36901c146114a85780639138c99e1461145257806391cc00e91461140857806391d14854146113c0578063971cfbf114610c90578063a217fddf14610c76578063b19ffd1c14610c09578063b1c551ca14610bbd578063b778f86914610b5f578063b82644b714610af2578063c0abde45146108a0578063c206baa314610874578063cbdfc4e01461066d578063ccdf049314610568578063d046a7fa146104f1578063d2e03427146103f7578063d547741f146103bb578063d5ed579d14610393578063d6741a421461031e578063dd31611314610300578063e10a2ea4146102c6578063e44cc48214610243578063f33d2c00146101f95763f44a0780146101b3575f80fd5b346101f5575f3660031901126101f5576101f16040516101dd816101d6816121f8565b0382612340565b604051918291602083526020830190612182565b0390f35b5f80fd5b346101f55760203660031901126101f5576004356001600160401b0381116101f55761023561022e602092369060040161212f565b3691612502565b818151910120604051908152f35b346101f5576020806003193601126101f5576004356001600160a01b038116908190036101f5575f526009815260405f209060405190818184549182815201935f52815f20915f905b8282106102af576101f1856102a381890382612340565b60405191829182612361565b83548652948501946001938401939091019061028c565b346101f55760203660031901126101f55760ff6102e1612172565b165f526001602052602060ff600160405f200154166040519015158152f35b346101f55760203660031901126101f55761031c6004356127b3565b005b346101f55760203660031901126101f55760ff610339612172565b165f52600160205261038260405f20604051906103618261035a8184612278565b0383612340565b600260ff600183015416910154604051938493606085526060850190612182565b911515602084015260408301520390f35b346101f55760203660031901126101f55760206103b16004356126c9565b6040519015158152f35b346101f55760403660031901126101f55761031c6004356103da61215c565b90805f525f6020526103f2600160405f2001546123f2565b61248f565b346101f5575f3660031901126101f5575f80600454905b8181106104b1575061041f82612613565b9161042d6040519384612340565b80835261043c601f1991612613565b013660208401375f805b82811061045b57604051806101f18682612361565b8061047961046b6104849361264c565b919054600392831b1c6126c9565b610489575b5061262a565b610446565b6104928261264c565b9054911b1c6104aa6104a38561262a565b9487612638565b528561047e565b6104c96104bd8261264c565b90549060031b1c6126c9565b6104dc575b6104d79061262a565b61040e565b916104e96104d79161262a565b9290506104ce565b346101f5575f3660031901126101f557604051600780548083525f918252602080840193927fa66cc928b5edb82af9bd49922954155ab7b0942694bea4ce44661d9a8736c68892915b828210610551576101f1856102a381890382612340565b83548652948501946001938401939091019061053a565b346101f55760203660031901126101f5576004355f52600660205260405f2060018060a01b038082541690600183015416916040516105ae816101d68160028601612278565b604051916105ca836105c38160038501612278565b0384612340565b60ff604051936105e8856105e18160048701612278565b0386612340565b61064460058401549561063660068601549361062860086007890154980154986040519c8d9c8d5260208d015260408c61014091829101528c0190612182565b908a820360608c0152612182565b9088820360808a0152612182565b9460a087015281811660c087015260081c16151560e08501526101008401526101208301520390f35b346101f55760403660031901126101f557610686612172565b6001600160401b03906024358281116101f5576106a960ff91369060040161212f565b9190926106b461239b565b1692835f52600192602091848352600260405f20015461086257604051906106db82612325565b6106e6368685612502565b82528382018681526040830191428352885f5287865260405f20935180519182116107d85761071f8261071987546121c0565b8761255d565b8690601f83116001146107f75791806002959492610768945f926107ec575b50505f19600383901b1c1916908a1b1785555b5115158885019060ff801983541691151516179055565b5191015560025490600160401b8210156107d8576107af827fed0161664cf318441e585cccad9fa9fc770298b648a49635dda84ac6f0adc908966107d394016002556125a2565b81549060031b9060ff89831b921b19161790556040519383859485528401916125f3565b0390a2005b634e487b7160e01b5f52604160045260245ffd5b015190508c8061073e565b899291601f19831691875f52895f20925f5b8b82821061084c575050916107689593918560029998969410610834575b505050811b018555610751565b01515f1960f88460031b161c191690558c8080610827565b8385015186558e97909501949384019301610809565b60405163095faf7360e01b8152600490fd5b346101f55760603660031901126101f5576020610898604435602435600435612ad8565b604051908152f35b346101f5576003196080368201126101f557600435906001600160401b03908183116101f55760609083360301126101f5576024358181116101f5576108ea90369060040161212f565b9091610903604435946108fb61239b565b60040161273c565b9380151580610adc575b610aa6575b506040519260808401848110838211176107d857604052600193848152602092600384830192428452604081015f815261094d368988612502565b94606083019586528a5f5283885261097860405f2093511515849060ff801983541691151516179055565b518983015551600282015501915180519182116107d85781906109a58261099f86546121c0565b8661255d565b8590601f8311600114610a47575f92610a3c575b50505f19600383901b1c191690861b1790555b60045490600160401b8210156107d85785610a29610a13847fa3cbee87ba6def0cc8a2c5a3cf7a54f0209c6f939b07979dde08d447d6c3666d986107d3960160045561264c565b819391549060031b91821b915f19901b19161790565b90556040519383859485528401916125f3565b0151905088806109b9565b90889350601f19831691855f52875f20925f5b89828210610a905750508411610a78575b505050811b0190556109cc565b01515f1960f88460031b161c19169055888080610a6b565b8385015186558c97909501949384019301610a5a565b606435420190814211610ac8575f526003602052600260405f20015584610912565b634e487b7160e01b5f52601160045260245ffd5b50805f52600360205260ff60405f20541661090d565b346101f5576020806003193601126101f55760ff610b0e612172565b165f52600a815260405f209060405190818184549182815201935f52815f20915f905b828210610b48576101f1856102a381890382612340565b835486529485019460019384019390910190610b31565b346101f55760203660031901126101f557600435805f526006602052600760405f20015415610bab575f5260066020526101f16101d66101dd600460405f200160405192838092612278565b60405163f6523b6560e01b8152600490fd5b346101f55760203660031901126101f557600435805f526006602052600760405f20015415610bab575f5260066020526101f16101d66101dd600360405f200160405192838092612278565b346101f55760203660031901126101f5576004355f52600360205260405f2060ff8154166101f16003600184015493610c5160028201549161035a6040518095819301612278565b6040519485941515855260208501526040840152608060608401526080830190612182565b346101f5575f3660031901126101f55760206040515f8152f35b346101f5575f3660031901126101f5576040518060029182549081835260208093019283855f528282805f20925f5b8780601f83011061123857610ddf95549184828210611225575b82821061120f575b8282106111f9575b8282106111e3575b8282106111ce575b8282106111b8575b8282106111a2575b82821061118c575b828210611176575b828210611160575b82821061114a575b828210611134575b82821061111e575b828210611108575b8282106110f2575b8282106110dc575b8282106110c6575b8282106110b0575b82821061109a575b828210611084575b82821061106e575b828210611058575b828210611042575b82821061102c575b828210611016575b828210611000575b828210610fea575b828210610fd4575b828210610fbe575b828210610fa8575b828210610f92575b5010610f84575b50905096939295960382612340565b610de883612613565b92610df66040519485612340565b808452601f199283610e0783612613565b015f5b818110610f525750505f5b828110610ed557505050604051936040850191604086525180925260609182860196905f5b818110610ebe57505050848603818601528351918287528187019082808560051b8a01019601945f985b858a10610e715788880389f35b909192939495968580828585600195030188528a5190604080610e9b84518b85528b850190612182565b938581015115158685015201519101529901950199019892919095949395610e64565b825160ff1689529783019791830191600101610e3a565b80610ee7610f489299989596996125a2565b9060ff918291549060031b1c165f528360019182885260405f209060405193610f0f85612325565b604051610f20816101d68187612278565b85528201541615158884015201546040820152610f3d8289612638565b5261047e8188612638565b9693929596610e15565b968094959897604051610f6481612325565b606081525f838201525f604082015282828a010152019794939697610e0a565b60f81c815201839089610dd0565b6001919460ff8560f01c16815201930184610dc9565b6001919460ff8560e81c16815201930184610dc1565b6001919460ff8560e01c16815201930184610db9565b6001919460ff8560d81c16815201930184610db1565b6001919460ff8560d01c16815201930184610da9565b6001919460ff8560c81c16815201930184610da1565b6001919460ff8560c01c16815201930184610d99565b6001919460ff8560b81c16815201930184610d91565b6001919460ff8560b01c16815201930184610d89565b6001919460ff8560a81c16815201930184610d81565b6001919460ff8560a01c16815201930184610d79565b6001919460ff8560981c16815201930184610d71565b6001919460ff8560901c16815201930184610d69565b6001919460ff8560881c16815201930184610d61565b6001919460ff8560801c16815201930184610d59565b6001919460ff8560781c16815201930184610d51565b6001919460ff8560701c16815201930184610d49565b6001919460ff8560681c16815201930184610d41565b6001919460ff8560601c16815201930184610d39565b6001919460ff8560581c16815201930184610d31565b6001919460ff8560501c16815201930184610d29565b6001919460ff8560481c16815201930184610d21565b6001919460ff8560401c16815201930184610d19565b6001919460ff8560381c16815201930184610d11565b6001919460ff8560301c16815201930184610d09565b6001919460ff8560281c16815201930184610d01565b6001919460ff85831c16815201930184610cf9565b6001919460ff8560181c16815201930184610cf1565b6001919460ff8560101c16815201930184610ce9565b6001919460ff8560081c16815201930184610ce1565b6001919460ff8516815201930184610cd9565b509250610400600191855460ff8082168352808260081c1686840152808260101c16604084015280828482826060828260181c168185015282828d82826080921c1681880152828260a095828260281c16878b015260c099838360301c168b820152838360381c1660e0820152838360401c16610100820152838360481c16610120820152838360501c16610140820152610160848460581c169101521c166101808d0152828260681c166101a08d0152828260701c166101c08d0152828260781c166101e08d01521c166102008a0152828260881c166102208a0152828260901c166102408a0152828260981c166102608a01521c16610280870152828260a81c166102a0870152828260b01c166102c0870152828260b81c166102e08701521c16610300840152808260c81c16610320840152808260d01c16610340840152808260d81c16610360840152808260e01c16610380840152808260e81c166103a08401528160f01c166103c083015260f81c6103e082015201930191018491928491610cbf565b346101f55760403660031901126101f5576113d961215c565b6004355f525f60205260405f209060018060a01b03165f52602052602060ff60405f2054166040519015158152f35b346101f55760203660031901126101f557600435805f526006602052600760405f20015415610bab575f526006602052602060018060a01b03600160405f20015416604051908152f35b346101f55760203660031901126101f55760043561146e61239b565b805f52600360205260405f2060ff1981541690557f021cbdaf8e2ddc626ca016468398743e833c1d67b00106b10077757586679a205f80a2005b346101f55760203660031901126101f5576004355f526006602052602060ff600660405f20015460081c166040519015158152f35b346101f55760a03660031901126101f5576084356001600160401b0381116101f5576103b1611512602092369060040161212f565b906064356044356024356004356129fc565b346101f55760203660031901126101f55760ff61153f612172565b61154761239b565b16805f526001602052600260405f2001541561159a57805f526001602052600160405f200160ff1981541690557f30e2b43b128fac88e776d92f693d539845d727cdb1978017ddff47a2e5319a035f80a2005b604051629f97d960e31b8152600490fd5b346101f5576003196020368201126101f557600435906001600160401b0382116101f55760609082360301126101f55761089860209160040161273c565b346101f5576020806003193601126101f5576001600160401b036004358181116101f55761161b90369060040161212f565b9161162461239b565b82116107d85760059161163783546121c0565b601f811161170b575b505f92601f82116001146116a95781611673945f9161169e575b508260011b905f198460031b1c19161790553691612502565b80519101207f378c4547bd8b346276ae1db9e298d984a43bd8788ad795e7a141ba069045f4cb5f80a2005b90508301358661165a565b601f19821693815f52855f20905f5b878782106116f55750508361167396106116dc575b5050600182811b01905561022e565b8401355f19600385901b60f8161c1916905585806116cd565b60018394829394890135815501930191016116b8565b61173290845f52855f20601f8401861c810191878510611738575b601f01861c0190612547565b84611640565b9091508190611726565b346101f55760203660031901126101f5576004355f61012060405161176681612309565b82815282602082015260606040820152606080820152606060808201528260a08201528260c08201528260e0820152826101008201520152805f526006602052600760405f20015415610bab575f52600660205260405f206008604051916117cd83612309565b80546001600160a01b03908116845260018201541660208401526040516117fb816101d68160028601612278565b6040840152604051611814816101d68160038601612278565b606084015260405161182d816101d68160048601612278565b6080840152600581015460a084015260ff600682015481811660c0860152831c16151560e08401526007810154610100840152015461012082015260405180916020825260018060a01b03815116602083015260018060a01b03602082015116604083015260408101516101206118e66118b561014093846060880152610160870190612182565b6118d1606086015191601f1992838983030160808a0152612182565b906080860151908783030160a0880152612182565b9260a081015160c086015260ff60c08201511660e086015260e08101511515610100860152610100810151828601520151908301520390f35b346101f5575f3660031901126101f55760206040517fae5084c516dacf3f1a818c437d702c28b8d2088455f592a7ea799413e3b6f1bf8152f35b346101f55760403660031901126101f55761197261215c565b336001600160a01b0382160361198e5761031c9060043561248f565b60405163334bd91960e11b8152600490fd5b346101f55760403660031901126101f55761031c6004356119bf61215c565b90805f525f6020526119d7600160405f2001546123f2565b612413565b346101f55760203660031901126101f5576004355f525f6020526020600160405f200154604051908152f35b346101f55760c03660031901126101f5576004356001600160401b0381116101f557611a3890369060040161212f565b6024356001600160401b0381116101f557611a5790369060040161212f565b90926044356001600160401b0381116101f557611a7890369060040161212f565b6064359591906001600160a01b03871687036101f5576001600160401b03608435116101f557611aad3660843560040161212f565b909360a4359660ff881688036101f557335f9081527f04824ce33f8c803f181be3cbd8c64c21a81bc533fe6d4b921df175b0eaf5cbeb602052604090205460ff16156120665760ff88165f52600160205260ff600160405f200154161561205457611b19368284612502565b6020815191012098895f526006602052600760405f20015461204257611b6797604091611b9e611b8d611b7a85519c8d95869563f7cf40d360e01b87526080600488015260848701916125f3565b84810360031901602486015287896125f3565b838103600319016044850152898b6125f3565b8281036003190160648401526121f8565b03816109005afa968715612037575f905f98611ff6575b5015611fb057611bc4876126c9565b15611f9f57611bfc611c1496611c089460209c6040519d8e91611be683612309565b3383526001600160a01b03169101523691612502565b60408b01523691612502565b60608801523691612502565b608085015260a084015260ff811660c0840152600160e084018190524261010085018190526101208501525f83815260066020908152604091829020865181546001600160a01b03199081166001600160a01b03928316178355928801519482018054909316941693909317905584015180516001600160401b0381116107d857806002840192611ca98261099f86546121c0565b602090601f8311600114611f3b575f92611f30575b50508160011b915f199060031b1c19161790555b606084015180516001600160401b0381116107d857806003840192611cfb8261099f86546121c0565b602090601f8311600114611ecc575f92611ec1575b50508160011b915f199060031b1c19161790555b60808401519384516001600160401b0381116107d857602095611d5782611d4e60048701546121c0565b6004870161255d565b8690601f8311600114611e5157918060089492610120945f92611e46575b50508160011b915f199060031b1c19161760048501555b60a081015160058501556006840160ff60c08301511681549061ff0060e08501511515871b169161ffff19161717905561010081015160078501550151910155600754825f526008845260405f2055611de48261267c565b335f5260098352611df88260405f206126a2565b60ff81165f52600a8352611e0f8260405f206126a2565b60ff60405191168152817f97d0af70a4d2c616e9c1093d5f57c8b31b3a7d824f1d335e5d5416402ec14931843393a3604051908152f35b015190508980611d75565b90600485015f52875f20915f5b601f1985168110611eaa575092600894926001926101209583601f19811610611e92575b505050811b016004850155611d8c565b01515f1960f88460031b161c19169055898080611e82565b919289600181928685015181550194019201611e5e565b015190508780611d10565b5f858152602081209350601f198516905b818110611f185750908460019594939210611f00575b505050811b019055611d24565b01515f1960f88460031b161c19169055878080611ef3565b92936020600181928786015181550195019301611edd565b015190508780611cbe565b5f858152602081209350601f198516905b818110611f875750908460019594939210611f6f575b505050811b019055611cd2565b01515f1960f88460031b161c19169055878080611f62565b92936020600181928786015181550195019301611f4c565b60405162d85d7f60e71b8152600490fd5b604051630368f92d60e11b815260206004820152601f60248201527f4174746573746174696f6e20766572696669636174696f6e206661696c6564006044820152606490fd5b9750506040873d60401161202f575b8161201260409383612340565b810103126101f5576020612025886127a6565b970151968b611bb5565b3d9150612005565b6040513d5f823e3d90fd5b604051631346e43960e01b8152600490fd5b604051635d672da760e01b8152600490fd5b60405163e2517d3f60e01b81523360048201527fae5084c516dacf3f1a818c437d702c28b8d2088455f592a7ea799413e3b6f1bf6024820152604490fd5b346101f55760203660031901126101f55761031c600435612922565b346101f5575f3660031901126101f55760206040516109008152f35b346101f55760203660031901126101f5576004359063ffffffff60e01b82168092036101f557602091637965db0b60e01b811490811561211e575b5015158152f35b6301ffc9a760e01b14905083612117565b9181601f840112156101f5578235916001600160401b0383116101f557602083818601950101116101f557565b602435906001600160a01b03821682036101f557565b6004359060ff821682036101f557565b91908251928382525f5b8481106121ac575050825f602080949584010152601f8019910116010190565b60208183018101518483018201520161218c565b90600182811c921680156121ee575b60208310146121da57565b634e487b7160e01b5f52602260045260245ffd5b91607f16916121cf565b6005545f9291612207826121c0565b9081815260019283811690815f1461225d575060011461222657505050565b9092935060055f52602092835f2092845f945b8386106122495750505050010190565b805485870183015294019385908201612239565b91935050602093945060ff191683830152151560051b010190565b905f9291805491612288836121c0565b9182825260019384811690815f146122e657506001146122a9575b50505050565b90919394505f52602092835f2092845f945b8386106122d257505050500101905f8080806122a3565b8054858701830152940193859082016122bb565b9294505050602093945060ff191683830152151560051b0101905f8080806122a3565b61014081019081106001600160401b038211176107d857604052565b606081019081106001600160401b038211176107d857604052565b90601f801991011681019081106001600160401b038211176107d857604052565b602090816040818301928281528551809452019301915f5b828110612387575050505090565b835185529381019392810192600101612379565b335f9081527fad3228b676f7d3cd4284a5443f17f1962b36e491b30a40b2405849e597ba5fb5602052604081205460ff16156123d45750565b6044906040519063e2517d3f60e01b82523360048301526024820152fd5b805f525f60205260405f20335f5260205260ff60405f205416156123d45750565b905f9180835282602052604083209160018060a01b03169182845260205260ff604084205416155f1461248a57808352826020526040832082845260205260408320600160ff198254161790557f2f8788117e7eff1d82e926ec794901d17c78024a50270940304540a733656f0d339380a4600190565b505090565b905f9180835282602052604083209160018060a01b03169182845260205260ff6040842054165f1461248a5780835282602052604083208284526020526040832060ff1981541690557ff6391f5c32d9c69d2a47ea670b442974b53935d1edc7fd64eb21e047a839171b339380a4600190565b9291926001600160401b0382116107d8576040519161252b601f8201601f191660200184612340565b8294818452818301116101f5578281602093845f960137010152565b818110612552575050565b5f8155600101612547565b9190601f811161256c57505050565b612596925f5260205f20906020601f840160051c83019310612598575b601f0160051c0190612547565b565b9091508190612589565b906002548210156125df5760025f52600582901c7f405787fa12a823e0f2b7631cc41b3ba8828b3321ca811111fa75cd3aa3bb5ace0191601f1690565b634e487b7160e01b5f52603260045260245ffd5b908060209392818452848401375f828201840152601f01601f1916010190565b6001600160401b0381116107d85760051b60200190565b5f198114610ac85760010190565b80518210156125df5760209160051b010190565b6004548110156125df5760045f5260205f2001905f90565b6007548110156125df5760075f5260205f2001905f90565b600754600160401b8110156107d857610a1381600161269e9301600755612664565b9055565b805490600160401b8210156107d857600182018082558210156125df575f5260205f200155565b5f52600360205260405f2060ff81541615612705576002015480151590816126fa575b506126f657600190565b5f90565b90504210155f6126ec565b505f90565b903590601e19813603018212156101f557018035906001600160401b0382116101f5576020019181360383136101f557565b61276b6127a061274c838061270a565b60209491949161275e8382018261270a565b958260408894019061270a565b9283919260405198868a978989019c8d378701918883015f81523701918583015f815237015f83820152038084520182612340565b51902090565b519081151582036101f557565b5f8181526020600681526040908183206007810154156129115780546001600160a01b0316331415806128f5575b6128e45760068101805460ff8160081c16156128db5761ff0019169055426008918201558484528152818320546007545f1991908281019081116128c757808203612897575b505060075480156128835784939192837f784ce1077bc44f5b33e1724f6a1b9469423f16a15680c26d150787fb36349d179694600893019061286882612664565b909182549160031b1b191690556007558684525281205580a2565b634e487b7160e01b85526031600452602485fd5b6128a090612664565b90549060031b1c806128b4610a1384612664565b9055855260088352838520555f80612827565b634e487b7160e01b86526011600452602486fd5b50505050505050565b82516398b31e6f60e01b8152600490fd5b50838052838252828420338552825260ff8385205416156127e1565b825163f6523b6560e01b8152600490fd5b5f8181526006602052604090818120916007830154156129ec5782546001600160a01b0316331415806129ce575b6129be57600683019283549360ff8560081c166129b6576101007ff1107fa7ae6c5cdb1675a2191d02d30d03220d684e051e5c0632ca0458fe79749561ff0019161790556008429101556007549084835260086020528220556129b28361267c565b80a2565b505050505050565b516398b31e6f60e01b8152600490fd5b508180528160205280822033835260205260ff818320541615612950565b5163f6523b6560e01b8152600490fd5b949092915f9586526006602052604086209160ff600684015460081c1615612acf57612a31612a5894612a6f93602097612ad8565b906040519687958695633f1333cd60e11b8752606060048801526003606488019101612278565b9260248601526003198584030160448601526125f3565b03816109005afa918215612ac3578092612a8857505090565b9091506020823d8211612abb575b81612aa360209383612340565b81010312612ab85750612ab5906127a6565b90565b80fd5b3d9150612a96565b604051903d90823e3d90fd5b50505050505090565b9160405191602083019384526040830152606082015260608152608081018181106001600160401b038211176107d8576040525190209056fea2646970667358221220b43915f7eedd07d3c720e5ec23e1ec88df5e10dfaa5f60b76e9737aa7042660d64736f6c634300081400332f8788117e7eff1d82e926ec794901d17c78024a50270940304540a733656f0dae5084c516dacf3f1a818c437d702c28b8d2088455f592a7ea799413e3b6f1bf",
  "linkReferences": {},
  "deployedLinkReferences": {},
  "immutableReferences": {},
  "inputSourceName": "project/solidity/TEERegistry.sol",
  "buildInfoId": "solc-0_8_20-f8e15bef114e3b1966bfe954ab3aed85a6eb9ce8"
}